:1000000002231802D2101B0A30222202001A000119
:10001000010022025C42EBAA0822320270D00000EA
:1000200000FFFF025D50B28622FFFF02714BCA3B08
:100030007D727D637D271206487D367D271206C5B9
:10004000DA3B220271637F71A9D6CB693000047E4E
:100050006F7D6679360004693000067E6F7D6679B3
:10006000360006693000087E6F7D66793600087EAE
:100070007BA07C6A6C777E6F7D667936000E7C4B48
:100080006C55E5270A3B4D327E2F7D667932001094
:10009000297700020A373E343E343E343E34295735
:1000A00000047C464C577E2F7D662E54000E0B2A92
:1000B000304D321B2A30297700017C476C55297757
:1000C00000037C647E2F7D667932000A7E0B707C93
:1000D00047297000010A372D327E0F7D6679300086
:1000E0000C6D117E1F7D661B1A107E3400301209C4
:1000F000ECA9C6CB220102040810204080025AB1AC
:10010000EB84147BD8A0275FB4F44B0BD02F0CF3F7
:10011000FFFFFFFFFFFFFFFFFFFFFFFFFFFF87A6C0
:10012000CA3B7F307E3BB0F52A29B30001BEB12A1D
:100130002802F52A691300066D007E3400F274FF70
:100140001223BF7F03120994A9D6CB7528008033F0
:1001500075290080237E1128740BAC1BE5290A1B2E
:100160002D013E04691300062D106D000B0A306E40
:1001700034FFFF1B0A30052929730001BE7129389D
:10018000D405287E3B70BE712838C5693300067ED1
:100190000F7D6679300004E52A0A2B7D327C676C7E
:1001A000772D327E0F7D667930000C6D117E1F7DBC
:1001B000661B1A107E3400D01209EC752800E52861
:1001C000BEB00450177EA1287404A47E1F7D66690A
:1001D00011002660441E141478FB803DE528BEB053
:1001E00008501BE5280A5B1B563E543E547E1F7D7B
:1001F000666911002860221E141478FB801BE52814
:100200000A5B9E5400083E543E547E1F7D66691171
:10021000002A60051E141478FB5E14000F7EA128CE
:100220007402A4693300062D356D221B1A100528AF
:10023000E528BEB00B4087A9C6CBDA3B226D337EE2
:100240000F7D6A793000127E0F7D6A2E1400140B28
:100250000A305E607F1B0A30E538541F0A2B7E0F80
:100260007D6A2E1400120B0A304D321B0A30E5391C
:1002700054010A2B3E243E243E243E243E247E0F7D
:100280007D6A2E1400120B0A304D321B0A30E53AFB
:1002900054030A2B3E243E243E243E243E243E2486
:1002A0007E0F7D6A2E1400120B0A304D321B0A306D
:1002B0007E3536BE34000278637E0F7D6A2E1400D0
:1002C000140B0A304E60801B0A30E53B541F7C4BF8
:1002D0006C557E0F7D6A2E1400120B0A304D321BB6
:1002E0000A30E53C54010A5BC42354E07CABE47E55
:1002F0000F7D6A2E1400120B0A304D351B0A30E5B3
:100300003D54030A5B030354C07CABE47E0F7D6A5B
:100310002E1400120B0A304D351B0A30227F21A902
:10032000D6CB693000047E7F7D6679370004693062
:1003300000087E7F7D6679370006693000067E7F83
:100340007D6679370008297000017C476C557E0B6B
:10035000700A372D327E7F7D667937000C29700058
:10036000020A371B347E7F7D667937000A693000C8
:100370000A7E7F7D667937000E6930000C7E7F7DB6
:1003800066793700106930000E7E7F7D6679370010
:1003900012693000107E7F7D667937003029700049
:1003A000037C276C337E1F7D661B1A107E3400A0F1
:1003B0001209EC7E1F7D666911001A7A2B306911D3
:1003C000001C39320001691100167912000269110E
:1003D00000187912000469110022791200066911CF
:1003E0000024791200086911001E7912000A69318F
:1003F00000207932000CA9C6CB22CA3B7A254D7F5A
:10040000307A354BA2AC9209C2AC7E1F7D6A69314D
:1004100000045E3410007A37700CC20A120BA5A2D9
:100420000992ACA9D3CBA9D5CB7E3400017E0F7D38
:100430003A793000067E0F7D3A693000064D3378F8
:10044000F47E354B2E3480001B0A307E1F7D3A69C6
:100450003100084D3368F46D3380207D233E247FC6
:10046000032D120B0A207E0F7D3A1B0A207E0F7D82
:100470003A692000084D2268F40B34BE354D40DB4C
:10048000A9C5CBA9C3CB7E37700C2E34FFFF920ACF
:10049000120BA5DA3B22CA3B7A254D7F307A354BC9
:1004A000A2AC9209C2AC7E1F7D6A693100045E3441
:1004B00010007A37700CC20A120BA5A20992ACD2B6
:1004C000CDA9D5CB7E3400017E0F7D3E793000066C
:1004D0007E0F7D3E693000064D3378F47E354B2E1D
:1004E0003480001B0A307E1F7D3E693100084D3389
:1004F00068F46D3380207D233E247F032D120B0A88
:10050000207E0F7D3E1B0A207E0F7D3E6920000865
:100510004D2268F40B34BE354D40DBA9C5CBC2CDAE
:100520007E37700C2E34FFFF920A120BA5DA3B22A5
:10053000CA797CAB6D777E0F7D6A693000065E34C8
:10054000000268182E14000E0B0A305E70FB1B0AA6
:100550003074037AB329F1751E038003E4805A4C8A
:10056000AA685480447E1F7D6A693100065E3400AB
:1005700001780AE47AB329F1751E00803C7E3400CC
:10058000011261410B74BE7403E8281D7E0F7D6A61
:100590002E14000E0B0A304E70041B0A3074027ABF
:1005A000B329F1751E02E480107E1F7D6A69310057
:1005B0000E5E34000378AE7401DA7922CA797CAB1E
:1005C0006D777E0F7D6A693000065E340002681820
:1005D0002E14000E0B0A304E70041B0A3074027A7F
:1005E000B329F1751E028003E4805A4CAA68548036
:1005F000447E1F7D6A693100065E340001780AE49A
:100600007AB329F1751E00803C7E340001126141ED
:100610000B74BE7403E8281D7E0F7D6A2E14000E35
:100620000B0A305E70FB1B0A3074037AB329F17534
:100630001E03E480107E1F7D6A6931000E5E340067
:100640000868AE7401DA7922CA3B7D727D63A2AC80
:100650009203C2AC7E1F7D6A693100045E341000D3
:100660007A376B9CC20A120BA5A20392ACA9D3CB1A
:10067000A9D5CB7E3400017E0F7D3A793000067E0D
:100680000F7D3A693000064D3378F47D362E348084
:10069000001B0A307E1F7D3A691100084D1168F475
:1006A0001B1A707E1F7D3A693100084D3368F4A92A
:1006B000C5CBA9C3CB7E376B9C2E34FFFF920A12A9
:1006C0000BA5DA3B22CA3B7D727D63A2AC9203C2CA
:1006D000AC7E1F7D6A693100045E3410007A376B8E
:1006E0009CC20A120BA5A20392ACD2CDA9D5CB7E97
:1006F0003400017E0F7D3E793000067E0F7D3E691D
:100700003000064D3378F47D362E3480001B0A30DD
:100710007E1F7D3E691100084D1168F41B1A707E22
:100720001F7D3E693100084D3368F4A9C5CBC2CDA9
:100730007E376B9C2E34FFFF920A120BA5DA3B2208
:10074000CA3B7D73A2AC9200C2AC7E1F7D6A696118
:1007500000045E641000C20A120BA5A20092ACA9AC
:10076000D3CBA9D5CB7E3400017E0F7D3A79300002
:10077000067E1F7D3A691100064D1178F41B1A7030
:100780007E0F7D3A693000084D3368F46D331B0AE3
:10079000307E1F7D3A691100084D1168F4697100BF
:1007A00002A9C5CBA9C3CB2E64FFFF920A120BA5E9
:1007B0007D37DA3B227E08015F7E340018E4122385
:1007C000BFA9D1CBD2CC7E3400047E08015F740C6B
:1007D000120A43A9D1CBC2CC6CAA7E7002AC7A7E3D
:1007E00008015F2D130B0A207C456C550B0A300A5B
:1007F000364D321B0A300BA0BEA00C40DD22FFFF9D
:10080000CA3B7D73A2AC9200C2AC7E1F7D6A696157
:1008100000045E641000C20A120BA5A20092ACD2C2
:10082000CDA9D5CB7E3400017E0F7D3E7930000608
:100830007E1F7D3E691100064D1178F41B1A707EF3
:100840000F7D3E693000084D3368F46D331B0A306C
:100850007E1F7D3E691100084D1168F46971000228
:10086000A9C5CBC2CD2E64FFFF920A120BA57D371E
:10087000DA3B22A9D6CBC230693000047E2F7D66D8
:1008800079320004693000067E2F7D6679320006D9
:10089000693000087E2F7D66793200087E0B707CFF
:1008A000476C55297000010A372D327E2F7D6679FD
:1008B00032000C297000020A377E2F7D66793200E3
:1008C0000E29B0000354010A5B7CABE47E1F7D66F9
:1008D0001B1A506930000A1209ECA9C6CB22A9D60E
:1008E000CB692000047E2F7D6679220004692000F8
:1008F000087E2F7D66792200087E0B500A557CAB5E
:10090000E4295000010A252D257E2F7D66792200DD
:100910000C295000020A257E0F7D667920000E7E8C
:100920000F7D667930000A6D117E1F7D661B1A10DF
:100930007E3400401209ECA9C6CB22CA3B6CAA7EC9
:100940009002AC9A7F702DF40B7A405E80031B7A84
:10095000407E9006AC9A7CB97F71600D1EF41EE457
:1009600050044EF480001478F37D4F5E44003F7DC8
:10097000747CEF6CFF3E743E747ED002ACDA7F6014
:100980002DD60B6AF04DF71B6AF00BA0BEA00440F9
:10099000AEDA3B227F10A9D6CB691100027E2F7DF3
:1009A0006679120004691100047E2F7D66791200B9
:1009B00006691100067E2F7D66791200087E1B30C5
:1009C0000A037E140100AD10297100010A372D3190
:1009D0007E0F7D667930000C6D117E1F7D661B1ABF
:1009E000107E3400601209ECA9C6CB22A9D7CB7DBA
:1009F000234E50017E0F7D660B0A304D321B0A30AC
:100A0000801E7E0F7D660B0A307D235E240008BEAB
:100A1000240008780BA9D7CB4E70041B0A30D230C3
:100A20007E0F7D660B0A307D235E248000BE24800D
:100A30000078CF4E60401B0A306D117E1F7D661B13
:100A40001A10227E2400017E7F7D42792700067ED7
:100A50007F7D42692700064D2278F45E607F1B7A15
:100A6000307E1F7D42693100084D3368F46CAA80E6
:100A7000206D447E1F7D421B1A407E1F7D426941CE
:100A800000084D4468F4694100021B0A400B150B35
:100A9000A0BCBA38DC22CA797CAB6C99802D7EF080
:100AA00002ACF97F602DD70B6AF05EF4FC001B6A84
:100AB000F07F712DF70B7AE07EF002ACF97F602DAC
:100AC000D70B6AF04DFE1B6AF00B90BCA938CFDA49
:100AD00079220B38205E50C01B38200B0A205E4064
:100AE000071B0A20E52A0A5B0B38204D251B3820FE
:100AF000E5290A3B7D237C456C553E243E243E245B
:100B00000B0A304D321B0A3022A9D6CB543F5E70FF
:100B10001F7E1400017E7F7D66791700027C2B6C9E
:100B2000330A372D317E0F7D66793000327E0F7D9E
:100B30006679200014A9C6CB1207B5020CE730284D
:100B400031A9D2EAA9C2EA6D337E0F7D6A793000FD
:100B5000167E34012C7E0F7D6A79300018C2287E03
:100B60000F7D6A2E1400140B0A305E70FB1B0A30D6
:100B7000C22722A2AC92097E0F7D6A0B0A305E3436
:100B80001000680B0B150B0A304E60101B0A30C2A8
:100B9000AC7E0F7D6A0B160B0A304E60101B0A30BC
:100BA000A20992AC22A2AC920BC2AC7E0F7D6A303D
:100BB0000A0A0B160B0A304E601080080B160B0A3F
:100BC000305E60EF1B0A30A20B92AC220B0A305E43
:100BD00034FC7F1B0A300A2B5E2400073E243E248F
:100BE0003E243E243E243E243E240B0A304D321B3C
:100BF0000A3022A9D7CA7E2400017E0F7D6E1B0A0F
:100C0000207E2409607E0F7D6E792000027E0F7D9C
:100C10006E79300004220B0A205E24801F1B0A20FC
:100C20007D235E40033E243E243E243E243E240B8E
:100C30000A302D321B0A30220B0A305E60C71B0AB5
:100C40003054070A3B7D237C456C553E243E243EB0
:100C5000240B0A304D321B0A3022CA3B7D727A0DBA
:100C6000297D637E0D297D271203FA7D367E0D29AD
:100C70007D27120496DA3B220B0A305E609F1B0A26
:100C80003054030A5BC42354E07CABE40B0A304DC0
:100C9000351B0A30220B0A305E70E71B0A30540302
:100CA0000A2B3E243E243E240B0A304D321B0A30D0
:100CB000227CA70B0A305E604060034E60807CBAE5
:100CC000543F7C4B6C554D321B0A30220B0A50545A
:100CD000E01B0A507D525E54001F0B0A204D251B5D
:100CE0000A2079300002227EB3016FB4E7127EB38E
:100CF0000170B4160B7EB3016C5401B4010280FE86
:100D0000220B0A305E600F1B0A300A5BC454F07C71
:100D1000ABE40B0A304D351B0A30220B0A305E6003
:100D2000FC1B0A3054037C4B6C550B0A304D321BB4
:100D30000A30220B0A205E50FC1B0A207D235E2411
:100D400000030B0A304D321B0A3022D228D2277EF4
:100D50000F7D6A2E1400140B0A304E70021B0A30ED
:100D6000227D230B0A305E34F8001B0A304D321B03
:100D70000A30227D230B0A305E34F8001B0A304D06
:100D8000321B0A30220B0A305E700370034E700C67
:100D90001B0A3022020D141B21252B313736332D2F
:100DA000282019140D080102050B10181E232A30E3
:100DB000353A3E3F00010100000000000104090F28
:100DC000151D242A30353B3E3F403F3E3D3D3C3CD7
:100DD0003B3B39371A2D65551B29271E14111A263E
:100DE0002E373D3F3D372E21160C05010000010333
:100DF0000A131D262E33383A16212B32302A272A81
:100E00002F2D241A1007010002071019232D364137
:100E1000494C4A453C342A27517150552812111823
:100E200023292B2A2E353C3E3F3931281E150E062C
:100E300003010000030C16202B32373920293237EA
:100E40003128212A312D231B1308010001050C181C
:100E50002029343E474F504D453C343126CB505528
:100E60001D2F2C251A1B202931312E2D353D3F3DBC
:100E7000382C22150D0601000106101B242F383DC9
:100E80000D1B273132281E14151D2831342A1F143A
:100E9000090100040D17212C35404747443C3430EC
:100EA0001B825055192E2A1F181B222D302E2E352D
:100EB0003D3F3D3A2F24180F07010000030B161E7B
:100EC00029323A3D111F283230261B141C252E359D
:100ED0002E23191104000108101C25303840423F10
:100EE00039322C27C0D15055182C291E1413161E28
:100EF00029302E2C2B373D3F3E3930251B10080161
:100F0000000209131F2D383C111A232F33292016F4
:100F10000E131D283231281E160B02000108121E66
:100F200029333B3F3C322926306E5055162B24176F
:100F30000D0A0E15242825232B363B3D3B372B204D
:100F4000150B040000030E1927333D3F13212E37E4
:100F50003A31271C131C28343E372D22180C01006F
:100F6000030D1825313C474842382E2A316250552E
:100F7000352E27221F1B16100C0806040200000045
:100F80000103060B0E12171D22262A3035393D3F6C
:100F90000000010406080B10161B1F23282D3236F3
:100FA0003B4044484A4B4C4B4A484643403E3C3AFF
:100FB0003C9C34552D2824221F1C191613100C0894
:100FC00005020003070A0E1116191E22272C3033C2
:100FD00036393D40000206090B0E111416181B1F6E
:100FE000222528292B2C2D2E2F3032333536383917
:100FF0003B3C3E40AC6A3455251E1A1715110E0BAA
:1010000009070402010205090D1013171B1E2125F3
:10101000292D3033373B3E4000060C1013191F2397
:10102000272B2F3336383A3A3A3B3B3B3C3C3C3C4F
:101030003C3D3D3D3E3E3F40CAD8345509171D2634
:101040002E373C3F3B332B221A110B0503010100C5
:10105000000001060A1119222A32393D30302F2CA6
:10106000261E170D05000001060E151E262C323A0D
:101070004148505B616464605B56514FD82C3355D6
:101080000611181E22272A2C29251F18110B0501CD
:1010900000000103060A111820262C32363B3D3F82
:1010A00048372E241A110A04000001050B121B21D7
:1010B00028303741474E54534E48413B332C282566
:1010C0000B673355060C1519222B2F363C3E3F3942
:1010D0003429251D140F0702000000020C10101007
:1010E00010101010363532312D28251F18130A0222
:1010F00000000003080C172126313B3F45464646B9
:1011000046464646F059335500060F19212A2E321D
:101110002A2118140C060200010B131D252A323A4D
:101120003F3F3F3F3F3F3F3F231F1B17130C09012A
:1011300001060E121B242D373B3F3F3D39362E252D
:101140002020202020202020F47B3355050D19235A
:101150002D31342C221E150D08040200020C10192A
:10116000212A2E373F3F3F3F3F3F3F3F1C1B181672
:10117000100D040003050C161E262A353D3F3E3C8B
:101180003B3A393836363636363636368D3A33557A
:10119000050D131920262E353C3D372F2019110B34
:1011A0000502000001060C171D232930363B3E3E88
:1011B000282522201D18140F0802000004070C1116
:1011C000181E242C333A3E3F3E3C38312A211A1A4D
:1011D00006333355261C191818181818181817171D
:1011E000150F0904010000000001040B12181F284C
:1011F00031373C4001070E141C232C343E444C5420
:101200005B605D554F49433D38322B26221F1E1C23
:101210001C1C1C1D665474553E2C211D1D1D1D1DBE
:101220001D1D1D1D1D1D1E1E1D1A110C0702000077
:10123000030A121C232C38400C00060F17222932F7
:101240003B41474F555C6671793E766D645A524B0F
:101250004239353332323131F3DB74550907060632
:10126000050504040404030202020100000000005A
:10127000030A10141B22282E34393D40000B11168E
:101280001B22282C333940464D52565C61686D73E1
:101290007371717170706F6F6F6F6D6E798044557F
:1012A0001713121211100F0D0C0B0908070403027B
:1012B0000100000001040B10161D242931393D40A6
:1012C000000E161A1F24292E33383E434750555915
:1012D00062696E757CFF7D7C79736D68605A5756C4
:1012E0005D08445500070B0D101216171718181932
:1012F00019191C1E2022232527292B30323335387B
:10130000393B3D3F3E291F180F07060C121D252DA6
:10131000363E3B352C262019110A030309101824E8
:101320002C333A3E609B3255000505050403020349
:1013300005070A0E11191B1C1D1C1C1D1F22252A26
:101340003133353738393C4000121C242B343C39BA
:101350002F2921160F0D141E2A33312720181007AC
:101360000A101A262F373D3FFB8F3255000001032C
:10137000080B12181B20222223242627292B303168
:101380003132323435373B3E3F3F3F3F7B6D5F5319
:10139000403623140B030E1E29352920110706168B
:1013A0001F2D35434C5968727474747490273255EC
:1013B0002C231F19130C070300000001050A0F1648
:1013C0001D232A30363B3E403F3E3B38332F2B28EF
:1013D0000901000103090E141B21272E363B3E4153
:1013E00041403D3A362F2B26201C16100C0A090BC3
:1013F00036DC30551A0905010000000205090F16F8
:101400001C222A3136393C3E3F3F3D3830271F18D9
:10141000120B0605071219222C363F49535C6366EE
:10142000645F584C433D342B221B150B0400000114
:10143000040B1318F10C3055182C34393C3D3F3F48
:101440003F3D3B36302A241C160D060100000001EA
:10145000010305090F171E240102080E141A212882
:10146000303740495055595C5C5851483F38312B12
:10147000251D17110A0401019DBF305516070200F2
:101480000000000104080E161F2830383C3E3F4083
:101490003F3F3D3B37322C251D160F0C53463E3542
:1014A0002E27201A140D06010000030A131A202704
:1014B0002D333A40484F54585A5A5857C65530550C
:1014C0000701040A1018202A32383C3E3F3E3D3BBB
:1014D000393530272119120B0603010000000000E6
:1014E000321D12090501000001050D17202A323BAB
:1014F000454E5863696B6A645D574F474038322FD9
:101500001AB5305521130C0805020100000103082B
:101510000F171E242B32393D3E3F3F3D3A363029CE
:10152000211A161305090E141A222930383F474D87
:1015300051514F4D494239312B251E1710080300D8
:1015400000010305AF133055383F3D3A362E261FB4
:10155000140B0602000000010205090E141C232AC8
:1015600034383A3B3D3D3D3D291A10090400000145
:10157000040C141C22282F373F474F565A5B5956EC
:101580004E4740373028221F2AA930553E3B38337A
:101590002B241D1610070301000000010103060C97
:1015A000151C23292F35383B3C3E3F3F1F100A06B0
:1015B00000000002040C12181E252C353C424A5132
:1015C0005656534E49403A332C251F1CF9A230552C
:1015D0001F2B3135383B3E3F3F3D3A342D27231DED
:1015E000171009040100000103060A0F151B202330
:1015F00045423E38342D241C15110B060200000014
:101600000103070D1218202830363C424748494A4A
:10161000659D30551C2A33393C3E3F3F3E3D3A35AF
:101620002E28231C150F0904010000010104080DD8
:1016300013191E22403E3A332F29221B15100A058A
:101640000100000102050A11171C242A30353B4015
:1016500043444545CBC63055050304070A101721FE
:10166000282E33383C3E3F3F3E3B38312921180F6E
:10167000090401000000000026353D454B5153523E
:101680004F4C46413B342E251E1711090300000222
:10169000060C12181E242C31F4B630550A05050527
:1016A000080F16202931363A3C3E3F3F3E3C3A3344
:1016B0002D241C140F0804000000010235464E566C
:1016C0005D65686660574F473F372E251E1610062A
:1016D000020001050B151D282F394145F0BC30557E
:1016E0000703030304070F17202830363B3D3F3F15
:1016F0003D39362D251D160D080200000102030597
:101700002E3F4850595F6768635D524A3E352B2033
:1017100018100A03000001070E19222B313A424724
:10172000EFC930553B3C3C3B39362F272119110B73
:1017300005010000010204060A10161F262D333988
:101740003C3E3F3F22313B41474D56595A58555137
:101750004B433D3529201811090300000103070FF1
:10176000151B21262BA03055373837342D261C1653
:101770000E0904020000000102050A101720262E9F
:10178000353A3C3E3F3F3E3E30404950595E605DF9
:101790005650474139332A201A100A050100000328
:1017A0000810171F252F383C37C330553B3D3D3BB4
:1017B0003832271C130E08030000000103070B1228
:1017C00018202831393D3F403F3F3E3E33454E577C
:1017D0005D656C6A66635C534A40382E251A1108B1
:1017E00004000002091019212A32393E07903055B1
:1017F00008020000000205070C12191F2B32373BAC
:101800003D3F3F3E3D3A372F29231D160F0906065F
:10181000473D362F271E1610090300000104070D4F
:10182000141D262D333A424E535556544F484242CA
:10183000439E30550200000103070C131C242D3772
:101840003F3D3B393634312E2B2720160E0803033B
:10185000030404045D50463E362C20160D0602009B
:101860000B16222A333C444C555D69797D766D63B5
:1018700059504847123E3055030102060A162025EA
:1018800030393E3F3F3C3A322822190E0502000013
:1018900000010101010101012923180F0B030000C0
:1018A00001081117212A2F3A4243423E38342C2492
:1018B0001F1C1C1C1C1C1C1C7FD23055392B241CCB
:1018C000150E0906050609101922272E353B3E3F45
:1018D0003D38322C261F19130B05010006000102AA
:1018E000060B11171D242A2F32343536373B41475A
:1018F0004E565D6164656563605C5754D14A4655D8
:101900003C37332F25201B100C0802000003070C66
:10191000161B1F2A2F333D3D392F2B282828282816
:10192000020000000204070C0F131C20242D30328B
:10193000353636363636393D42484A4B4B4B4B4BA3
:1019400010A24655322C271C160C0703000000027B
:10195000040D111A1F252F333C3D342F2A211D1C45
:101960001C1C1C1C0100000002060A0E161A22266E
:101970002B31323536383A3B3E414A4C4D4E4E4E75
:101980004E4E4E4E433346551A13100D0B0A0C1192
:10199000162025292E32373C3F3C38332E29241E71
:1019A000190F0B070200000000060B1015191D1E71
:1019B0001F1E1F1F202124292F393E414447494B18
:1019C0004C4E4E4F4E4D4D4D0A24465500010305D9
:1019D00007080A0B0C0E0F111214161A1E222427C8
:1019E0002A2C2E313336383A3C3E3F3F010E141B31
:1019F00023282E353A40484F565D62615A534E4770
:101A0000403B352D29221B17100905016D7D5455CA
:101A1000403938363533312E2C2B29272524221FE7
:101A20001D1A181514120F0C0907040201000000FA
:101A3000000D151D232A323B434850575D636865EE
:101A40005E58514A453F38322B261F1610080401B4
:101A50006AEC545501000000000000000000010283
:101A6000040507090D1013181F24272B2E313436B7
:101A7000393C3E4000070F13161A1E2225282F3628
:101A80003B3F43474B4C4C4C4946433F3A35322D44
:101A900027211D1AB5D0545500010101020303048A
:101AA00005090F161D22282D30323437393A3C3DB6
:101AB0003E3E3F3F3E3E3C3A222E363F464C51563C
:101AC0005B5E605E5C58534D4945413A35312D2788
:101AD000231F19110D0803003B385455000203055C
:101AE00006080B10131617191B1D1F212222222274
:101AF0002325282E313436383A3C3E3F061720271E
:101B000030383E39322B251E1810090910181F26AF
:101B10002F363C382F271F180F080102C775315583
:101B200000000000010103080D121517181A1B1CF4
:101B30001D1D1E1F22272E35383B3D3E3F403F3E98
:101B400006151B23292F373C372E27201A130E1476
:101B50001A21272F383F3D352E262018110B030060
:101B6000673F31550DD0708F00FFD02F04A7248719
:101B700002A90000000000000000000000000000BA
:101B80000000000000004137320144354100FFFFF2
:101B9000FFFFFFFFFFFFFFFFFFFFFFFFFFFFFFFF55
:101BA000FFFFFFFFFF0830303100000000000000A1
:101BB000000000000000010001010101010101011C
:101BC0000101010101010101010101010101010006
:101BD000010808102210220000011001100003006B
:101BE00003011001100100030004000500060007B6
:101BF00000080009000A000B000C000D000E000F89
:101C00000010001100120013001400150016001738
:101C100000180019001A001B001C001D001E001FE8
:101C20000020002100220023002400250026002798
:101C300000280029002A002B002C002D002E002F48
:101C400000300031003200330034003500360037F8
:101C500000380039003A003B003C003D003E003FA8
:101C60000040004100420043004400450046004758
:101C700000480049004A004B004C004D004E004F08
:101C800000500051005200530054005500560057B8
:101C900000580059005A005B005C005D005E005F68
:101CA0000060006100620063006400650066006718
:101CB00000680069006A006B006C006D006E006FC8
:101CC0000070007100720073007400750076007778
:101CD00000780079007A007B007C007D007E007F28
:101CE00000800081008200830084008500860087D8
:101CF00000880089008A008B008C008D008E008F88
:101D00000090009100920093009400950096009737
:101D100000980099009A009B009C009D009E009FE7
:101D200000A000A100A200A300A400A500A600A797
:101D300000A800A900AA00AB00AC00AD00AE00AF47
:101D400000B000B100B200B300B400B500B600B7F7
:101D500000B800B900BA00BB00BC00BD00BE00BFA7
:101D600000C000C100C200C300C400C500C600C757
:101D700000C800C900CA00CB00CC00CD00CE00CF07
:101D800000D000D100D200D300D400D500D600D7B7
:101D900000D800D900DA00DB00DC00DD00DE00DF67
:101DA00000E000E100E200E300E400E500E600E717
:101DB00000E800E900EA00EB00EC00ED00EE00EFC7
:101DC00000F000F100F200F300F400F500F600F777
:101DD00000F800F900FA00FB00FC00FD00FE00FF27
:101DE00001000101010201030104010501060107CF
:101DF00001080109010A010B010C010D010E010F7F
:101E0000011001110112011201110110010F010E47
:101E1000010D010C010B010A01090108010701066E
:101E200001050104010301020101010000FF00FEA0
:101E300000FD00FC00FB00FA00F900F800F700F6D6
:101E400000F500F400F300F200F100F000EF00EE06
:101E500000ED00EC00EB00EA00E900E800E700E636
:101E600000E500E400E300E200E100E000DF00DE66
:101E700000DD00DC00DB00DA00D900D800D700D696
:101E800000D500D400D300D200D100D000CF00CEC6
:101E900000CD00CC00CB00CA00C900C800C700C6F6
:101EA00000C500C400C300C200C100C000BF00BE26
:101EB00000BD00BC00BB00BA00B900B800B700B656
:101EC00000B500B400B300B200B100B000AF00AE86
:101ED00000AD00AC00AB00AA00A900A800A700A6B6
:101EE00000A500A400A300A200A100A0009F009EE6
:101EF000009D009C009B009A009900980097009616
:101F0000009500940093009200910090008F008E45
:101F1000008D008C008B008A008900880087008675
:101F2000008500840083008200810080007F007EA5
:101F3000007D007C007B007A0079007800770076D5
:101F4000007500740073007200710070006F006E05
:101F5000006D006C006B006A006900680067006635
:101F6000006500640063006200610060005F005E65
:101F7000005D005C005B005A005900580057005695
:101F8000005500540053005200510050004F004EC5
:101F9000004D004C004B004A0049004800470046F5
:101FA000004500440043004200410040003F003E25
:101FB000003D003C003B003A003900380037003655
:101FC000003500340033003200310030002F002E85
:101FD000002D002C002B002A0029002800270026B5
:101FE000002500240023002200210020001F001EE5
:101FF000001D001C001B001A001900180017001615
:10200000001500140013001200110010000F000E44
:10201000000D000C000B000A000900080007000674
:1020200000050004000300000000000000000000A4
:1020300000000000000000000000000000000000A0
:10204000000018120005000000000600060006004F
:102050000600060006000600060006000600060050
:102060000600060006000600061812020500000021
:102070000005000500050005000500050005000538
:102080000005000500050005000500050005000528
:1020900018120205010000000500050005000500FA
:1020A0000500050005000500050005000500050008
:1020B00005000500050005181202050200000005D4
:1020C00000050005000500050005000500050005E8
:1020D0000005000500050005000500050005010AD2
:1020E0001E401400640DAC00C8012C011801360517
:1020F000DC05DC05DC019001900A000177010A068D
:10210000213C000000000000000000000000000072
:10211000000000000000160100018701000C01D042
:102120000001001501010400020000000000000091
:102130000000000000001D0000000000FF0064001F
:10214000000000000001010000000000000000008D
:1021500000000000000000000001D00100000000AD
:102160000000000000000000020004400438021CCF
:10217000424202580258010F010F087004383E3ED7
:1021800001F001F000FF00FF1000C8025803200218
:10219000D007D0012C00440004010502020404060B
:1021A0008000C81388100306012C025803201F402A
:1021B00028015E02BC001412050F0258012C04B065
:1021C0000064043232005003E8005008200032015D
:1021D000F401F4032000C8006C001E0080021C0201
:1021E0001C006407D0021C021C006407D00000041D
:1021F0003800000870006400A000A009C4012CC2CF
:10220000D57CB430E708B2D56E24FFFF0B247CB632
:1022100030E712B2D56E34FFFF0B348D326E24FFDF
:10222000FF0B2480028D3230D5066E34FFFF0B3455
:10223000227D51AD037D027D21AD052D12AD352DE1
:1022400021227D02AD31AD102D21226D0074104D83
:1022500000780B4D2278278D317D126D22227D432F
:102260007D326D222F112D445002A50FBF10400466
:102270009F100B901478ED7F016D227D34227D41FB
:102280007D138D247D022F004004BD0440049D0475
:102290000B141478F17D237D317D106D0022C2D5A1
:1022A0007CB030E708B2D59F229F207F027CB430FB
:1022B000E713B2D59F229F217F1212224D9F229FAA
:1022C000207F02800312224D30D5069F229F217F5E
:1022D00012226CAA4D11681A1E54680E0B38201B6E
:1022E00018200B350B151B5478F250067E39407AB6
:1022F0001940226CAA4D11681E1E54500C7E1B0002
:102300007A190068120B1C0B140B1A001B18000B17
:102310001D0B151B5478F2227584017E447FFFE467
:102320007A49B01B4478F97EF87D7BC222C223C271
:1023300024C21EC21F751200C229C22AC22BC22586
:10234000C226C22CC215C216C217D218D219C20C8C
:10235000C20DC20EC20FC210C211C212C213C214E9
:10236000C22DC22ED227C228751E00751F017E0401
:1023700000FF7E14262D0B0A405D44681A69200078
:10238000020B0E0B44800A7E0BB07A29B00B240B93
:102390000C1B4478F280DF0227F6CAF87F20800AFF
:1023A0007E1BF07A2BF00B340B5469FFFFFC7DEFA2
:1023B0001BE479EFFFFC4DFF78E67F10DAF8227D11
:1023C000437F1080071B447A0BB00B144D4478F503
:1023D00022FF00010200FF01020001FF02000102D2
:1023E000FF7D23BE24000048037D32226D339D32E1
:1023F00022000000000000000000000000000000BB
:1024000000000000000000000000000000000000CC
:1024100000000000000000000000000000000000BC
:1024200000000000000000000000000000000000AC
:10243000000000000000000000000000000000009C
:102620000000000000000000000000000000014D5C
:10263000400100014D460100014D4805000351D302
:10264000000000000651D600000000000000065106
:10265000DC000000000000000103FF0100017D73A9
:102660000000027C2B000000017B58FF000A0008DC
:1026700000000000000000000000000178F20000EF
:1026800008798F0500000200020002000C79BF01EA
:10269000030003000003000003000000017D780038
:1026A00000017C720000017C730000027D76000056
:1026B00000017CF30000017D550000015F91FF00E7
:1026C0000160E000000260E10000000460E300003F
:1026D00000000001667D00000266CE000000017D62
:1026E000600100017D610000017D350000017D3643
:1026F0000000017D370000017D380000017D3900B8
:1027000000027B560000000629F93F1F50112010DF
:10271000000129FF3400017ADB6400017D7A0000AA
:102720000129E500000129EA05000129EE04000263
:1027300029EF0000000129F101000129F500000145
:1027400003FE0100017D7B0100017D460000017C4C
:102750002DFF00017C2E0000017C2F0000017C3049
:102760004000017C31400002242B2431000127F17C
:10277000020001281A0000047D6600009000000499
:102780007D3A0000940000047D3E000098000004A3
:102790007D4200009C000004015B000080000004FA
:1027A0007D6A0000910000047D6E00009200000030
:1027B00003E8005100030320005000030258004EBC
:1027C000000401C2004B000401400047000400C89F
:1027D000004400040078003E00050064003C000551
:1027E0001227EBE47AB37BCD0247E074017AB37B26
:1027F000827AB37D2D22125A301229D9124A8B12B5
:1028000091691227E07EB37B8224FD68090BB178C1
:10281000F412281B80EF1245AF80EA3029137EB3F3
:102820007BC9B4010C74017AB378E97AB37D738003
:102830000312587EC2297EB37D2DB40102800201AD
:10284000CD12709912635E12543C1244DC7E342027
:10285000E712292612464E124E4F7EB324267002EE
:10286000805212C16D7EB37B7FB40102D2867EB3EB
:10287000746D7006122A3712DD7E127BE67EB32459
:10288000267002802F74011228E2122F40129C9FA2
:10289000129B3974021228E2128A0574031228E28C
:1028A00012A78A74041228E21277681278067EB39F
:1028B0002426700B12C0F112597912DAC1013612B6
:1028C000815112707312D60A1259820136D2041243
:1028D0003FA70228D512DAB37EB37B7FB40102D2C0
:1028E00086221BB1680D1468100BB1781CE47AB312
:1028F00074502212001902B7EE12A9BB12C4FE7A5C
:10290000B3745312B9F1028F3C227A377458E47AC7
:10291000B37D797E3420F57E2400FF0B1A307A37A0
:1029200074627E3420F77E2400FF0B1A3022902040
:10293000DFE4937AB37454122F367E3420E91229DF
:10294000267A3774567E3420EB1229267A3774584B
:102950007E3420ED122926122A947A37745A7E3456
:1029600020EF12292612EAAE1229267A37745E7EEB
:102970003420F3122926122A947A3774601229130C
:10298000122A947A377464902129E4937AB3746894
:102990009020E2E4937AB374697E3420E31229260E
:1029A0007A37746A7E3420F91229267A377466E4FD
:1029B0007AB3746C7AB3746D7AB3746E7AB3746FDD
:1029C0007AB374707AB374717AB374727AB37473BD
:1029D0007AB374747AB37475227E3420E91229268E
:1029E000122AEE7A737B5B7E3420EB122926122AA0
:1029F000A37A737B5C7E3420F1122926122AA37AF3
:102A0000737B5D7E3420F1122926122AA37A737B10
:102A10005E7E3420F9122926122AEE7A737B607EBC
:102A200034006ACA397E3420FD7E2400FF7E087B94
:102A30006112239A1BFD227EB37BABB40105122ADF
:102A4000AE800F7EB3746EB40105122AC7800312E4
:102A500073447EB37D7970177EB3744670117EB374
:102A6000746E700B7E3420FB1229267A377456124E
:102A7000CC5068117E3420EF12292612EAAE1229BA
:102A8000267A37745E7E3420ED122926122A947A33
:102A900037745A226E34FFFF0B34227A737B5B7ECD
:102AA0003774580E340E340E340E340E34227E3405
:102AB00000C8122F327E3400B412290A122AE01202
:102AC0002A9B7A737B5C227E3400AA122F327E34DA
:102AD000006412290A122AE0122A9B7A737B5C2274
:102AE0006E34FFFF0B347A3774647E3774561E34AD
:102AF0001E341E341E341E3422CA3B7CF77CEB7518
:102B000028077E3402007A352B752D007E3423F1A0
:102B10007E2400FF7E1467047E54023C1222F56D71
:102B200066800E7E347FFF7D263E24593211380B9D
:102B3000647E3778EC7D230B26BD2638E62E3400E4
:102B400008122D7C12EA88E41223BF7EB303FAB484
:102B5000010A7E3703FB122AF07A352B740AACBEC9
:102B6000492579997E352BAD3209B57997600C1ED0
:102B7000341E2450034E60801478F47A352BE528F7
:102B80000A5B1B54F52781DFE5277E3400016005D1
:102B90003E341478FB7A352912464AE527BEB00741
:102BA00058136D66800A122D777D212D2612E98239
:102BB00012EA9638F16D66122D777E2778EC2D2675
:102BC0002D2112E982BE64000478EC7CBE122D7CBB
:102BD00012EA88122D85052DE52D5401B4010874E3
:102BE000017AB303FE800E7E7329E60A371E340B8A
:102BF000347A7303FE123FA2E527BEB00758666D14
:102C000066805D7D563E5449350CD07D4312EB55B0
:102C100008077D239E252B80046D229D247A252E76
:102C2000492511387D4212EB5508059E252B80045D
:102C30006D229D247A2530BE252E4013593511383A
:102C4000122D7C7D212D26095251E419566704BEB0
:102C5000352B500A12E9007D232D2612E90E0B6454
:102C600012EA96389E6D667E1778EC2D167D513EE1
:102C70005449050CD07D3012EB4D08077D409E4530
:102C80002B80046D449D437A452E494511387D348F
:102C900012EB4D08059E452B80046D449D437A45FB
:102CA00030BE452E40115905113812E9052D310964
:102CB0007351E419716704BE052B500A12E9007DB7
:102CC000232D2112E90E0B64BE6400047899300CA8
:102CD00002A174300D02A174300E02A1741527E513
:102CE00027BEB001480261887EB37BEDBEB00268AA
:102CF0006F12EB45686A7E081138740AACBE124B3D
:102D0000C06D6680257D263E2449321138BE3403CD
:102D1000E82815BE343E80500F09766704122D7CDA
:102D20007D212D26197251E40B6412EA9638D66D76
:102D3000667E2778EC2D267D123E1449311138BE6F
:102D40003403E82813BE343E80500D097267041224
:102D50002D7C2D21197251E40B64BE64000478D1DE
:102D600074017AB303FE7CBE122D7C12EA88122D08
:102D70008512D315DA3B227E35297C670A0F7E1433
:102D8000023CAD1022CA3B7F307CABBEA0044002A7
:102D9000E12F7427A409B578F7F53CE4123D267EAF
:102DA000F774807EE774822DEF7AE53A7E086B9C9B
:102DB000126CF27EB3748C60626DEE802E7EE5360E
:102DC0003EE4493E748D7A35387F032E15367E0BEE
:102DD000501953029112E82B60053E241478FB121F
:102DE0002AF03E342E346BC012E8BA7AE536BEF5CE
:102DF0003638CA7AF536801912E81360053E241475
:102E000078FB122AF03E342E346B9C12E8BA7AE535
:102E1000367EE53ABEE53638DF80676DEE80161205
:102E2000E81360053E241478FB122AF03E342E3459
:102E30006B9C12E8BA7AE536BEF53638E27AF5369A
:102E400080387E35363E344923748D7A25387F03A9
:102E50002E15367E0B70197202917D52126CA9608C
:102E6000053E141478FB126CB43E242E246BC01261
:102E70006CD27E35360B347A35367E353ABE3536F1
:102E800038C07E453A12EA0B7A73017712E92C7A40
:102E9000B3017812EB5D7AB301790B4412EA0B7A35
:102EA00073029112E92C7AB3029212EB5D7AB302AB
:102EB000937EB3747E54050A3B4E376B9C7A376B16
:102EC0009C7EB3747F54050A3B4E376BC07A376BD8
:102ED000C012E9FF2E7400167D377E086B9C126EBF
:102EE000647D377E086BC0126E6B12E9FF2E740092
:102EF000286D337A35367E3536095301787C256C5A
:102F0000330953017712E8A240EC12EA671203FA80
:102F10006D337A35367E3536095302927C256C3313
:102F20000953029112E8A240EC12EA67120496DA01
:102F30003B227A3774569020E1E4937AB374552299
:102F4000C22B7EB3746C700312C9E4123738123787
:102F50008012373812C30712373812CD561237385D
:102F6000123481123738022F69CA3BC2007ED372F5
:102F7000300A3D3E34CA397E18702E7E0866DA1259
:102F8000239A1BFD6C117527006CCC0230447E44E3
:102F900003FF7EE0FF6CFF805A7CBF1237EB60516D
:102FA00012EB07BE00FF6849090566DB0A107E7058
:102FB00002AC7C09037C790A3012A5DF08049D313C
:102FC00080046D339D3212EB070AF07402ACBC0929
:102FD000057C780A107D219D2FBE24000008049DE9
:102FE0001F80046D119D122D13BD4128047D417C6D
:102FF000EF0BF0BCDF38A2BEE0FF68467E7002AC8B
:103000007E09B366DA097366DB1231587D137402E8
:10301000ACBE09B566DA129B5EBD1348257E700210
:10302000AC7E090366DA7EA1277402A4190567162F
:10303000090366DB1905671774FF19B366DA0B100D
:1030400005270BC07E037CB4BC0C2803022F8E7CAA
:10305000C180766D007EE0FF6CFF80407CBF123740
:10306000EB60377E3002AC3F09B166DABEB0FF6874
:1030700029097166DB1231587D43C200BD04580234
:10308000D2003000157E7002AC7F09B366DAF528F5
:1030900009B366DBF5297D047CEF0BF0BCDF38BC9F
:1030A000BEE0FF68227EA1287E31277402AC3B1966
:1030B000A16716E52919B167177EA0FF7E3002AC23
:1030C0003E19A166DA05270BC09020DFE493BCBC53
:1030D00038819020E0E4937CAB7402A4CA597E1836
:1030E00067167E0866DA12239A1BFD7ED1271237F7
:1030F000D67402AC7B7E087C7874FF1223BFBED0EE
:103100000028370A3D3E34CA397E1866DA7E0870D8
:103110002E12239A1BFD0A3D3E34CA397E1866DA08
:103120007E087C7812239A1BFD6CCC8009D2027C2D
:10313000BC1237100BC0BCDC38F37AD37CB47AD322
:1031400072309020DFE493BEB3723050047AB372D1
:1031500030DA3B227CB97C7012998E7D133E147E4E
:103160001F22E02D310B1A3022CA3B7C967C6B7EED
:10317000D0FF753EFF129778C2057E2400647EB3AF
:103180007259B4010612CC58C341C0BE900A28033C
:10319000C341C07E10077404ACB9191529B17DF282
:1031A0007CF67CE7C203C2047C1F7AF13A800812E5
:1031B00036A008087A113A1236C558F37C1F7AF106
:1031C0003B80081236A008087A113B1236FC48F3FF
:1031D000753D0012A766BEB13B7808D2040A6A1B8F
:1031E000648008E53A7004D2036CDD7C0E7AE13C21
:1031F00020040F30033B800A7CBD12369108087A08
:10320000013C1236CE58F17C0E7C8E80097CBD12BA
:10321000369108137C807CB0047C0B1A5B7E73743F
:103220007B1A17BD5148E6E53C0AEB0A589D5EF54E
:103230003DC2027C0E7AE13C800A7CBF12369108C6
:10324000087A013C1236CE58F1753F00E53C700417
:10325000D202F53E7C1F7AF13A30022F80081236F6
:10326000AA08087A113A1236C558F37C1F7AF13B46
:1032700080081236AA08087A113B1236FC48F3E59A
:103280003A0A1BE53B0A5B9D51F53F7E3004AC39A1
:10329000098129B1BE813D4016BE813F5002800F99
:1032A00009B129B0601320040620030330020A7418
:1032B0000119B129B0D2058005E419B129B0A205E0
:1032C000DA3B22CA3B7EE3747A7EB3747BF52CC270
:1032D000027E3421B17E2400FF0B1AC07E177236A5
:1032E000BD1C58047DC10EC47EB37D3560047EC410
:1032F00000FA6CDD81677402ACBD09C5702E0975DA
:10330000702F7A71277CBC1231587DB3BDCB080277
:1033100081657EB37D356017BEC003500281657E36
:1033200073747A0A571B560A1CBD1508028165BCC6
:10333000EC38028165E52CBEB127380281657D1B22
:103340000E147DEB0EE40EE42DE16DFF1236F285D6
:10335000272B802C6C997CFC801B7CBF7E712B12F0
:1033600034791809BDB048051236BD8006E52ABC7F
:10337000BF58071BF0BEF00058E04C996809152BA8
:10338000E52BBEB00058CD1236E9583685272B8084
:103390002A1236D7801B7CB87E712B12347918091B
:1033A000BDB048051236B58006E529BCB828060B25
:1033B00080BCE838E14C996809152BE52BBEB000BC
:1033C00058CF1236F2E52C0AAB1BA4E5270A1BBD29
:1033D0001A586D1236E080296C997CFC80187CBFED
:1033E0001234761809BDB048051236BD8006E52AAC
:1033F000BCBF58071BF0BEF00058E34C99680905A4
:1034000028E52CBEB12838D01236E958331236E000
:1034100080271236D780187CB81234761809BDB0D0
:1034200048051236B58006E529BCB828060B80BCD5
:10343000E838E44C9968090528E52CBEB12838D253
:103440007EB37D3560067ED4001980079021B0E4FC
:10345000930ADBBDDF380ED2027AC37D31E5277ACD
:10346000B37D32800C0BD07E737230BC7D2802415C
:10347000F6A202DA3B227E71281231587D03BDE0AC
:10348000227EB3746D6002C18812C3D77802C188EE
:103490007EA37230BEA001781B7EB3724670157E8B
:1034A000B3702E7AB37C757EB3702F7AB37C76E4DA
:1034B0007AB37C77BEA000283EC2006C1180211236
:1034C00037DE7E737C750A271A391237C7580F7E8C
:1034D000737C760A271A301237C75802D2000B10B5
:1034E00012369938DA30000C7EB37C77BEB0C85003
:1034F0000B048004E48001E47AB37C777E7372303D
:10350000BE70025002C1887EB37447B401028002CB
:10351000C1886DEE6C11801A1237DE1231547DD3E2
:10352000BDDE080C7DED7A9372387A0372397C81A6
:103530000B1012369938E16C11C181BC817802C13F
:103540007F7E3002AC3109B1702EF52B09B1702F9E
:10355000F52C7EA372387AA12D7EB37239F52EBE7A
:10356000A12B2804E52B8002E52DF527E52DBEB122
:103570002B5004E52B8002E52DF529E52EBEB12C5C
:103580002804E52C8002E52EF528E52EBEB12C504E
:10359000057EA12C80037EA12E7AA12AE5271AFBA5
:1035A000E5291A1B9D1F0B147CB3F52FE5281A1B68
:1035B0001A5A9D510B54F5301236897DF3E530BE11
:1035C000B12F5050E528BEB000080215287E737454
:1035D0007D0AC71BC4E52A1A1BBD1C5802052A7E9A
:1035E00091291236897DE380231B906DDD7E012AAF
:1035F000800E123154BD3D08051231547DD31B009D
:10360000E528BCB008ECBDDE58027DEDE527BCB96D
:1036100048D7804EE527BEB000080215277E737498
:103620007C0AC71BC4E5291A1BBD1C580205297E4C
:10363000012A1236897DE380231B006DDD7E9129EE
:10364000800E123154BD3D08051231547DD31B90BC
:10365000E527BCB908ECBDDE58027DEDE528BCB01D
:1036600048D77D3F3E343E347E24000A1221FFBD00
:103670003E580C7E737C77BE7028500312370C0BBB
:10368000101236992802A13B22E52B7E712C0231C3
:10369000587C70123158BD3F227E737230BC71224B
:1036A0007CB17C7E123158BD3F227CB17E713E12CE
:1036B0003158BD3F220BF40B907A8129220BF40B79
:1036C000907AF12A227CB1147C1BBEB000227CB01F
:1036D000147C0BBEB000226C990A1C0B147C832254
:1036E000E5270A5B0B54F528220A5E1B540A1CBD11
:1036F00015220A5C0B54F5297AC12A227CB1047C7C
:103700001B1AEB7E83747C1A18BDE122C2027CB1C5
:103710007C7BC423541F7CAB1271FE30020F0A3A2B
:103720002E3470A67E39A04CBA7A39B02264FF0AD2
:103730002A2E2470A602E912CA796CFF6CEE802C46
:103740007CBE1237EB60237E340002CA39AC7E2E79
:1037500034702E6D227E3002AC3F2E14702E6D0020
:1037600012239A1BFDD2021237780BE0129B4338CA
:10377000CF7AF37230DA79227CBF1237100BF02245
:10378000127F9C283A7EB3744770347E377232BE03
:10379000340026282F7EB37D39BEB0025026047A2D
:1037A000B37D396C338009C2027CB31237100B3001
:1037B0007E237230BC2338EFE47AB372308005E4A4
:1037C0007AB37D390237389D321223E1BE340002CC
:1037D0002274FF1223BF9020DFE4937C7B227402CB
:1037E000ACB10995702E0905702F227C7BC423543F
:1037F0001F0A2B09A270A61271FE5CBA227EB37B4F
:10380000FF123C007E374D4D4E60017A374D4D4ED4
:1038100070207A374D4DCA3B7EF329F17E3027ACBC
:103820003F09B178F3F52709B178F4F5287E040053
:1038300027CA092E1478F36D007E187BFE12239A96
:103840001BFD7427ACBF09E578F77ED0B5ACDE2E42
:10385000640100E4123D26123A3B5E240100680C2C
:103860005E60FE7A374D4D7CBF124017123A3B5EC8
:10387000240001682E5E70FE7A374D4D7EB37BFECC
:10388000123FFF500C7EB37BFE124078123AB48098
:10389000127EA1277E7027AC7F19A378F3E5277AE3
:1038A000B37BFE123A3B5E24000268375E70FD7AFD
:1038B000374D4D7EB37BFF12C6E850157EB37BFFBC
:1038C00012410E500C7EB37BFF123C00123AB480C2
:1038D000127EA1287E7027AC7F19A378F4E5287AA0
:1038E000B37BFF123A3B5E240004682D5E70FB122E
:1038F0003A6E7E302CAC3E123BDB74017E7027ACFE
:103900007F123FCA123BE2123A42123CE2123C3DA5
:103910007D36742CACBE1265D5123A3B5E2400088D
:10392000680E5E70F77A374D4D7EB37C011240C44D
:10393000123A3B5E240010680C5E70EF123A75126A
:103940003A42123CE2123A3B5E24002068375E7035
:10395000DF7A374D4D4E6002123A6E123BE2123A58
:1039600062740AACBF123FE9123A627E7027AC7FE4
:10397000123FF47CBF12DACD123C3D123A5C7E2439
:103980000010120C5A123A3B5E24004068175E7019
:10399000BF7A374D4D123F4F7805123F20800312FA
:1039A0003E95122D85123A3B5E240080680A5E70B7
:1039B0007F7A374D4D12927A123A3B5E24020068AC
:1039C0003B5E60FD7A374D4D7427ACBF49E578FA10
:1039D0000BE47EF77C27ADEFBE787FFF28047E786E
:1039E0007FFF7E080065123CE97E0800A1123CE9D9
:1039F0007E0800657D3F12DB17120C5A123A3B5EBF
:103A0000240400680E5E60FB7A374D4D7EB37BD791
:103A100012C571123A3B5E24100068075E60EF7AAF
:103A2000374D4D123A3B5E242000680C5E60DF7A11
:103A3000374D4D7CBF125FFBDA3B227E374D4D7D0B
:103A400023227E302CAC3E2E1400E36D00740AACB1
:103A5000BF4935799F4925799D12093B7D362E3422
:103A600000067E302CAC3E2E1400E36D00227A3727
:103A70004D4D4E60107A374D4D7CBFCAF87CFB121D
:103A80003AB47EA37C007E7027AC7F19A378F56CD6
:103A9000AA7E5002AC5A49427C057E7027AC7F2D2D
:103AA00032594378FA0BA0BEA01040E57CBF124FFC
:103AB00087DAF82212EB45683AE51E60367EB37B62
:103AC000FE7E737BFF12D2FA7D237E340003AD327B
:103AD0007E24000A8D326CAA7E5002AC5A49127CB8
:103AE00005BD13280759327C0512EA5B0BA0BEA066
:103AF0001078E522CA797CEBBEE004400261CA126C
:103B0000EAC9BEF003400261CA7402ACBE09B579CD
:103B100090543F0A3B742CACBF593500D77402ACAB
:103B2000BE09B5798F541F7C6B6C77123BCF742C18
:103B3000ACBF593500D9123BD674017E7027AC7EDC
:103B4000123FCA7E302CAC3F123A677E7027AC7EA3
:103B5000123FF47E302CAC3F1240717427ACBE098A
:103B60007578F3123BCD120D617E302CAC3F123CC8
:103B7000367427ACBE097578F4123BCD120D737EF6
:103B8000302CAC3F123C36740AACBE123BF17E3096
:103B90002CAC3F123A67740AACBE123FE97E302C5F
:103BA000AC3F2E1400EB6D007427ACBE09B578F65F
:103BB000120C38E4123D267E70B5AC7F2E34010025
:103BC000123BD67E240016120C5ADA79220A373EAE
:103BD000343E343E34227E302CAC3F2E1400D76D60
:103BE00000227E302CAC3E2E1400DB6D00740AAC3B
:103BF000BF09B57997020D017426ACBF09B579D319
:103C0000CA3B7CFB6CEE7427ACBE19F578F40BE074
:103C1000BEE00478F17E6401006CEE7E302CAC3E98
:103C2000123C360A3F123BCF120D73123C3D12403C
:103C3000BA40E8DA3B222E1400DB6D00227D360B01
:103C400035742CACBE492500DB02002E7E1F7D6A38
:103C5000691100067D015E040001780AE47AB32947
:103C6000F1751E00802F5E1400027805123CF08072
:103C7000247EB329F1BEB00168027019123CD968E4
:103C80000B74027AB329F1751E02800974037AB3AA
:103C900029F1751E037401123AF47EB329F1240050
:103CA000682524FD6812047822123CFA682A123C26
:103CB000D9782574010205BC123CFA681B123CD964
:103CC00068167401020530E4023AF47E0F7D6A1230
:103CD0003FD11247EB123CF0226931000E5E3400F6
:103CE00008227E240004020C5A7E377C25020C1622
:103CF00074017AB329F1751E01227E1F7D6A691154
:103D000000065E14000222CAF812D7CB7EF0017CB6
:103D1000BF123AF40BF0BEF00478F4E51E7004E430
:103D2000123AF4DAF8227CAB7E08005F7CBA120DFE
:103D3000857E08009B120D857E3400087E08005F9A
:103D400012DBA27E3400087E08009B7E2400010264
:103D500004967CBF7E7379CFCA797CF77CEBD2174F
:103D6000123BF8BEE0037CBE7E70267807AC7F1263
:103D70003F228005AC7F123E97122D85DA7922CA48
:103D8000797CFBC2027CBF12C7FBE51E60586CEE5B
:103D90007426ACBE09B579E06033123FD97C7E123F
:103DA0003D58D202BEF003A20192037426780CACF7
:103DB000BE491579F7490579F5800AACBE491579F0
:103DC000EF490579ED12C7F27CBF124B13200C06A8
:103DD000200D03300E09300203123D52C3800E0B3A
:103DE000E0BEE00340AA300203123D52D3DA79224A
:103DF000CAF8C2007EF329F1200C06200D03300E14
:103E000003C3C1927E2400017CBF60053E24147868
:103E1000FB7E7378EB6C665C754D3368747CBF1207
:103E200097E55002D200D204123FA7A20092017C73
:103E3000BF123D7F4003C380597CBF7E737A571207
:103E40003D58E47C7F129820A20092037E0F22DC72
:103E50007E181A087CBF124B13123D52200C06200C
:103E60000D03300E03C3802A1243D712C70CC201C0
:103E700012465E123FC360053E341478FB6E70FF3D
:103E80005E7378EB7A7378EB12D31512635ED3808E
:103E900001D3DAF822AC67491379E3490379E122C7
:103EA000CAF87E70787EB329F160583005557EA33C
:103EB0007D2DBEA003684C7EB379D270467EB37868
:103EC000F2047AB378F2BCB75003302A24BEA001C2
:103ED000781FC22AD22DE47AB378F26C77123FE1D0
:103EE0007E085AD4122D857E7329F17A7379CB809E
:103EF0002C302D29123F3A7805123F20801A123EAD
:103F0000958015E47AB378F2302D12123F3A780595
:103F1000123F208003123E95122D85C22DDAF82221
:103F2000AC67491379E7490379E522700C1261C641
:103F3000120C7812608802049622E47E6379CB7EAC
:103F40007003AC67097379BF123F2B7EF379CBBE48
:103F5000F0037CBF7E6379CF7E702622CAF87CFB9B
:103F6000BEF003501CBE70035017D204123FA712BC
:103F70003BF87EB329F17C7F123D587AF379CFD29A
:103F800015DAF8227E3401167E0866DA7E240012E5
:103F90001203FA7E3401167E0866FE7E2400121299
:103FA00004961243D7D2048006300C03125D367E8D
:103FB000B303CEBEB00168F1300403120B73C20527
:103FC000023EA07E3400017CBF22097378F5020C0A
:103FD000B12E14000E0B0A3022D204123FA77CBF70
:103FE00022123F2B7EB329F1224935799F49257949
:103FF0009D02093B2E3478FA6D227410020A967CD9
:104000007B7408AC7BBE34004E3802C322BE340041
:104010001E5002C322D3227C7B7427ACB70995784B
:10402000F77E637BF67402ACB71965798F7E637B8C
:10403000F77402ACB7196579907402AC7B2E3479B1
:104040008F7E1400291222D27E302CAC397D312E85
:104050003400D7124071120AD27E70B5AC792E347A
:1040600001007E302CAC39123BDB7E240002020CB6
:104070005A2E1400D96D0022CA3B7CFB6CEE7427CB
:10408000ACBE19F578F30BE0BEE00478F17E640174
:10409000006CEE7E302CAC3E1240710A3F123BCFDA
:1040A000120D617D360B34742CACBE492500D9123B
:1040B000002E1240BA40DCDA3B222E6400B50BE041
:1040C000BEE00322CA3B7CFB6CEE7427ACBE19F544
:1040D00078F60BE0BEE00478F17E64010A6CEE7EB7
:1040E000302CAC3E2E1400EB6D007CBF120C38124D
:1040F00041031206481241031206C51240BA40DFBE
:10410000DA3B227D36742CACBE492500EB227C7B49
:104110007408AC7BBE3400125002C322D3227C2B25
:10412000A5BAFA057EB34D4622A5BAFC0374012256
:10413000BE205B38070A3209B37BCD22BE206A68F5
:1041400004A5BA6B1D7E374D437D230B247A274D82
:10415000432E3751BB7E3930A5BA6B03751A6A7C82
:10416000B322BE206E6804A5BA6F1D7E374D417D17
:10417000230B247A274D412E374D4F7E3930A5BA77
:104180006F03751A6E7CB322BE206C6804A5BA6DED
:104190001D7E3751B97D230B247A2751B92E374D17
:1041A0004B7E3930A5BA6D03751A6C7CB322BE20E4
:1041B000896804A5BA8A1D7E3751BF7D230B247AF6
:1041C0002751BF2E3751BD7E3930A5BA8A03751AE3
:1041D000897CB322BE2070400ABE207F38057CB2A5
:1041E0000242A9BE20816804A5BA82387EB37BE46E
:1041F0007CABBEA020400DBEA04050080A3A093357
:104200006FEE80117E241B660A3B2D326D222E2418
:1042100000FF7E1B30047AB37BE4A5BA8203751AD3
:10422000817CB322A5BA86057EB34D4822A5BA8704
:10423000057EB34D4022A5BA88197E1F7D6A69317B
:1042400000105E3438000A561E541E541E545E542C
:10425000000722BE2090400ABE209438057CB2029E
:104260006F57BE20996804A5BA9A1B7E334D457CD2
:10427000B3047AB34D450A33093351C1A5BA9A0341
:10428000751A997CB322A5BA9B057EB34D4722A52A
:10429000BAF6057EB303FA22A5BAF70B7E5703FBE5
:1042A0007E4400648D5422E4227C6B7E70FF7CB6D9
:1042B000248CBEB00A400261557EA003A49042C186
:1042C000730242FF0243550242DF0242ED0242F610
:1042D0000243080243240243130243290243297E76
:1042E0001F7D6A6931000E5E34000480687E1F7D88
:1042F0006A123CD9805F12436E5E3400028056120F
:10430000436E5E340001804D12436E5E3404000A39
:1043100036800B12436E5E3408000A361E341E349B
:104320001E3480317E71EF802C7E7329E47CB704CB
:104330007AB329E40A270972015F7EB37BF1047A1C
:10434000B37BF170097EB37BF0047AB37BF0A5BE3A
:104350007D03751A7C7CB7222E1400140B0A304E94
:1043600070011B0A30751E0174017AB329F17E1F9A
:104370007D6A6931000622301A23C21AD21C124308
:104380006E5E340002740168051205308003123C31
:10439000F27E3400011247F2E51E024492301D2CD9
:1043A000C21DC21C12436E5E340002740168051205
:1043B00005BC8003123CF27EB329E7B401077E34CA
:1043C00000021247F2E51E1244928007301C04E5F9
:1043D0001E70030243D722E47AB303CE12EA171207
:1043E000E8C81245A31247EBC2041243FD12D7E5F9
:1043F000BEB0016803125FB0D2040243FDA2AC92CA
:1044000005C2AC7E0F7D6A30040A0B160B0A304ED3
:10441000700380080B160B0A305E70FC1B0A30A27A
:104420000592AC22CA3BC2041243FDC20D300C11EE
:10443000C20C12917512454412472E12D315124721
:10444000DBD2041243FDC20112D2D3300E3CC20EA5
:1044500012EB107D235E240001682F5E3400026899
:10446000051247FD8011751E0174017AB329F17F91
:1044700003123FD11247EB12472EC20112465EE5EE
:104480001E124492741F7AB378EBD20112D2D3DA9F
:104490003B227CAB1265601BA068121BA068131B3B
:1044A000A068142EA00378121267CE800D12DA8451
:1044B00080081267E7800312DA970244BDE47AB3FA
:1044C00003D66CAA800D12EA9D2EB303D67AB303ED
:1044D000D60BA07EB303CBBCBA38EB2274057AB3FB
:1044E00003FD1244247EB378EA600D800612464A2A
:1044F00012442412642350F57EB378EB600D8006DD
:1045000012464A124424123DF050F502450E7E63D5
:1045100029F17E7379CF7426A5BE0308ACB749157F
:1045200079E78006ACB7491579E37D217A274D4FAD
:104530003015107E240027CA2912E94C12239A1B39
:10454000FDC215227E0F7D6A693000065E340001CF
:1045500068181243585E34000268031247FD740362
:1045600012DB697401123AF4802E12DAB312EB19DD
:10457000740112DB69E4123AF47E0F7D6A2E140096
:104580000A0B0A304E60101B0A30E47AB329E61297
:1045900045A3125F191260E2E51E0244921B0A3025
:1045A000125F207E0F7D6A2E1400140B0A30221237
:1045B00058407EB37D2DB4037B1246811244DC1239
:1045C000464A7EB37BCD30E7667EB37BDE7005C2A4
:1045D00004123FA7124424301008C2101246591288
:1045E00043D77EB37BDE70051298018006124E4FD2
:1045F0001298187EB32426700512597980B47EB3C0
:1046000078E9B4011712C16D740212CBCD12DD7EB0
:104610001256E012CBC2127BE6122F40126F847E3C
:10462000B37BDE700A7EB37BCD547F7AB37BCD1231
:10463000595FA1B2D229D204123FA702463EE47AC2
:10464000B303FA6D337A3703FB227E3409C46D223B
:104650007A277D1C7A377D1E22124718D201E47A10
:10466000B379D07AB379D16CAA12B798BEA0037887
:10467000F8E47AB37A457AB379D23001031247E08D
:1046800022302276C222124FF5D204123FA77E7347
:104690007BFDBE7329F168077A7329F11246597EB2
:1046A000B37BEBBEB3747E681454057AB37BEB7EA8
:1046B000737BEB7A73747E126D82126DEB7EB37B2B
:1046C000ECBEB3747F681454057AB37BEC7E737BC5
:1046D000EC7A73747F126D82126DEB7EB37BDB54C8
:1046E000FE7AB37BDB7EB37BDC600312685A7EB359
:1046F0007BFB600312480B1243D77E374D4D4D3381
:104700006815D204123FA71238167EB37BDB54FD26
:104710007AB37BDB0243D7226D337A374D43D20421
:10472000123FA7123C4CE51E12449202472E12EB98
:104730003412496B122D7E7D212E2451E47A274DAF
:104740004F6D227A274D417E24748D7A274D4B7E02
:10475000240027CA2912E94C12239A1BFD7E34003B
:1047600002CA397E6329F1AC672E34798F6D227EBF
:10477000087BF612239A1BFD7EA329F1740AA44933
:1047800035799B7A377C037EB329F112DAFC7EB34C
:1047900029F112DACD7EB329F11260671247D309ED
:1047A0007579BF7A737BED1247D3097579C07A7337
:1047B0007BEE1247D3097579C17A737BEF7E73293B
:1047C000F17A737BFD0247C8E51E7AB37BD9227E5E
:1047D0000800537EA329F17403A422D20112465E7D
:1047E000741F7AB378EA7AB378EB225E70FB1B0A07
:1047F00030227EA11E7408A4593503AB22751E0217
:1048000074027AB329F174010205BCCA3B7E737449
:104810007E7A7366DA7E73747F7A7366DB7ED37B0F
:10482000FF7EE37BF67EF37BF77E0866DC7E34005A
:1048300008E41223BF7E340020CA397E187C057E2E
:104840000866E412239A1BFD74057AB37BFFE47AB1
:10485000B37BF674027AB37BF76CCC7E34000274BF
:1048600002ACBC59357C050BC0BEC01078F11237C4
:10487000FD6CCC4CCC780D7EB378F05401B40104BF
:1048800074018012BEC00178147EB378F054021E09
:10489000B0B4010974047AB3747EE48034BEC002FB
:1048A00078167EB378F054041EB01EB0B40109E44B
:1048B0007AB3747E74018019BEC00378467EB378E3
:1048C000F05408C423541FB40139E47AB3747E74DD
:1048D000047AB3747F7E3420E512292612464E7482
:1048E0001F7AB378EA1244DC7E7329F10A07122D8D
:1048F0007E0A3C2E3778EC2D31097351E40A2C19CD
:104900007266DC0BC0BEC004680201736CCC0A3C4A
:10491000097366DC12496B122D7E0A2C2E2778EC67
:104920002D21197251E40BC0BEC00440E17E7366B4
:10493000DA7A73747E7E7366DB7A73747F7AD37BE4
:10494000FF7AE37BF67AF37BF77E340020CA397E68
:104950001866E47E087C0512239A1BFD1237FDE4DD
:104960007AB37BFC7AB37BFBDA3B227E6329F10AC4
:1049700006227EB379CF7CAB6C77BCA7782B12492B
:104980006B122D7E124A09590279E57E0815A0594D
:104990001279EF590279ED7E081A08591279F35904
:1049A0000279F17E081E70804E7E5004AC5A0A17C0
:1049B0002D212E2423D1124A827C6B7EB329F10A49
:1049C0000B122D7E124A09590279E50A067E140D52
:1049D00038AD107DF12EF42A006DEE59F279EF59C1
:1049E000E279ED7DF12EF42E6859F279F359E279EE
:1049F000F12E1432D06D00591279F7590279F50B66
:104A000070BE70035002217A222E1451E46D007E94
:104A10005026AC57591279E3590279E17E085AD4ED
:104A2000591279EB590279E97E085898591279E7B9
:104A300022D20112465E6CAA7E6329F17E7027ACF9
:104A400067096378F40A2A124A7E7C7BBC67780483
:104A50007AA379CF7E5026AC5A197279D30BA0BEB7
:104A6000A00378D47E7379CFBE70034005E47AB397
:104A700079CF1249727E7379CF7A737A57222E24B6
:104A800021B77A51827A4183E49322128FDC126E2D
:104A90007B124AE41290FC12908212292E1290632B
:104AA0001290C3124AAC125F84024A316D337A37D6
:104AB0007D33E47AB37D317AB37D327AB37D2E02D1
:104AC0004AC27AB37D2F7AB37D30227E3420E5123C
:104AD000292612464E125A30124A8B1227EB124FD9
:104AE000D70247E07E1815A07A1F22DC7E1804004A
:104AF0007A1F22E07E0F22DC124B0B7E0F22E07E1B
:104B00003404681223BF7AB32426227E340468E476
:104B10000223BFCA3BF52B7F317A0D277E180CD0BC
:104B20007A1D2E1243D77E0D27124B0B30030C7EBD
:104B30001811387A1D327F03124B0BE468031243BD
:104B4000D7D204123FA73003236D338017124BA82E
:104B50007E0D322D120B0A507D233E24124C651B14
:104B60000A200B347A352C124BB038E16D33801F9C
:104B7000124BA87E0D2E2D120B0A203E347E0D27DF
:104B80002D130B0A302D321B0A307E352C0B347A54
:104B9000352C124BB038D97E0D27124BBA30030595
:104BA0007F03124BBADA3B227E352C7D233E242232
:104BB0007E3778EC0B36BE352C227EA12B740AA4EE
:104BC000493579997DB37F707D3B124F787C7B0AA4
:104BD000572E54000B7E18000160052F111478FB2E
:104BE00074042F111478FB7D1B12224B7F61BEB41D
:104BF0000010686E7E73747A7A7369407E73747B7A
:104C00007A736941740B7AB369427DAF7AA76944BC
:104C10007AA76948BEB40002380DE47AB369427ECF
:104C2000D400108DDB6DCC7E0869407D3D1208DE1E
:104C30007E4778EC7EA0047D343E347F572DB30B45
:104C40005A107F161222427EB36942600C1E341E37
:104C50002450034E60801478F41B5A300B441BA080
:104C600078D5229D547F032D120B0A202D2522CAB0
:104C70003B7C677C7B6D227A25297E2778EC0B268E
:104C80007A252B7CB61297E592013001064C777895
:104C900002A1ED124F517AA1337426A449B579EFE0
:104CA00049A579ED499579F3498579F17E3466DC3A
:104CB0001E343E347D736D667E346B461E343E3446
:104CC0006D227A1D2D7E180CD07A1D347F037E183C
:104CD00011387401124E1A124DF07E35317D133E9B
:104CE0001449010CD0492111389D202D177D061241
:104CF0004DFD78E63001797E737A57BE7133683A9C
:104D00006D3380297E35277D233E247F042D120BB1
:104D10000A5049421A082D457F052D120B0A1049E9
:104D20005215A02D51124C631B0A200B347A3527E3
:104D30007E352BBE352738CC80367E181A087A1D72
:104D4000347E0D2D7E1815A07401124E1A7E1D2D75
:104D50007A1D347F037F13127DEF124DF0124E1235
:104D600049421A08495215A0124C63124DFD78EDC4
:104D70007F0312C92A7A3529124DF0124E127F2371
:104D80002D520B2A10BE14000008050B2A208004A7
:104D90006D229D21BE25292812BE14000008050B96
:104DA0002A2080046D229D217A2529124E0078CB7D
:104DB0007E3529BE347FFF28077E347FFF7A352970
:104DC0007E35297A377A4D2001237E0811387E18E6
:104DD0000CD0127EB8124DF07E25313E2449320CA3
:104DE000D0593211387E3531124E0078EBDA3B2241
:104DF0007E3778EC7A35316D337A3527221B0A20DD
:104E00000B347A35317E35270B347A3527BE3400A2
:104E100004227E35317D233E24227CAB7F617F706E
:104E20007E086FAE124FDE7EB3747B7AB36FAF7EB7
:104E3000B3747A7AB36FAEE4127F03127ED17AA391
:104E40006FB16D337A376FB87E086FAE020873CAE0
:104E50003BD2001256A450FBA22DE4337CCB7EE360
:104E600003D57AE324277ED303D60A3E09B303CFC2
:104E700060380A3B1B347CA77AA37BF8B401047426
:104E8000018001E47AB32426E40A3E19B303CF0972
:104E9000F303D17CBE7C7F1298207CBE7C7F12C63F
:104EA0007B7EB303D5047AB303D57E7303D6BE737A
:104EB00003D5381512442412C8B77E737BCA2E70EE
:104EC000FF9205123EA01243777EB32426BEB001A6
:104ED00068077EB37D2DB40346740AACBF493579AB
:104EE000997E0F22D8124BC47CBE7C7F12985192BF
:104EF000007EB329E7700CBEE0014007E47AB324DA
:104F000026C2007CBE7C7F124C6F300012127E2EB7
:104F10007CBE7C7F12C5D47AE37BF97AF329F57ED7
:104F2000B37D2DB401031299214CCC68081298ADC1
:104F3000E47AB324267CBD14BCBE7803120B731232
:104F40004FE6127C5950077CBF7C7E12B49EDA3B40
:104F5000227EB37A4C124F5B7CAB227C7B6CAA6CBA
:104F6000660A26124A7EBCB778047CA680070B60CE
:104F7000BE600340EC7CBA22E480050B341E34048E
:104F8000BE34001038F5227C9B12DB327E500AAC16
:104F900059593279997427ACB9490578F859027989
:104FA0009B491578FA0B14AD106D005912799F5971
:104FB00002799D124FCC19A379977427ACB9493562
:104FC00078FA0B34124FCC19A3799822124F787CBF
:104FD000AB7E700AAC79227E340DAC02464E7E3434
:104FE000000CE40223BF7EB329F6BEB0C85005040E
:104FF0007AB329F6227EA37BD1BEA005780874017E
:105000007AB37BD1801BBEA004781C74017AB37B79
:10501000D17E3420E512292612464E1247DB124477
:10502000DC74027AB37BD1227C6BA5BEFA047A735E
:105030004D46A5BE00077CB712716E8107A5BE0F55
:105040000D74017AB37BDC7AB37BDDD22222A5BE5C
:105050002E0D74017AB37BFB7AB37BFCD22222A59E
:10506000BE12057A737BDF22A5BE1125A5BF0116EE
:105070007EB37BDE6002812674017AB37BDEE47A44
:10508000B37BE002EA7DA5BF00028002812602EB2D
:1050900034BE60996804A5BE9A1D7EA34D477CBAB4
:1050A000047AB34D470A2A197251C1A5BE9A0280EB
:1050B000028126751A9922A5BE9B097A734D477AFB
:1050C000734D4522A5BE01116D227A274D437A7397
:1050D0007BCE7CB7126EDC8107BE605B2802610D5F
:1050E000A5BE30117E537BFDBC5778028126BE7071
:1050F0000440028126BE6020400CBE60223807BEFC
:105100007003280281267CB624F9BEB02940022112
:10511000947EA003A4905119730254260251940264
:1051200051940251940254260254260254260254E9
:105130002602519402542602519402519402519431
:1051400002519402519402519402519402519402DA
:10515000519402519402519402519402519402517B
:105160009402519402519402519402519402519428
:1051700002519402519402519402519402519402AA
:10518000519402519402542602542602542602518C
:10519000940254260A2619727BCD7CB61BB2BEB08F
:1051A00034400241CF7EA003A49051AD7302524916
:1051B0000252CF0252490252CF02524D02524902CC
:1051C00052CF0252CF0252CF0252CF0252CF0252DE
:1051D000CF0252CF0252CF0252CF0252CF0252CF51
:1051E0000252CF0252CF0252CF0252CF0252950248
:1051F00052CF0252A20252CF0252B502524902527B
:10520000490252520252520252520252CF0252C428
:105210000252CF0252CF0252CF02525B02525B02C5
:10522000525B0252CF0252CF0252CF0252CF0252F1
:10523000CF02524902526402526D02527602527FEC
:105240000252CF0252CF025288D22241CF12002600
:10525000807D7E274D4D4E402080347E274D4D4E23
:105260004001802B7E274D4D4E500180227E274DE0
:105270004D4E500280197E274D4D4E500480107EB9
:10528000274D4D4E500880077E274D4D4E50107AC9
:10529000274D4D803A7E537BE51254277A274D41A6
:1052A000802D7E537BE71254273E247A2751B97A0A
:1052B000274D49801A7E537BE91254273E247A27D2
:1052C0004D43800B7E537BF01254277A5329E4BE62
:1052D00060384014BE6056380F0A265E240001BEB6
:1052E000240001780312EA5BBE6058400B7E274D14
:1052F0004D4E40027A274D4DA5BE0A02800281071D
:105300007E374D4D4E60047A374D4D8107BE606C3F
:105310006804A5BE6D2B7E274D4D4E50807A274DDB
:105320004D7E274D497D120B147A174D492E274D7E
:105330004B7A2970A5BE6D0280028107751A6C81B7
:1053400007BE606E6804A5BE6F437E274D4D4E506C
:10535000407A274D4D7E437BE56C557EB37BE60A54
:105360001B2D12047AB37BE670097EB37BE5047AC9
:10537000B37BE57A174D417E274D4F2D217A297059
:10538000A5BE6F0280028107751A6E807ABE6070BA
:10539000400CBE607F38077CB6126EBE8069A5BE29
:1053A000860F7CB754077AB34D4853C3F842C38085
:1053B00056A5BE870F7CB754037AB34D4053C2FC49
:1053C00042C28043A5BE88295E70077E0F7D6A2E8B
:1053D0001400100B0A205E40C71B0A200A377D23E9
:1053E0007C456C5512543512551C4D321B0A3080C9
:1053F00016A5BEF6067A7303FA800CA5BEF70874EC
:1054000064ACB77A5703FB30220A7EB37BDB4401DE
:105410007AB37BDB7E374D4D4D33680A7EB37BDB41
:1054200044027AB37BDB227C256C330A272D2122B0
:105430000B18203E243E243E243E24227E347B5BF7
:10544000302360C2237E39500A251254333E247A19
:10545000277456095300010A251254333E247A2733
:1054600074587EB37B59B4031509A300030A2A12AA
:1054700054333E247A27745E19A300028016B402C6
:1054800013095300020A1512D30C3E147A17745EE6
:105490001953000309730005123BCD3E343E347AA4
:1054A0003774667E3774567A377BCB4D33780B7EF4
:1054B0003420E91229267A377BCB227C677C7BA5B6
:1054C000BF000DBE60002805E47AB3744D02C0D061
:1054D000A5BE00176CAA800E7E60FF7E500DAC5AF0
:1054E0001962736E0BA012551438ED6CAA80207EE1
:1054F000300DAC3A2E1472661254301B18207E30D8
:105500000DAC3A2E1472681254301B18200BA0BC3C
:105510007A38DC229020DFE493BCBA227E0F7D6AC9
:105520002E1400100B0A302230000543C380800384
:1055300053C37F30000543C280800353C27F7E0F78
:105540007D6A3000081255204E60C4800612552036
:105550005E603B1B0A302212567412DAB61255C234
:1055600012557BA9D6EB74017E70821255DEA9C656
:10557000EBD20012557BD200025528A9D0CE3000C4
:1055800004A9D5C922A9C5C9221256A4400612569B
:10559000BA12000A1255C21255CA800B7EB37BABF9
:1055A000600280001256553014F27EB329EBBEB073
:1055B000002805147AB329EBD2001255CAD2000292
:1055C0005528C200125528C20022A200A992CBA2DF
:1055D00000A992CAA200A991CB22E47E70FF7C6B45
:1055E0007EB329E5B48168A5BE0002805CA5BE013A
:1055F00022C2AF0A275E2400026802D2957A71CDDA
:10560000A9D0CEA9C6C9A9D0CEA9C7C9A9D187D2C8
:10561000AF8036A5BE021812569A700FA9D0CEA937
:10562000C7C9A9D0CEA9D6C9A9D187D2AF801AA59A
:10563000BE031C12569A700FA9D0CEA9D7C9A9D003
:10564000CEA9C6C9A9D187D2AF000000000000E4EE
:105650007AB329E522800E1256741256A440142003
:1056600014111255DA12569F70ED12567412E9DFBA
:105670000255DE2274817AB329E522800E12567417
:105680001256A440142014111255DA12569F70EDD0
:1056900012567412E9DF0255DE22C2AF7A71CDA232
:1056A00093E43322300C03125D367EB303CF7006D1
:1056B0007EB303D06002D322C322800312567B1232
:1056C00056A450F82220140612DAAA12000A301C3E
:1056D000031243D71256A440061256BA02000A22F9
:1056E000CAF87E14001E7E0400FF693000017E0BA4
:1056F000507A3766DB7A5366DAC2006DCC7EB4FF2F
:10570000FF20210302581C7ED40468CAD9126F4EB0
:1057100012239A1BFD6DAA7DDA80267D2D3E244939
:105720001248D8BE1400000806493248D880046DDB
:10573000339D31593248D8BD3C28047DC37DBD0B13
:10574000D47E3778ECBD3D38D27E3751D1BD3C5048
:10575000047AC751D17E3751C7BD3C5010BEB4FF4B
:10576000FF680A7E3751CF0B347A3751CF126E5D06
:105770007D3B8D327CF5BEF0004007BEF01D380247
:10578000D2007DDA7D3D3E34492351C1BD2C5051BC
:10579000BEB4FFFF684B09BD51D3B4012549235165
:1057A000DCBD2B78107DA32EA451D60BA8200B2492
:1057B0001BA82080324DDD7814300025800F802119
:1057C000800B4DDD78073000188002801459B351EA
:1057D000DC7E240001592351D6740119BD51D380B8
:1057E00006740119BD66DA49A351C9492351D6BDD2
:1057F0002A2804592351C909BD66DAB401116D2262
:10580000592351DC6DAA59A351D6E419BD51D30BCC
:10581000D4BED400036803025784801A7E0851D393
:105820007E340003E41223BF7E0851D61258397E1D
:105830000851DC125839DAF8227E3400060223BF00
:10584000E47AB37B806D337A3751B91259561258C6
:10585000A8124718C20112465E7E340468CA397E17
:105860001F22DC7E0F22E012239A1BFD1243D70277
:1058700058727E087A4D7E34000AE40223BFE47A2F
:10588000B37B8074017AB329F17AB378E91259AE07
:105890001258A812454412472E124FD712587212AE
:1058A00047DBE47AB37D73227E0803AB7E340020AD
:1058B000E41223BF7E3400017A3703AB7AB303AD21
:1058C00074017AB303AEE47AB303AF7EB329E7B4CD
:1058D00001317E3400021259421259267A7303B8FC
:1058E00074017AB303B9E47AB303BA7E34000212C6
:1058F000592F1259267A7303C07AB303C17AB303BE
:10590000C2800A7E34000112594212592F7E34009F
:10591000017A3703C374017AB303C57AB303C6743B
:10592000027AB303C7227E7329E61E340B34227A2F
:105930003703BB74017AB303BD7AB303BE7AB303F2
:10594000BF227A3703B374017AB303B57AB303B6CF
:10595000E47AB303B7227E737BD37A7378E9221299
:1059600047C87E7329E67A737BD4125956E47AB31A
:1059700074477AB374460259797E737B827A737D59
:105980002D221259A712598B0259797E087D4F0298
:1059900059920B0A30BE3729DE28069E3729DE8051
:1059A000026D331B0A30227E08242902599290206E
:1059B000DEE4937AB329E722A9D2EAA9C2EA6D33D9
:1059C0007E0F7D6A7930001012551C4E34DC0E1BA0
:1059D0000A307E3401C27E0F7D6A7930001E7E0F50
:1059E0007D6A123FD14E70101B0A30125D1F120BE0
:1059F000737E34FFFF7E0F7D6A793000026D337E47
:105A00000F7D6A79300014125A277E34F04F125AF3
:105A100027D2041243FD53C3F875C38553C2FC4318
:105A2000C281D2AC0259AE7E0F7D6A793000042269
:105A3000E4125CF1125C28125ADE125AD3125C1185
:105A40007E34001C120BF312464A125C01125BF00A
:105A5000125BFB125BF5125C1C125D0F125B9B125A
:105A6000D2A31200FD1259B8D2AF125B18125AF429
:105A7000901BD3E493CAB8901BD4E4937C7B7E2420
:105A80000133DAB8025A87CA797CF77CEB7C7F1243
:105A90000B09A9D6CB5EE03F5EF03F7C4E6C550A09
:105AA0003F2D327E0F7D6679300032A9C6CBDA7980
:105AB00022D20012557BA9D0CBA9C6CA125C35A947
:105AC000D39EA9C3B9C28AD2AA025ACCA9D09EA990
:105AD000D79E22C28DC28F125BE8A9C0932275ECBB
:105AE000FF75EEFF75EB2375ACC0125CFFA9D5AD59
:105AF000A9C5ED227E08700E125B4D7E3400207A1F
:105B000035277E180020125B57025B0CA9C5CAA975
:105B1000C794E47AB37D7A226C77A9C7B3A9C6B3D8
:105B2000D2C843ED0FC2EA0B70BE700328037E702B
:105B3000030A573E543E543E543E542E540003F53F
:105B4000B3A9D1B4A9C0B4125B4D025B0CA9D79420
:105B500074A57AB37D7A22125B657E352712D1F463
:105B6000A9D2B4D3227D52F52B7CB67CA50A44F58C
:105B70002A7F21F529A9C2B4740B125B90E52B1280
:105B80005B90E52A125B90E529125B90E4025B9042
:105B9000F5B5A936B3FCA9C6B3D322E47AB37BCD5D
:105BA0007E082933125C087E0829717E34003E127B
:105BB00023BF7E1829337A1F29D8125BCD025BC020
:105BC000751300751A007EB37BCDF59122025BD070
:105BD000C292125BE8901B66E49354FEF592D2E801
:105BE000C2C0A9D495D2AD22759100C290C29122B3
:105BF000C288D2A822A9D5CDD29922A9D6CDD29831
:105C000022A9D099A9C6DF227E34003E74FF022368
:105C1000BFA9C3CBC2CDC2CCA9D6EA22759A2FA9FF
:105C2000D199D29CA9D6DF22A9C5CBA9D1CBA9D223
:105C3000CAA9D2CB22A9D09EA9D49E759D00759CDD
:105C40002022CAB8CA39125C35125ACC7E3729DEF6
:105C50000B347A3729DE7E3729F20B347A3729F272
:105C6000125CE8280A7E3729EF1B347A3729EF7E49
:105C7000B37B82B401407EB329F4047AB329F47E65
:105C80007329F4BE700A282EE47AB329F47E7329AE
:105C9000E9BE737D7278087E3729E00B34800A7E76
:105CA000737D727A7329E96D337A3729E0BE340047
:105CB000FA280375E9FF7EB329E26005147AB32957
:105CC000E27EB329E27002D2147E377D630B347A10
:105CD000377D637E3729ECBE34000028061B347AFA
:105CE0003729ECDA39DAB8327E3729EFBE340000D2
:105CF00022A9C5CABEB0085002F5CC75E60022A99B
:105D0000C5CA75ED8F75ADB0A9C794A9D49422C248
:105D10008E438920758D01758B00D28ED2AB226D9A
:105D2000337E0F7D6A793000167E34012C7E0F7D24
:105D30006A7930001822302816A9D2EAA9C2EA12DC
:105D40005D1FC2281245A31247EBC227025F3B2208
:105D5000CA7BCA6BCA5BCA4BCA2BCA1BCA0BC0D050
:105D6000C083C0827E0F7D6A693000045E3480008B
:105D700068240B0A305E348000681B123FD16E70BD
:105D8000401B0A307E0F7D6A0B150B0A304E608077
:105D900012459D125F197E0F7D6A693000045E34E2
:105DA000000268170B0A305E340002680E0B150BF8
:105DB0000A304E700212459D125F197E0F7D6A698E
:105DC0003000045E34000168200B0A305E340001AC
:105DD00068170B150B0A304E70011B0A30125F6EEC
:105DE0001245A34E70011B0A307E0F7D6A69300098
:105DF000045E34000868170B0A305E340008680E31
:105E00000B150B0A304E70081B0A30125F5D7E0FB7
:105E10007D6A693000045E34000468170B0A305E46
:105E2000340004680E0B150B0A304E70041B0A3048
:105E3000125F4C7E0F7D6A693000045E344000685A
:105E4000310B0A305E34400068280B150B0A304EC7
:105E500060401B0A30D20D7EB329E3BEB0C85005A6
:105E6000047AB329E37EB329E3B401061247E012B2
:105E70005D367E0F7D6A693000045E34200068194B
:105E80000B0A305E34200068100B150B0A304E6090
:105E9000201B0A30D20D125D367E0F7D6A693000FC
:105EA000045E34100068260B0A307D235E24100047
:105EB000681B5E3408002E34FFFF92120B150B0A8C
:105EC000304E60081B0A30125FB712D8027E0F7D79
:105ED0006A693000045E34004068290B0A305E3481
:105EE000004068200B150B0A304E70401B0A307EB4
:105EF0001F7D6A6931000A5E340FC0122AEE1E341B
:105F00007A7329E6D082D083D0D0DA0BDA1BDA2B71
:105F1000DA4BDA5BDA6BDA7B325E70FE1B0A302218
:105F2000D20CD21012436E5E3400017803025F314E
:105F300022120B3E202703025F3B22120B73125FDB
:105F4000B074027AB303CF7AB303D022D20ED21048
:105F500012436E5E3400026803025F3122D20ED219
:105F60001012436E5E3400027803025F3122D20CBD
:105F7000D21012436E5E3400016808E47AB329E35C
:105F8000025F3122CA3B12EB105E34000168107FC1
:105F9000031243585E34000268131247FD800E124C
:105FA000EB197F031245A7125F191260E2DA3B2258
:105FB00074037AB303CE227EB303CEB4013C7EA336
:105FC00003CC7AA303CD7EB303D4047AB303D47E87
:105FD000B303D3047AB303D312EA9DBEB303D33819
:105FE00019E47AB303D37CBA047AB303CC7E730387
:105FF000CBBE7303CC2803125FB0227C9B7403AC2E
:10600000B9098579BFBE837BED68087E837BED1976
:106010008579BF098579C0BE837BEE68087E837B66
:10602000EE198579C0098579C1BE837BEF68087E4A
:10603000837BEF198579C17E08005312604809B54A
:1060400079C112608502049609B579BF120C787E79
:106050000800537403ACB909B579C0120D1B7E0852
:1060600000537403ACB9227C9B12605E126048122C
:1060700067B54C9978097E0800537401120C7812A8
:106080006088020496120C957E3700537A37008F91
:106090007E3400027E0800537E2400011203FA7E43
:1060A0003400027E08008F7E2400012270091261F4
:1060B000C612608502049622700C1261C6120D1B76
:1060C0001260880204962212551C12612A7E73798E
:1060D000BF123FE17E7379C01261357E7379C102D0
:1060E00060AC7E0F7D6A123FD112612A7E70011270
:1060F00061357E70011260AC7EB329F17E700212B0
:106100003F2B748C1261D07E0F7D6A123FD15E707E
:10611000EF1B0A307E34000512614112551C5E707F
:10612000EF12612D7E7001023F2B4E70101B0A3062
:106130007EB329F1221260B87EB329F1227E3400A9
:10614000017D2380127E3004800574FA1261D07CB8
:10615000231B30A5BA00F37D321B244D3378E62291
:1061600024AB681024EF681C24DE682624DE782F18
:106170007405802D7EB303FFB4052A12613D12D24F
:106180005B0261C37EB303FFB4051A12613D75E97A
:10619000FF227EB303FFB4050C12613D0261A674B9
:1061A000017AB303FF220261A975E76BE47E340133
:1061B000047E2400FF7A1BB07E3401057A1BB07583
:1061C000E9FF220261A95E70037E0800537CB722BA
:1061D0007CAB800F7E70028001007C671B70A5BEC7
:1061E00000F7007C6A1BA0A5BE00E9227CA77C3BCF
:1061F000A5BB9A0712C3C67AA37D35A5BB00077C51
:10620000BA12716E8025BE30EB6804A5BBEC097C28
:10621000B37C7A1271998013BE3080400EBE30EF8D
:1062200038097CB324807C7A1277D5A5BBFC057C29
:10623000BA02616074017AB303FF227C6B12629A26
:1062400078057CB60261ECB404057CB602502822C5
:10625000309019C290E5137009751301E591F51A94
:1062600080117E7191E51A12623B051A30910BC2C2
:1062700091051AE51A12627BF591227C7B6CAA12B9
:10628000629A78097CB71266DD7CAB800AB4040799
:106290007CB712411E7CAB7CBA227EB37BCDC4544A
:1062A00007227C3BD20412633812DA671B30681D68
:1062B0001B3068231B3068291B30682F0B32787322
:1062C0001260C77E1F03AF7E0F03AB80527E1F0399
:1062D000B77E0F03B380487E1F03BF7E0F03BB80D2
:1062E0003E7E1F03C77E0F03C380347E340008CA7E
:1062F000397E711E7408AC7B2E3403AB6D227E0890
:106300006B9C12239A1BFD7E3400017A376B9C7EB6
:106310007303FE7A736B9E7E1F6BA07E0F6B9C7A5D
:106320001D3A7A0D3612023D74017AB303CE120D76
:106330004B8002C204A20422E51E70217E3729ECA4
:106340004D3378F812635E7E3400057A3729ECBE4F
:1063500034002128087E3400217A3729EC227E730C
:106360007B657EB37B80703AE51E701D7E637B6328
:10637000BE601428057E60148007A5BE00037E6001
:10638000010A267E3400648074E51EB40302804452
:1063900012641CB401067E3401F480617E3403E88B
:1063A000805BE51E700E7E637B64BE607F28537E3B
:1063B000607F804E7E637D62BE603B401212641C33
:1063C000B401067E3401F480267E3403E88020E5A3
:1063D0001EB403087E737B9A0A378015301A181290
:1063E000641CB401067E3401F480047E3403E88D1D
:1063F000321B347C67800B0A277E3403E81221FFAE
:106400007C677E737B87AC677E2400181221FF7A3D
:106410007329E2C2146D337A3729DE227EB329E76D
:106420000A2722CAF87EF329F1200C06200D03303A
:106430000E03C3804B123FC360053E341478FB1239
:1064400066D2683B7EB37BFB70031266C9123FD9EC
:106450001264834003C38028200C06200D03300EF5
:1064600003C3801C123FC360053E341478FB6E707A
:10647000FF5E7378EA7A7378EA12635ED38001D3A1
:10648000DAF822CA797CFBD200C2016D337A37294F
:10649000DE7427ACBF09E578F57CBF126523920155
:1064A0007CBF1264F092003000057CBF1266477E0C
:1064B000B37BFB700C7CBF12DBA9922F202F02C292
:1064C000003001127427ACBF19E578F57CBF124F7C
:1064D000877CBF1264DBA200DA7922CA3B7CEB1214
:1064E000EAC9126556E51E12449212658DDA3B2206
:1064F000CAF87CABC202123F54AC6709F379D37C73
:10650000BA1265DC6CAA6C777E5026AC5719A2795A
:10651000DF0B70A5BF03F13002057CBF123C00D336
:10652000DAF822CA3B7CEBC2027E7027AC7E09F30C
:1065300078F71265564CEE6818D202E419B378F574
:106540007CBE124F871265601265741244BD1265DD
:106550008DA202DA3B227ED0B5ACDF2E6401002290
:10656000E47AB303CB12EA177AB303CE12E8C87AFF
:10657000B303D6227E3400041267C574011267FA91
:106580007E7329F17A7303D17A7303D222E4123D28
:10659000267E302CAC3F2E1400D76D0074017E7027
:1065A00027AC7E097378F5120CB17E302CAC3F2EEF
:1065B0001400DB6D00740AACBE09B57997120D01A9
:1065C0007D360B35742CACBF492500DB12002E7DC7
:1065D00036742CACBF492500D702002E7C9B7E244C
:1065E00000017CB960053E241478FB7E8378EA0ABA
:1065F000385D32680B1249727E8379CF7A837A577D
:106600006CAA7EB37A57BCBA78086C8812663DE4EF
:10661000801F7E2400017CB960053E241478FB7E37
:10662000B378EA0A3B5D32680C7E800112663D74E5
:106630000119B379E00BA0BEA00340C6227E7026EC
:10664000AC7A198379DF22CA3B7CEB7ED0047EB31F
:106650007B82B401057EF00280037EF0014CEE687F
:106660005D6CCC80494CCC780C7EB37B82B4010548
:10667000E46C77800C7CDEE47E7003AC7E09737979
:10668000BF123F2B7E3400017CBD60053E34147880
:10669000FB1266D2680A1266C97CBE7C7D122AF99A
:1066A000200C06200D03300E03C3801A0BC0BCFC67
:1066B00038B37EB378EA54EF7AB378EA80077CBEC9
:1066C0007C7E122AF9D3DA3B224E7378EB7A737808
:1066D000EB227E5378EA6C445C574D2222B49A0533
:1066E0007EB37D3522B49B057EB37D3622B4FA0598
:1066F0007EB34D462270057EB37BCD22BEB00338FB
:10670000133020067E18293380047E1829717A1FE1
:1067100029D88005BEB06E380E0A1B7E1F29D82DE1
:10672000311B347E1BB022BEB0D36803B4D410B486
:10673000D3086D337A377C298002151A0270FEB4B3
:10674000F60C7E341B647E2400FF0B1A5022B4F733
:106750000A7E341B641229260A5622BEB0F868034A
:10676000B4F91CB4F8086D337A377C298002151A05
:106770007E377C297D230B247A277C290267BCBEC7
:10678000B0EB6803B4EC030271D5BEB080400CBE20
:10679000B0EF38070A3B09B37ADB22B4FC057EB3BD
:1067A0007B8222B4FE0C7EA329F17427A409B5785C
:1067B000F42274FF2209B579C1020C957E240D9450
:1067C0002D320272087E240CD07E141138226D33D3
:1067D0001267C57E5703AB1267FAE40267DE7AB32D
:1067E00003D17AB303D2227E3400021267C57E57EA
:1067F00003BB1267FA74020267DE7C1B7D437EA333
:1068000003CBBEA005501E7E7007AC7A594303D758
:10681000592303D9591303DB191303DD7CBA047A16
:10682000B303CBC322D3226D5580297DF53EF47F7F
:10683000612DDF0B6A40BE44006428162DF17DE017
:106840000B7AD0BED4006450028004BDD428031B50
:106850007A400B54BE552940D222CA3B6D337A3759
:1068600051BF7E084D51124B0B123D267E34010064
:106870001207407A37672C7E3401011207407A37BD
:1068800067307E3401021207407A3767327E340166
:10689000061207407A37672E7E3401006D221206F9
:1068A000487E3401006D221206C5126D371206486B
:1068B000126D371206C5126D2E120648126D2E1279
:1068C00006C5126D66120648126D661206C56D3356
:1068D0001207407A3767227E3400011207407A3768
:1068E00067247E3400021207407A3767267E340020
:1068F000081207407A3767287E3400171207407A5B
:1069000037672A126CE75E50E04E500A126CE45E64
:1069100050E04E500A1206C5126D59120648126D0B
:10692000591206C5126D73120648126D731206C510
:10693000126D40120648126D401206C5126D4C12BF
:106940000648126D4C1206C5126CEE6D6680301250
:106950006CDB7EB3748C7012126CA760053E14144D
:1069600078FB126CB2126CC48010126CA760053EEA
:10697000141478FB126CB2126CCB126CD20B641232
:106980006CBDBD3638C97EB3747E5401B4010B7E34
:106990003766DA4E70017A3766DA123F847E340445
:1069A00068CA397E180CD07E084D5112239A1BFDFF
:1069B0007E340001415C126CEE126E5D7E3527ADB7
:1069C000327D638059126CDB7E7374780A37BE3572
:1069D00027281E7EB3748C700C126CA760353E1491
:1069E0001478FB802E126CA760173E141478FB807D
:1069F000107EB3748C7012126CA760053E1414786C
:106A0000FB126CB2126CCB8010126CA760053E14A6
:106A10001478FB126CB2126CC4126CD20B647E251B
:106A2000270B24126CBDAD32BD3638997EB3747E0F
:106A30005404B4040B7E3766DA4E70047A3766DA93
:106A4000123F847E340468CA397E180CD07E0867F1
:106A50003412239A1BFD126D03126CFA7A35277ECD
:106A600073747A0A37BE3527280221B66D33610E5A
:106A7000126CEE7E65278059126CDB7E377480BD08
:106A800036281E7EB3748C700C126CA760353E14D1
:106A90001478FB802E126CA760173E141478FB80CC
:106AA000107EB3748C7012126CA760053E141478BB
:106AB000FB126CB2126CCB8010126CA760053E14F6
:106AC0001478FB126CB2126CC4126CD2126CBD2D15
:106AD000637EA3747B7EB3747AA4BD56389A7EB36A
:106AE000747F5401B4010B7E3766FE4E70017A3715
:106AF00066FE123F847E340468CA397E180CD07E4C
:106B000008673412239A1BFD126D03126CFA7A3552
:106B100027126CBDBE352728024170126CEE7EB381
:106B2000747F5404B4040B7E3766FE4E70047A37CB
:106B300066FE123F847E340468CA397E180CD07E0B
:106B400008673412239A1BFD126D031268276D66C5
:106B50007D263E2449324D51BE340200280F7D125D
:106B60002E144D519E3402001B183080066D33598F
:106B7000324D510B64BE64023478D57E344D517A67
:106B80003751BDE47AB37BDD7AB37BDC126CE7125C
:106B90006CE41206C57E3400017E27672412064885
:106BA0007E3400017E2767241206C57E3400027EF3
:106BB0002767261206487E3400027E2767261206C3
:106BC000C57E3400087E2767281206487E340008F8
:106BD0007E2767281206C57E3400177E27672A1293
:106BE00006487E3400177E27672A1206C5126D25D7
:106BF000120648126D251206C5126D1C12064812A7
:106C00006D1C1206C5126D13120648126D13120682
:106C1000C57E3401067E27672E1206487E340106A3
:106C20007E27672E1206C56D668056126CDB7E3796
:106C30007480BD36281E7EB3748C700C126CA760F5
:106C4000353E141478FB802E126CA760173E141486
:106C500078FB80107EB3748C7012126CA760053EB6
:106C6000141478FB126CB2126CCB8010126CA760FB
:106C7000053E141478FB126CB2126CC4126CD20B69
:106C800064126E72BD3638A37E3401167E0866DA51
:106C9000126E647E3401167E0866FE126E6B126DF3
:106CA0008D126DEBDA3B227D575E54000F7E14008F
:106CB00001227D271E241E241E241E24227E73747E
:106CC0007B0A37223E242E2466DA223E242E2466B6
:106CD000FE220B28304D311B2830227D363E3449B0
:106CE00073748D221206486D337E276722227E0838
:106CF00066DA7E340048E40223BF1268277E352717
:106D00000B34227E3402347A35297E084D517E18A8
:106D10006734227E3401027E276732227E340101ED
:106D20007E276730227E3401007E27672C227E3446
:106D300001027E2406E9227E3401017E2407082216
:106D40007E3400087E2767284E4040227E3400179C
:106D50007E27672A5E24E03F227E3400017E27677B
:106D6000245E248000227E3401067E27672E5E2466
:106D7000FC00227E3400027E2767265E409C4E4047
:106D800021227EB3747E7E73747F126D967EB374FF
:106D90007E7E73747F227C6B7C565E50041E500A8C
:106DA000457CB654010A5B2D547CAB7C675E600465
:106DB0001E600A267CB754010A3B2D327CB70A4B71
:106DC0003E443E440A5A2D547CAB7AA378F0E47AD0
:106DD000B378F17E70047CBA30E0097EB378F104B8
:106DE0007AB378F11EA01B7078EC22CAD8CA797CDD
:106DF000F77CEBE4123D266CDD7E70B5AC7D2E3465
:106E000001002E3400167A35291207407A352B7E80
:106E100035291208007A352D7E252B5E50F87A250B
:106E20002B5E70F87A352D7CBE54050A3B4E352B0F
:106E30007A352B7CBF54050A3B4E352D7A352D7E95
:106E400035297E252B1206487E35297E252D1206F2
:106E5000C50BD0BED00340A1DA79DAD8227E737494
:106E60007B0A27227E2400120203FA7E24001202EB
:106E700004967E3774822E377480227E340471CA61
:106E8000397E341BD17E2400FF7E08747812239A49
:106E90001BFD126E727A3778ECE47AB3747E7AB3A3
:106EA000747F9021679370067E63747B80047E6399
:106EB000747A7E7040AC671B347A3778EE22248A6D
:106EC00078197E0F7D6AA5BF0008123FD15E70FB66
:106ED0008006123FD14E70041B0A30222452680AE9
:106EE0000478296D337A374D43227E63747A7E733A
:106EF000747BAC763E347A374D431E340A367A734F
:106F00007BE97E374D431E347A737BEA227E34045C
:106F100068CA39126F4E12239A1BFD6D337D133EE2
:106F200014490148D8BE0400000806492148D88009
:106F3000046D229D20592148D849014470BD202864
:106F400004592144700B34BE34023440D0227E1FD9
:106F500022E07E0848D822246F681214681414684E
:106F6000161468180BB278197EB30172227EB30131
:106F700073227EB30174227EB30175227EB3017643
:106F80002274FE227E3751E27A737BE17EB37BDE90
:106F9000B40102800302706012EA7D7EA751E2BE56
:106FA000A4000538306DDD7AD751D17AD751CF7E24
:106FB0000851C97E340006E41223BF7E3404687D84
:106FC0001DAD132E1444706D00E41223BF0BD4BE0C
:106FD000D4000278E67EA751E20BA47AA751E2BE64
:106FE000A400052805D221126F0D7E737BDF0AA74E
:106FF0003EA43EA42EA40005BEA751E278746DDD28
:107000004DDD78046DBB800A7D3D1B343E3449B3B1
:107010004470BED4023478046DCC80087DCD3EC46B
:1070200049CC44727D3B2D3C7E24000A8D327D3D4F
:107030003E342E3444700B38A02DA21B38A00BD444
:10704000BED4023478BAC221E47AB37BDE6DAA7A68
:10705000A74D437E3444707A3751BB7AA751E22260
:10706000C2217EA751E24DAA68086DAA7AA751E213
:10707000D210227E7372457A7372467E7374467A9A
:10708000737447E47AB3744A7E7329E67A737B8615
:107090007E73746D7A735F91227EB37D72047AB3CE
:1070A0007D727E737D727A737B6C227E377D1C0BC2
:1070B000347A377D1C7E377D1EBE377D1C28030247
:1070C00070C6220270ABE59A6005D29CA9D6DF2279
:1070D000CA7BCA6BCA5BCA4BCA2BCA1BCA0BC0D0BD
:1070E000C083C082C28F1270C3D082D083D0D0DA66
:1070F0000BDA1BDA2BDA4BDA5BDA6BDA7B327EA344
:10710000281A7E7004AC7A0B34BE377C2940397E55
:10711000377C290B347A377C29BE34000178057E10
:10712000B37BAE22BE34000278037CBA22BE3400A8
:107130000250097D231B2509B229F9229E34000340
:107140002E37242B7E39B02274FF22CA2BCA1BCAC9
:107150000BC083C082126250D082D083DA0BDA1B5C
:10716000DA2B3212716A75130032A9C093227AB3F6
:107170007BCDC45407BEB0046803B402047403801A
:10718000076003B4010774017AB37B822274017A29
:10719000B37B82E47AB37BCD22BEB0EB6803B4EC60
:1071A000337E277C2B4D22780EA5BFAA0A7E2400B1
:1071B000017A277C2B151A7E277C2BBE24000178B0
:1071C00010A5BF09067E34000280026D337A377C39
:1071D0002B751AEA22B4EB03751B00E51B0A3B2E44
:1071E0003400161272087CAB051BE51BB40309754D
:1071F0001B006D337A377C2B751AEB7CBA227CB777
:1072000054070A3B2E3400F57A71827A6183E49345
:107210002274017AB37D797EB37BABB40106E47A44
:10722000B37D79227EB420E17D3B1272087C7B1E07
:10723000707A7374557EA4008C7AA774567E3400DD
:10724000827A37745812DD9A7EA37230BEA000385D
:107250000241E4BEA008281D7E377236BE3401907C
:1072600058137D3B1272081EB00A3B7D2A7E040033
:10727000827D108068BEA006281D7E377236BE341F
:1072800001F458137D3B1272081EB00A3B7E0400C5
:10729000967D207D1A8046BEA004281F7EA77236E8
:1072A000BEA4025858157D3B1272080A3B7E24008A
:1072B000B47E1400AA7E0400C88022BEA002282446
:1072C0007EA77236BEA40320581A7D3B1272080AAC
:1072D0003B7E2400DC7E1400D27E0400E61273257F
:1072E00080078000E47AB37D797EB37D7970279042
:1072F00020E1E4930A3B7E1420E912731D7E1420E2
:10730000EB7E0400FF0B0A107E5420F57E4400FF44
:107310000B2A00027325D223227E14216C7E0400E6
:10732000FF0B0A20227A7374557A2774567A1774E1
:10733000587A0774626D339D30122AE6122A9B7ABE
:10734000737B5C221277C80272117E14216812735B
:107350001D7E14216C7E0400FF0B0AD07E14216E6A
:107360001277AD901BBAE493700122902167E493E9
:10737000B401067E83747D80047E83747C1277B5AD
:10738000BE34003F38217EE4003F9DE37E3421720D
:1073900012742D12761E7F71127601BF7140027F2A
:1073A000719F177F71812A7D549E54003FBD5338D1
:1073B000267DE39DE57E34217412742D12761E7FA6
:1073C00071902171E4930A3BBF7140047F711B7C73
:1073D0001276092F7180537D521B54BD53401B7D83
:1073E000F59DF36DEE7E34217612762B7F717D3C18
:1073F0001B346D229F177F7180157DF39DF26DEE1A
:107400007E34217812762B7F717D3C6D222F711294
:1074100076016D22BF7150047F71800E902171E45E
:1074200093127609BF7128027F717D3F227E24006E
:10743000FF0B1AF022CAF86CFF7EB7280E7EC72811
:10744000107E9727F67ED727F87EA7280A7EE728A2
:107450000CE47E73281A1B707D2B7D1C12758840EE
:1074600002A1837E73281ABE700A2813E47E700975
:107470007E2728127E1728141275884002A1837E69
:1074800073281ABE700F2813E47E700E7E2728160C
:107490007E1728181275884002A1837E3421DF12DE
:1074A000742DBDFC28507E3421DD12742DBDFB509F
:1074B000457E3421E31229261276127D8F9D83BEEC
:1074C0008727F450317E3421E17E2400FF0B1A809F
:1074D0009DF8BEF727F4281E7E340003AD3C7DFBEB
:1074E0003EF4BDF33802A183BDA950057EF020A172
:1074F000837EF021A1837E3421E712742DBDFB38F9
:1075000002A1837E3421E512742DBDFC50757EB33B
:1075100027F3706F7E3421EB1229261276127DAF8D
:107520009DA3BEA727F4505B7E3421E97E2400FF93
:107530000B1AA09DFABEF727F428487DFB3EF47E87
:10754000340003AD3CBD3F283ABDED50057EF0222E
:1075500080317EA3281A7E1004AC1A4930242D49AC
:1075600010242F4920241D4900241F9D10BE140003
:1075700020180D9D32BE3400104805BEA0065003F1
:107580007EF0237CBFDAF8227D417D027C6B74049F
:10759000ACB649152431492524337404ACB749F5F8
:1075A0002431495524337D319D3FBE340000080409
:1075B0009D1F80046D119D137D329D35BE340000EA
:1075C00008049D2580046D229D239D249D10BE24CA
:1075D000000008047D3280046D339D327E5421D733
:1075E0007E4400FF0B2A20BD325014BE1400000858
:1075F000047D3180046D339D31BD325002D322C3EE
:1076000022902170E4930A3B220A2B7D3D9D326D2E
:1076100022227E1421FB7E0400FF0B0AF022ADFE25
:107620006DEE7D3F7D2E7C767C65227E2400FF0BF7
:107630001A107F171222427F717C767C650A242201
:107640007E3727FA9E3728027A37280E7E37280899
:107650009E3728007A3728101274356001227E7315
:10766000281A0A377A35277E0824317E1827F20235
:107670007672CAF87E45277CB97AB37C2E74FF7A7D
:10768000B37C2D6D55801F7DF53EF43EF47F602D5B
:10769000DF0B6AF07DE53EE459FE66DA69F600022A
:1076A00059FE68BA0B54BD4538DD7E337C2EBE30A2
:1076B000043802E14969F1001C6911001EBD1F1860
:1076C000194D1178047E1400017D3F7D211221FFA8
:1076D0007CF774407AB37C3180434DFF78047EF4AC
:1076E00000017D317D2F1221FF7CF774807AB37CFD
:1076F000317D0F2D0FBD0108241A021A007E737C04
:10770000310A376D221222317D5F1A4A1A487D1FD5
:107710001A021A002F0212224D7A737C31BEF00534
:1077200058237E0866DA7E1868BA12E5157E086668
:10773000DA7E1868BA12E5C47E0866DA7E1868BA7E
:1077400012E459800A747D8002747F7AB37C2DE440
:107750007AB37C2E7E7329FFBE737C2D48067EB3E0
:107760007C2F8001E4DAF8227EB37BAB70061277BF
:10777000A10277A712D4401277BD500A1276407C3E
:107780003B1277A1800512DF3A7C3B4C3368117CB9
:10779000B312E740600A7A337BAE74017AB3744C5B
:1077A00022E47AB327F222E47AB37D46227E0400F3
:1077B000FF0B0AC0227E9040AC891B44227EB32777
:1077C000F2B40402D322C3227E087D797E34000104
:1077D00074FF0223BF7C6B2E60DD68292E60FD687C
:1077E000241B6168202E60FA681B1B6068178000EC
:1077F0000A2B19727B5BD2237AB37B59B42506D24C
:10780000247A737B58227E1873EC6C3301907E10BF
:107810000DAC13092072EC9020DFE493BCB2286E0B
:107820007CA25EA00F7409A42D537D427E2BA0493B
:107830004072EABE4400403850494072E8BE4400FD
:107840000040467EF4216C127FF19E04015EBD4033
:1078500038374CAA78387EB329D770327EB3744655
:10786000B4012B74017AB329D77E90037E1009AC42
:10787000127F712DF07A7B9074037F712DF039B7F0
:107880000001E47AB324268005E47AB329D70B30CB
:107890007EB37454BCB32802010E7EB37446700AE2
:1078A0001278AB2805E47AB329D7227E737447BED9
:1078B00070002274017AB372657EB37251B401050F
:1078C000E47AB372651278AB2805E47AB372657E08
:1078D000B324267005E47AB372657EB37D2EB401BD
:1078E00005E47AB372657E3421C0122926BE377A48
:1078F000535005E47AB372657EB37BAB700A127F96
:107900009C2805E47AB372657EB37B80B401177E50
:10791000737D62BE703C500EBE70002809E51E608B
:1079200005E47AB37265221278B3127A5C127B375F
:107930000279337EB3725FB40118127B2DBE737D62
:107940005A280CE47AB3725F7EB37D5A048004E453
:107950008001E47AB37D5A7EB3725F7053127A5518
:1079600078157EB37260B401077EB37D5C0480013C
:10797000E47AB37D5C8018BEA00178137EB3726197
:10798000B401077EB37D5D048001E47AB37D5D7E42
:10799000737D5CBE700350097E737D5DBE700340D5
:1079A0000F74017AB3725FE47AB37D5C7AB37D5D64
:1079B0007EB37262B40118127B2DBE737D5B280CFE
:1079C000E47AB372627EB37D5B048004E48001E4F8
:1079D0007AB37D5B7EB372627053127A5578157EEE
:1079E000B37263B401077EB37D5E048001E47AB3B1
:1079F0007D5E8018BEA00178137EB37264B4010767
:107A00007EB37D5F048001E47AB37D5F7E737D5E2B
:107A1000BE700350097E737D5FBE7003400F74011A
:107A20007AB37262E47AB37D5E7AB37D5F7EB372BD
:107A300065B4011A7E73724FBE737D60280CE47AC0
:107A4000B372657EB37D60048006740180027401A8
:107A50007AB37D60227EA324274CAA22D200E47A46
:107A6000B3725F7AB372627EB37252B4010674016C
:107A70007AB3725F127A557814E47AB372607EB387
:107A80007253B4011F74017AB372608017BEA001F3
:107A90007812E47AB372617EB37254B40106740151
:107AA0007AB372617EB37255B4010674017AB3720F
:107AB000624CAA7814E47AB372637EB37256B4014E
:107AC0001F74017AB372638017BEA0017812E47A42
:107AD000B372647EB37257B4010674017AB37264F0
:107AE0007EB3725B7003127B217EB3242670031277
:107AF0007B217EB3725DB40103127B217E3421C0F1
:107B0000122926BE377A535003127B21200011E43C
:107B10007AB372607AB372617AB372637AB3726461
:107B200022E47AB3725F7AB37262C20022E47AB35B
:107B300072657E737250227E47723A7E07745A7E57
:107B4000340006AD307E140004127BDE08057EA0F2
:107B50000480217D303E343E34127BDE08057EA059
:107B60000380117D303E34127BDE08057EA002804A
:107B7000037EA0017EB3725C60037EA004127FA42A
:107B800060037EA0010A2A7E142197127FB0AD32D5
:107B90001290B97AB3724F7EB37230BEB00028280B
:107BA0007EB3725170227E37724DBE340002480996
:107BB000127FA97A37724D800F7E63724F7E7002FA
:107BC000AC677CB77AB3724F7EB37B80B4010E7E14
:107BD00027724D7E340005AD327A37724D227D21F9
:107BE0001221FFBD3422CAF8127C6B127927127C55
:107BF000594005E47AB3725F7EB3725F600BE47A3A
:107C0000B37D5A741F7AB378EB127C594006127D0B
:107C1000DF12DEDE7EB37262600674027AB37D61CB
:107C20007EF37D61BEF0002823E51EB401147EB30F
:107C30007B80B4010D7EB37D62BEB03C6804700CE5
:107C400080007CBF147AB37D6112DD0C7EB3726557
:107C50006004E412DC17DAF822E51E700C7E73294A
:107C6000EEBE7329F64002C322D322127F0A127C91
:107C70009B12C46B027C777E2778EC1E241E24E4C2
:107C80007AB3725C7E377232BD3238087E37723416
:107C9000BD32280674017AB3725C22E47AB3725260
:107CA0007AB37255127DBE7AB372567AB372577E2A
:107CB000737231BE7000282E127DC7080674017AD7
:107CC000B372527E0774607D30127DB20803127D5C
:107CD000AB7D303E343E347D21127DB60808D22C77
:107CE0006D337A377B567E377240BE3401F4082DEF
:107CF000302B2A302C1B127DAB7E377B560B347A0F
:107D0000377B56BE3400052808C22C6D337A377B8A
:107D100056127E04BE3400642803127DAB7EA3722B
:107D200031BEA0002842127DC7081A7E732427A501
:107D3000BF000874017AB37253800AA5BF010674AC
:107D4000017AB372547E377460127DB2081A7E7362
:107D50002427A5BF000874017AB37256800AA5BF14
:107D6000010674017AB372577EB37252BEB00168D5
:107D7000107EB37253BEB00168077EB37254B40173
:107D800024BEA000281FBEA003501A7EB37230B4D8
:107D90000113902188E493BEB3702E6808E47AB38F
:107DA0007252127DBEE47AB372582274017AB372B1
:107DB0005522AD317D241221FFBE377240227AB3A5
:107DC00072537AB37254227E37745A7E140006AD11
:107DD000317E4400047D241221FFBE37723A227E98
:107DE0001808687A1D347E1F22DC7F01027DEF12A5
:107DF0007EE3127ED17E3400107A376FB87E086F32
:107E0000AE0208736D227D3280127D52127E250BE8
:107E10000A10BE14FFB058020B340B247E1778EC06
:107E2000BD1238E6223E547E0F22E02D1522CAF8FC
:107E30007EB378E97008127EA5127EB8800F7E1F8F
:107E400022DC7A1D34127EA57401124E1A7E377818
:107E5000EC901BB9E49370136CFF6D227D53127E7E
:107E6000251B0A20127E9D78F1802F6CFF7EB3784F
:107E7000E9B401147D533E547E0F22DC2D150B0A0C
:107E800040127EAE9D2480077D533E54127EAE127A
:107E90007E271B0A20127E9D78D3DAF8220B340B42
:107EA000F0BEF004227E0F22E07E1F22D8227E0F39
:107EB00022D82D150B0A2022127EE37A376FB212D8
:107EC0007EDC7E3400207A376FB87E086FAE020801
:107ED000737A376FB27E1D347A376FB47D3F7A374D
:107EE0006FB6227F617F707E086FAE7E34000CE437
:107EF0001223BF7E73747B7A736FAF7E73747A7A4A
:107F0000736FAE7AB36FB07D3D22E47AB372517570
:107F100027007528007EB3747AF5297EB3747BF54B
:107F20002A7E0800277E377458127F4FE4337AB3D5
:107F30007251E47AB3725A12C459337AB3725A74D2
:107F4000017AB3725B12C475E4337AB3725B22CAEE
:107F5000D8CA797D437F70127F9C28336CFF802ABA
:107F60007402ACBF09E5702E09D5702F7CBE7C7DF4
:107F70001231587DD37F077C7D12C54C5007BD4D13
:107F80005806D3800BD380080BF0127F9538D1C3ED
:107F9000DA79DAD8227E737230BC7F227E73723037
:107FA000BE7000227EB37A45227E2400020221FFA9
:107FB0007E0400FF0B0A30227D137E5421C5127F00
:107FC000E750217E5421C7127FE728187E1421C96B
:107FD000127FB0BD32500D7E1421CB127FB0BD3266
:107FE0002802E4227401227E4400FF0B2A30BD31B6
:107FF000227EE400FF0B7A0022CA797CFB7F517F4E
:1080000040740DACBF09B572EDF53B740DACBF0902
:10801000B572EEC454F0F53C740DACBF09E572ECDA
:108020001280EE28587EB3744D7028753D0F7E087F
:10803000003B0A3E2E34291F6D2274011280A77561
:108040003D207E08003C0A3E2E34292974101280FF
:10805000A7800E0A3E09B3291FF53B09B32929F56C
:108060003C7409ACBE09B573ECB40111E40A3E19C5
:10807000B3291F19B32929753B00753C007EB374E1
:1080800068B4FF16853A3B753B00740DACBF09B56B
:1080900072ECBEB0FF6803753B01E53B7A4BB0E57F
:1080A0003C7A5BB0DA79227C9B7E1BA04CAA7807D5
:1080B0007E0BB07A1BB0220ADA7E0B800AE87DFEC6
:1080C0009DFDBEF4000008049DED80046DEE9DEF63
:1080D000E53D0AFBBDEF080FBC8A7CBA28042CB929
:1080E00080029CB97A1BB07E1B707A0B70227E7363
:1080F0007454BC7E227E6873EC7EB37447B4011A5C
:108100007EB37446701429760008BE702D500BBEE5
:108110007000280674037AB374527E737452BE7072
:1081200000282D7E34000DCA397E18281B7E087267
:10813000E812239A1BFD7EA37452BEA0037803E4C9
:10814000800BBEA00178047401800274027A6BB0C7
:1081500022CA3B752800752900752A00752B007509
:108160002D00C200C2017E1829337A1D327E187399
:10817000EC7A1D36E47E3429347E2400007A1BB06C
:1081800012CC581280F56CEE8037740DACBE09F538
:1081900072EC12A897282812E8097E1BB0B4011FC0
:1081A00012EA3B701A29010008BE002D5011BE00D2
:1081B00000280C7AE12C7403A5F77AF11280070BE2
:1081C000E01280EE38C412E8F43802414FB40312D2
:1081D0007E34000DCA3912EA4F6D227E312CAC3B41
:1081E000801B6CEE80267E300DAC3E09B172ECB483
:1081F000FF187E04000DCA0912EA4F6D222E147278
:10820000E86D0012239A1BFD80070BE01280EE3808
:10821000D57E11122E1008A5E77CABBEA003781303
:108220006C337E11127409AC1B7E1D362D307A1B07
:1082300030801CBEA00178057EA00180037EA002D4
:108240007E31127409AC3B7E1D362D317A1BA07E27
:10825000B3744F701A7EB3744B70147EB3744C7049
:108260000E12E8F438097EB3745270030289421288
:10827000E8F4280314A5F77EB374526005147AB3AA
:1082800074523020067E18297180047E1829337AB2
:108290001D327E0D32125C086CEE0288D57E700DA8
:1082A000AC7E09F372EC12A89738030288D37CAF36
:1082B0005EA00F7409A47E0D362D157E0BC07E9036
:1082C00004AC9F09A429B24CAA78026188492372A0
:1082D000E84D22780A493372EA4D3378026188BE4C
:1082E000A00428057ED0388021BEA00478057ED069
:1082F000308017BEA00378057ED020800DBEA0027E
:1083000078057ED01880037ED01075270080687EA7
:108310009127740DAC9B09B428A1540FBCBF7855AC
:10832000740DACBE493572E812E8E04934289D125C
:10833000EA4374061E341E2450034E60801478F401
:10834000740DACBE593572E87E900DAC9E49347206
:10835000EA12E8E07EA127740DA44935289F12EAAD
:108360004374061E341E2450034E60801478F45962
:108370003472EA800705271289FC38937E7004ACBA
:108380007F2E3429B212EB7C12E8097E1BB0B401B7
:108390001712EA3B70127EB37452700CE439B100CC
:1083A0000812E9EB7AB329DD4CCC6802E1EC12EA61
:1083B0003B6002E1EC7EB374526002E1EC7E700D32
:1083C000AC7E49C372E8BEC4001E381412EB2B40C9
:1083D0000F7E14217A12731D9E24001EBDD22843E5
:1083E0001273197DD29ED4001EBDCD401D4913725B
:1083F000EABE14001E40137E54217A7E4400FF0B17
:108400002AD09ED4001EBD1D281912EB2B2802C1B4
:10841000A7BEC400005002C1A79E24015EBDC228B1
:1084200002C1A712E83B12EB3D581512EB22BE44E5
:10843000001E380C12E848400712E8513802A1BE6D
:1084400012E83612EB3D581712E87F9E44001EBD1D
:10845000C4400C12E848400712E8513802A1BE128D
:10846000E836123158BE3400005829740DACBE49AC
:108470004572EABE44001E381B493572E8BE34001E
:108480000040117E14216C1277AD9EC4015EBD3C8C
:108490003802A1BE12E80929B1000870317EC4007B
:1084A0000DCAC97E700DAC7E2E3472E86D227E300E
:1084B0000DAC3F2E14281B6D0012239A1BFD12E8F1
:1084C000092E3400087E1BB0047A1BB0A1BE12E74F
:1084D000BC12EA8F584D7E700DAC7E492372E8BE07
:1084E00024001E383E49C372EABEC4001E40347EDA
:1084F00014217A12731D9E24001EBDC2382512E875
:108500003B7C6F123169500712898C39A100081227
:10851000E80912E9F74002A1BE2E340008047A1BD4
:10852000B0A1BE12E7BC12EA8F584612E87F9E4403
:10853000001EBDC4403B12E848403612E8513831B5
:10854000740DACBE09B572EF7E700DAC7E0973720E
:10855000F07C6F123169500712898C39A100081222
:10856000E80912E9F750572E340008047A1BB0804E
:108570004D12E7BC12EA8F585A7E700DAC7E49232B
:1085800072EABE24001E384B49C372E8BEC4000024
:1085900040411273199E24015EBDC2383612E83B79
:1085A0007C6F123169500712898C39A1000812E8DA
:1085B0000912E9F750082E340008047A1BB07EC077
:1085C000037EA00312898F7A1BA012898F39A10024
:1085D00001C1EE7E500DAC5E490272E8BE04001E81
:1085E0003846493272EABE34001E403C12EA2F9EE1
:1085F00014001EBD313831740DACBF4915281B4D18
:1086000011780A4915281D4D117802C1E712E97643
:1086100012E7D32D13BE14012C0802C1E712E9D2D0
:1086200012E7F41222D2C1E712E8877D149E1400EB
:108630001EBD01403D12E844403812A9B20B7A2019
:108640009E24001EBD32382A12EA72780A49252873
:108650001D4D227802C1E712E97612E7D32D13BE31
:1086600014012C0802C1E712E9D212E7F41222D257
:10867000807512E8443877BE04000040717D249E66
:1086800024015EBD02386712EA7278084925281D68
:108690004D22685312E7C82DC3BEC4012C184812DE
:1086A000E7E81222D2804012E80929710008BE7062
:1086B00000283B7EB329DD7035740DACBF494528D9
:1086C0001B4D4478084945281D4D44681A49252802
:1086D0001D7D3D12E97A12E7D32D31BE34012C18ED
:1086E0000612E7E81222D212898C39A100084CCC7C
:1086F0006802E1EC12E8367C6F123169921E301E7E
:108700004112E9EB12E80929B1000670067401393B
:10871000B1000612E80929310006BE30012802E145
:10872000EC4CCC78037EC003742D39B10008D21F05
:108730007EA00312898F7A1BA012898F39A10001B4
:10874000E1EC740DACBE492572E8BE24001E28146D
:108750007E14216C127FB09E34001EBD2350051282
:10876000E8483879BE24001E3810493572EABE3414
:1087700000004006BE34001E28637E14216C127F68
:10878000B09E34001EBD234014740DACBE4915725A
:10879000EABE1400004006BE14001E2840BE24009D
:1087A0001E3819740DACBE490572EA12EA2F7D51CC
:1087B0009E54001EBD054004BD012821BD23402C50
:1087C000740DACBE492572EA7E14217A127FB07D09
:1087D000139E14001EBD214013BD23380F12E8095B
:1087E00029B100067006740239B10006BEC00378D4
:1087F000030288D312EB227A452E493572EA7A3584
:1088000030BEC001783B6CAA7E7004AC7F19A329EE
:10881000B012898F39A10006752700801F128F883A
:1088200009B328A1540FBCBF78104923289D7A258D
:108830002E4933289F7A3530800705271289FC3866
:10884000DC85283A7E08002A7E18002B7CBE127F29
:10885000F97E352E5E600F7A352E7E35305E600FE4
:108860007A35307E900DAC9E097472EC0A57C45470
:10887000F07CABE47D252E25307A2530BE70FF6874
:1088800019BEC00168020528052D0A5C030354C007
:108890007CABE47D352E352E80077E352E2E34C000
:1088A000007A352E1289A2793000027E3530128985
:1088B000A2793000047EA12A7E3129740612899A99
:1088C00039A100067EA12B7E312912899A39A10097
:1088D0000705290BE01280EE280302829DE5287E21
:1088E0001D3239B100017E3374487E1D327A1B304F
:1088F0007EB37BABB4010F7EB3744CB4012374051B
:108900007AB329EB8016E52DBEB00038067EB3742D
:108910004C600EB2207EB32427128FA2C286128F23
:10892000907EB3744B600C7EB3745270067E0D362D
:108930001289AEE47AB3744F7AB3744B7AB3744C41
:10894000801E7E0D361289AE6CEE6CAA800B7C1EEA
:108950002E10087CBAA5F70BE0BEE00A40F0D286E4
:10896000128F7DCA597E1872E87E08289D12239ABC
:108970001BFDE52D70101237D6740DAC7B7E0828D8
:108980009D74FF1223BF128FBADA3B227EA02D7E88
:108990003009AC3F7E1D362D3122AC3B7E1D322D81
:1089A00031227EA1297406A47E0D322D1522CAF82B
:1089B0006CAA80407EF0037E9009AC9A7F102D3423
:1089C0007A1BF074037F102D3439B100017E347F9F
:1089D000FF7F702DF4793700027F702DF479370016
:1089E00004E47F102D3439B100067F102D3439B1E5
:1089F00000080BA012551438BBDAF8229020DFE4EF
:108A000093BEB12722CA3BC2007E3873EC6CAA80A9
:108A1000197E70FF128DB274FF0A4A19B466EEE433
:108A200019B466DA19B466E40BA012551438E27E64
:108A3000737446A5BF001F7EB37CF3700281E26CA5
:108A4000AA800C7E447FFF128CF6128D9F0BA01221
:108A5000551438EF81E27EB37CF37038BE70002885
:108A6000336CAA8025128DBC128CF6493372687F54
:108A7000032D127930000474010A4A19B466DA7EB3
:108A8000700DAC7A19A3726A0BA07EB37446BCBA9F
:108A900038D381E26CAA801D7E447FFF7E7002ACD9
:108AA0007A3E34594322E4594322E65943230C5970
:108AB00043230E0BA012551438DE7EB37CF3BEB3F5
:108AC00074462809BEB0024004D2008002C2006C85
:108AD000AA6194752700618B7E71277409AC7B7F36
:108AE000732DF369170002BE147FFF78026189E5D8
:108AF000270A2B09B266E46002618930006C7E713E
:108B0000277402AC7B49037D08BE047FFF685B4984
:108B1000D37D08690700027D409D4D2D4049D37CDF
:108B2000F4690700047D309D3D2D30BE440000589F
:108B3000026D44BE34000058026D337E03747C1213
:108B40008DC6BDD418067D409E4400217E03747DF1
:108B5000128DC6BDD318067D309E340021128D972C
:108B6000594022E4593022E6800F128D9759102285
:108B7000E469170004591022E6E5270A1A19B166BC
:108B8000EE740119B266E4800905271289FC2802F7
:108B900041D80BA07EB37CF3BCBA280241D36CAAA7
:108BA000801A128DA8693000027E5002AC5A5932E8
:108BB0007D086930000459327CF40BA01237D6BC12
:108BC0007A38DF6CAA80310A2A09B266EEB4FF2631
:108BD000752700801CE5270A4B09B466E47010E590
:108BE000270A2A19B266EE740119B466E4800705F3
:108BF00027BE712738DF0BA0BC7A38CB6CAA80184F
:108C0000128DBC7E5002AC5A3E245942230C49338B
:108C100072685932230E0BA07EB37446BCBA38E09A
:108C20007E3422E47A3766FA7E34230C7A3766FC87
:108C30007E3423347A3766FE7E737CF37A7366F86B
:108C40007E7374467A7366F97E0866F81201206CAA
:108C5000AA805E7E70FF752700801D7E51277402FA
:108C6000AC5B491223340A2ABD21780AE5270A3B66
:108C7000097366EE800705271289FC38DEBE70FF97
:108C8000682D128DB274010A4719B466DA7E500D50
:108C9000AC5A494272667E5009AC57128CFB7E502A
:108CA0000DAC5A494272687E5009AC57128D9F0B29
:108CB000A07E637446BC6A389A6CAA80200A3A097E
:108CC000B366DABEB00168137E447FFF128DA879C7
:108CD0004000022D377D26794100040BA012551467
:108CE00038DB7E7374467A737CF37F037E1866DA12
:108CF000128D04DA3B227E5009AC5A7F032D127983
:108D000040000222CA797EA374466C9980770AF9E2
:108D10002DF37DE27E7BB0B40127128D8D29B70043
:108D200001B40106740339B70001128D8D29870043
:108D300001BE80037803E480324C8878317402806D
:108D40002A128D8D29B70001BEB00268086006297D
:108D5000B70007701474017A7BB07C8A0BA07EF098
:108D60000DACF81997726A800574037A7BB0128D86
:108D70008D7E7BB039B70001128D8D29B700013986
:108D8000B700070B90128DD23884DA79227EF00971
:108D9000ACF97F702DF7227E1002AC1A3E04227FC0
:108DA000032D1279400004227E7009AC7A7F032DD6
:108DB00013227E500DAC5A1972726A227E700DAC6D
:108DC0007A49437266227E1040AC017DD09ED40069
:108DD00020229020DFE493BCB9227E0866DACA69BB
:108DE000CAF87F707C867CF77CAB6C99C19E7C3F17
:108DF000C1967E100DAC190920736E7E100DAC1358
:108E000009B0726ABCB26802C194BE20FF7802C188
:108E1000947ED009ACD209B673EC700A7D302E3442
:108E200072666D22800B7E700DAC792E34736A6D84
:108E30002229110004128EAC391600040B1A0012FC
:108E40008EAC1B6A0069010002128EAC790600022A
:108E50007E100DAC130910726B128EAC3916000522
:108E60007E100DAC130910726C128EAC3916000610
:108E70007E100DAC130910726D128EAC39160007FE
:108E80007E100DAC130910726E128EAC39160008EC
:108E90000BA080080B30BC832802A1F20B90128D2E
:108EA000D22802A1EE7CBADAF8DA69227ED00DACC3
:108EB000DA7F672DD622CA797CEB9020DFE4937CA1
:108EC000FB7E700DAC7F7E0866DA74FF1223BFE470
:108ED0006C777C6E128DDA7C7E7C6F128DDA7C1B57
:108EE0006C00803E6C998017740DACB909A566DEE4
:108EF0007E300DAC300981726ABC8A68060B90BC6A
:108F00001938E5BC1978197E700DAC702E34726674
:108F10007E300DAC312E1466DA740D1222D20B1095
:108F20000B00BCF038BE740DACBFCA597E1866DAAF
:108F30007E08736A12239A1BFDDA7922CA797EF3BE
:108F400074467EE374477CBF7C7E1254BB7CBF12A8
:108F50008EB64CEE7814128F7DCA597E1872667EDA
:108F600008736A12239A1BFD800B7EB3744D700543
:108F70007CBF12B2D77CBF12C100DA79229020DF09
:108F8000E4937CAB740DA4227E7127740DAC7B221C
:108F90007EB329DC047AB329DC7E7329DC7A737B07
:108FA0006A22700E7E3400087A3729EF228003127D
:108FB000567B125CE838F802000A6CAA7E7004AC9A
:108FC0007A09B329B0600874017AB3745180070B31
:108FD000A0BEA00A40E6E47AB3745122E47AB37BDF
:108FE000CD901BD3937AB37BCF901BD4E4937AB309
:108FF0007BD09020DFE4937AB37BD2E47AB37BD347
:109000007AB37BD81247C8E47AB37BDB7E7379C22C
:109010007A737BED7E7379C37A737BEE7E7379C44A
:109020007A737BEF7E7379917A737BF67E73799294
:109030007A737BF7901BD7937AB37BEB901BD8E4C2
:10904000937AB37BEC74017AB37BFD7E3421C0123A
:1090500029267A377C2774027AB37BD674177AB3C1
:109060007BFA227E08702E7E340219E41223BF9010
:1090700020E0937C7B740DAC7B7E0870AA74FF02A9
:1090800023BF7E3421931229267A3772497E3421F8
:10909000951229267A37724B7E342197122926128F
:1090A00090B97AB3724F90219AE4937AB37250E4F4
:1090B0007AB372597AB3725A227A37724D902199E3
:1090C000E493221237D6740DAC7B7E087266123799
:1090D000D1740DAC7B7E08736A1237D1740DAC7BF2
:1090E0007E0872E874FF1223BF7E0873EC1289AE0B
:1090F0007E0874467E34000EE40223BF7E340027CF
:10910000CA397E3420427E2400FF7E0878F3122381
:109110009A1BFD7E340027CA397E3420697E2400E4
:10912000FF7E08791A12239A1BFD7E340027CA3964
:109130007E3420907E2400FF7E08794112239A1B02
:10914000FD7E340027CA397E3420B77E2400FF7E9E
:1091500008796812239A1BFD6C887CB8124F870B24
:1091600080BE800440F40258A81292C11291751278
:109170009277023D07CA3B7E38015F1207B57EA396
:10918000016FBEA0FF682A7E630170BE60FF682188
:109190007E730171BE70FF68184CAA68144C666833
:1091A000104C77680C7AA37B7E7A637B7A7A737B28
:1091B0007BC20F7EB30171BEB003280F74047AB373
:1091C00029EA7AB34D4875C384D20FC2117CBA54D0
:1091D000F0B4E002D2117E080083693300041292D9
:1091E000634D321200067E08008529B300061292F4
:1091F0006C7E0800BF693300011292634D32120089
:10920000067E0800C129B3000312926C7E08008715
:109210006933000A1292634D321200067E080089FB
:1092200029B3000C12926C7E0800C3693300071248
:1092300092634D321200067E0800C529B300091260
:10924000926C7E34001A7E0800837E240004120390
:10925000FA7E34001A7E0800BF7E240004120496B1
:10926000DA3B227D237C456C550A362254C02323E9
:1092700054030A3B020D3302927ACA3B7E67748024
:109280007E7774827401123D267EB3748C7E340125
:10929000007E08748D7D26600B1204961292B01227
:1092A00003FA80091203FA1292B0120496DA3B22F2
:1092B0007E3401007D163E142E14748D6D007D27C2
:1092C000221245A31247EB1293407EB3748C7E3773
:1092D0007488600E7A37009D7E37748A7A37006111
:1092E000800C7A3700617E37748A7A37009D7E372A
:1092F000005F4E70027A37005F7E37009B4E70022F
:109300007A37009B1247CF09B579BF120C78124704
:10931000CF09B579C0120D1B1247CF1267B57E3742
:1093200000537A37008F6D337E08004F7E24001E75
:109330001203FA6D337E08008B7E24001E02049611
:109340007E08004F1293E17E3401057A37004F7E8C
:109350003420007A3700516D337A3700537E340160
:10936000807A3700557E3428307A3700577E34189B
:109370001E7A3700597E3466067A37005B7E347376
:10938000007A37005D7E3414027A37005F6D337ADD
:109390003700637A3700657A3700677A3700697A71
:1093A00037007B7E3438017A37007D7E3404017AC1
:1093B00037007F7E3406037A3700816D337A3700B9
:1093C000837A3700857A3700877A3700897E3400C0
:1093D0003CCA397E18004F7E08008B12239A1BFD71
:1093E000227E34003CE40223BFD2057E737230BE7D
:1093F00070035002C3227E0866DA1293E16CAA80E1
:10940000177E9002AC9A09B4702E19B466DA09B4CA
:10941000702F19B466DB0BA07E737230BC7A38E112
:109420006CAA80360A2A0B247C6580287E5002AC08
:1094300056091266DA7E3002AC3A09B166DABCB17E
:109440007802C205095266DB09B166DBBCB5780259
:10945000C2050B60BC7638D40BA0BC7A38C6A20516
:1094600022CA3B7CFB1297787E9400517EE37230D7
:10947000E47AB37A9B7AB37A9C7AB37A5D7E087A7F
:109480009D12975EE41223BF12975E3E347E087AE7
:109490005EE41223BFBEE0025002E1426CDDE13C1B
:1094A00074027C7DAC7B12977F4CDD68080A8D09C5
:1094B000B87A9D700A0A3D0B340A8D19787A9D0A94
:1094C0005D0B54F527E1337EA12774027C7AAC7BD7
:1094D00009A3702E7AA12B09B3702FF52C0A2AE567
:1094E000290A0B7D3012975708067D509D52800443
:1094F0006D559D53F52DE52C0A2BE52A0A0B7D3081
:1095000012975708067D809D8280046D889D837D1B
:10951000387CC7E52DBEB0064002E131BEC0064032
:1095200002E131E5297E712A1231587A352F12363F
:10953000897D837E252FBD2808047D3880037E35F4
:109540002F7A3531BD2858047D3880037E352F7A37
:109550003533752E00E52DBEB0013821BEC001386F
:109560001C7CBF30E0177EB37A5D047AB37A5D75F8
:109570002E017EB37A9B047AB37A9BC1D5E52DBECA
:10958000B0013807BEC0013802C1D5E52DBEB00616
:109590004002C1D5BEC0064002C1D57CBF20E10259
:1095A000C1D5C203E52DBEB0022805BEC0023802F7
:1095B000D20312976512CFF31297717A0D3B7D3863
:1095C0002E352F127FA97A3535C202BE087FFF786B
:1095D000059F117A1D3B7E35357A35441297657E9D
:1095E0000D3B12CEDC92041293E992017E353312C8
:1095F000974820011AE52DBEB0043813BEC00438C8
:109600000E0A2CE52D0A3B12975018031297458538
:109610002A44852B45852C467E08003F7E18004154
:10962000E52912978CE52D0A4BBE454108070A3CF7
:10963000BE3541180C0A2C7D3412975018037E95C4
:109640003F7E0541BE04000378057E35338014BE9D
:1096500004000478057E35358009BE0400057806CF
:109660007E35311297487EB37BABB401047E940003
:109670003C7EB3746D601C129745E52DBEB0023878
:1096800012BEC002380D0A2C7D3412975018047E89
:109690009400327D191A021A007E1D371222317E83
:1096A00008006412229E7F017E1D3BBF100802D27B
:1096B00002300405200302C2027EB37BABB4010F6B
:1096C000E52DBEB0083808BEC0083803752E02303C
:1096D0000203752E02E52EBEB0002855E5270A4B81
:1096E00009147A9DA5B9000C0A3D09A37A9D19A415
:1096F0007A9D803D0A3D09537A9D7A5143BC512899
:10970000037A1143752800802309647A9DE5280AAD
:109710000B09307A9DBC36680A0A3D09637A9DBC04
:109720003678077EA14319A07A9D0528BEE1283826
:10973000D80527BEE127280281C70BD0BCED28023F
:1097400081A0DA3B227E35311A261A247A1D37226F
:109750002D32BE340006229D32BE340000229020FD
:10976000E0930A3B22E5297E712A7E612B7E512CF3
:10977000227D131A021A0022C202C203C204220965
:10978000B3702EF52909B3702FF52A227C9B7F71C7
:109790007F607E3427B07E2400FF7E1466DA74304A
:1097A0001222F37E5866DA7CB97E71441231587DFC
:1097B00003E5457E71461231582D300E347F057E0B
:1097C00050080B0A50BD53580F693000021B6A3015
:1097D000693000041B7A30222E1400061B5078E2F8
:1097E000227EB329F17CABD2027EB329E77004C29A
:1097F00002800B4CAA6805BEA0037802C202A20236
:1098000022CAF86CFF124E4F0BF07E7303D6BC7F5A
:1098100038F3129818DAF8227EB37BF97E7329F5B3
:1098200014681D04781A7E080CD07A0F22D87E089E
:1098300015A07A0F22DCA5BF03167E181E70800CBF
:109840007E1811387A1F22D87E181A087A1F22DC57
:10985000227C677C7BD2017EB37D2DB4034C7CB629
:109860001297E550457EA37BD6BEA00240327EB360
:109870007BDE70287E637D780A262E24000E124A35
:109880008224FF92017CB6047AB37D787E637D7872
:10989000BE60044015E47AB37D78800ED201800A60
:1098A000BCA77804D2018002C201A201226D227DF0
:1098B00032129911BE5432C840020B340B24BE241C
:1098C000001478EDBE3400053806E47AB37C7322C8
:1098D0007E24001480117D523E54129919BE543AD0
:1098E0009840020B340B247E5778ECBD5238E7BE0B
:1098F00034006C28077EB37C73048001E47AB37C67
:10990000737E737C73BE7002400674AA7AB37BC800
:10991000227D523E547E0F22D82D517D400B2A507D
:10992000226D227D32129911BE5427103806BE5482
:109930000BB850020B340B24BE24001478E7BE345D
:1099400000053806E47AB37C72227E240014801766
:109950007D523E54129919BE5427103806BE540B3E
:10996000B850020B340B247E5778ECBD5238E1BE60
:109970003400B428077EB37C72048001E47AB37C9F
:10998000727E737C72BE7004400375E9FF227CA76F
:109990007E73747BAC7B0A2A2D32227CAB7E7002F4
:1099A000AC7A09B3702E0973702F023158CA796CE2
:1099B000FFC2007EB3746D60067ED401C280047E57
:1099C000D403E87EB3746EB401047ED400F07EC785
:1099D00072366CEE807BC2007CBE12999B7DB374A4
:1099E00002ACBE09B5702E129B5EBD3B5804D2007E
:1099F0008036129A65781E7EA77D760EA4BDAC587F
:109A0000147CBE7E7001129A6E7D1D6D00BF100821
:109A100004D2008013129A65780E129B5409737059
:109A20002F129B6F4002D2003000247CBE1237EB15
:109A3000601D7EA4000DCAA97E700DAC7E2E347010
:109A4000AA6D22129B4A6D0012239A1BFD0BF00B8C
:109A5000E0129B4338807A7372457AF374467AC772
:109A60007D76DA79227E737447BE737230227C670A
:109A70007C7B7E5002AC5709A2702E0972702F9029
:109A80002188E493BCBA78039F11227CBA029A9091
:109A90007C167C077C9B7EB3747CF52A7EB3747D38
:109AA000F52B9F770A310A199D137C83807A7A817E
:109AB00028BE8000580C1A581A199D150A592D51A4
:109AC000F528E52ABCB8180C1A591A189D150A5918
:109AD0009D51F5280A110A509D51F527803A852796
:109AE00029E527BEB000580EE5271A5B1A109D1510
:109AF0000A502D51F529E52BBEB127180E1A30E575
:109B0000271A1B9D130A509D51F529E5287E7129BE
:109B1000123158129B3C05270A210A302D32E527C5
:109B20001A1BBD1308B80B800A110A592D511A18B7
:109B3000BD15180241AE7F17220299AD1A261A24CC
:109B40002F71227E737230BC7E227E300DAC3F2E90
:109B5000147266227E7002AC7E09B3702E227E37AC
:109B600074567E53747CBC5B38047E37745C227CF4
:109B7000AB4C7768187EB3747D14BCB7680F4CAAE1
:109B8000680B7EB3747C14BCBA6802D322C3227FF4
:109B9000200B2A100B1A001B2A001B1A1022CA3B8A
:109BA0006CFF6CEE7EB3747CF52B7ED3747DE47A0F
:109BB000B37D757EB32426B401028002819C6CCCF7
:109BC000818A7E7002AC7C12977F7527037528030B
:109BD0007E737230BE70042806752702752802E570
:109BE00029BEB001280EE52B0A2B1B25E5290A3BCF
:109BF000BD324803752702E52ABEB001280C0A2DA4
:109C00001B25E52A0A3BBD324803752802C200E540
:109C1000297E712A7C6C129D04BEB0FF68067527F0
:109C2000027528027CBC7E0800277E180028129C42
:109C3000A27EB37230B40219E52ABEB000280C0A25
:109C40002D1B24E52A0A3BBD3248067527007528DE
:109C5000007CBC7C7E7E61277E5128129DA77E7091
:109C60000DAC7E095370B0BC5F28027CF590216773
:109C7000E493B401117D132E1470AA6D002E34707C
:109C8000AC6D22129B8F0BE00BC07E737230BC7CDC
:109C9000280261C27AE372307AF37D75DA3B2202E0
:109CA0009B9ECA69CAF87CAB7EF372467E93723083
:109CB0007ED002ACDA0986702E4CFF6842BEF001FD
:109CC0007805BE90026838740DA409A570B0BE90E6
:109CD00001781ABEA00A2827BE800228227EB3740B
:109CE0007C0AEB1BE50AF8BDFE5814800ABE900200
:109CF000780DBEA014280874047A0BB07A1BB0DA71
:109D0000F8DA6922CA797C5B7E40FF7EA0FF6C3363
:109D1000A198BC637802A1967E9002AC930924704E
:109D20002E0AF20A059D0FBE040000080C0AE20A82
:109D3000F59DFE7D7F7C2F80086E04FFFF0B047C69
:109D4000217E1002AC1309B0702F0A0B0A479D4008
:109D5000BE44000008080AFB0A079D0F80046D003E
:109D60009D04BE2001380ABE100138057EA0018086
:109D700031BE2002380ABE100238057E4002801033
:109D800030000DBE20033808BE100338037E4003A8
:109D9000BC4A50027CA40B307E037230BC03280204
:109DA000A1127CBADA7922CA3B7CD57CC67CF77CCE
:109DB000EB9F447F547A4F6834753A007548007EB3
:109DC00037746A7A35496CAA12A77612A7807CBECE
:109DD00012999B12A75F7A35497E37746ABE35495E
:109DE00008037A354912A62528067EC0067ED006CD
:109DF000BEC0063805BED00628067EC0067ED00648
:109E00007E0866DA7E340152E41223BF7402ACBECF
:109E10000955702E7A512C0975702F7A712D7E4359
:109E2000747B7CB5ACB40AC72DC50A1C0A357D030A
:109E30009D017C517A512EBE50004804E52E8001D0
:109E4000E4F52E2D317C577A512F7E73747A0A37C0
:109E50001B341A15BD131804E52F80027CB7F52FAB
:109E60000A1DE52D0A3B7D039D017C517A5130BED0
:109E700050004804E5308001E4F5302D317C577AFC
:109E800051310A341B341A25BD231804E5318002F0
:109E90007CB7F5317D3C3E34491304000B147E241D
:109EA00000067D311221FF7D039F117A1F68387AE9
:109EB000353575340012A6252878126E5DE52E1A08
:109EC0003BAD327DC3E52E1A3B8048E5301A2B802E
:109ED0002C7D2C2E25323E2449D20400BDD00818FA
:109EE000BDD158147D2D7DFD1A241AE47E2F6838CB
:109EF0002F277A2F683805347E25320B247A2532B5
:109F0000E5311A2BBE253258C87E53747B0A252DA5
:109F1000C20B34E52F1A2BBD2358B0E534BEB00078
:109F20002810E5340A1B6D007E1F683812224D7A16
:109F30003535E52D7AB3683C852D3B852C3C852D48
:109F40003D12A50A7DDC3ED449DD04007534008055
:109F50002412E9C5080912A55412E86312A4D18598
:109F60003D3B12A591BEB13D481012A50A7DDC3ED5
:109F7000D449DD0400BED53518D7E531BEB13D4822
:109F80000812A51D080312A490E52D0A3B1B347A84
:109F9000713DBE7000483A801912E9C5080912A542
:109FA0005412E86312A4D1E53D7AB3683C12A602CC
:109FB000181012A50A7DDC3ED449DD0400BED5355B
:109FC00018D7E530BEB13D180812A51D080312A42C
:109FD000907EB3683CF53E853B3F12A76E02A1140C
:109FE00012A4E1BED535083E12A5FF080302A072F7
:109FF000801512A544080812A5541A0B12A4B61213
:10A00000A602180E12A57F12A51412A501BED53501
:10A0100018E0E530BEB13D180812A51D080312A4D2
:10A020009012A5E8804C12A50A12A50112A54708B6
:10A030000812A5541A0B12A4B612A58AF53DE53BE9
:10A04000BEB13D4821801412A51D080312A4901230
:10A05000A58AF53DE53BBEB13D480B12A50A12A508
:10A0600001BED53508E1E53BBEB13D5802212612BF
:10A07000A5B1853B417A813D803012A59C12A51681
:10A0800012A5F308107E900112A537080312A490C0
:10A09000853D41801312A50A12A50112A5470808A3
:10A0A00012A5541A0B12A4B6053DE53BBEB13D58AE
:10A0B000C912A57D12A5C212A4FFBED535084E1245
:10A0C000A591BEB13D4849801B12A547080812A5BD
:10A0D000541A0B12A4B6853D3B12A591BEB13D4862
:10A0E0000E12A57F12A51412A501BED53518DAE50A
:10A0F00031BEB13B481A12A59C12A5CB12A52F0860
:10A100000F12A610197166DB12A4A4800385413BCF
:10A11000E53C1A5B1B54F53C4C99680AE52EBEB130
:10A120003C1803029FE012A76E0B54F53CE53E7A03
:10A13000B3683C853F3B416F12A4E1BED535083D75
:10A1400012A5FF080221C9801512A544080812A50E
:10A15000541A0B12A4B612A602180E12A57F12A54D
:10A160001412A501BED53518E0E530BEB13D180882
:10A1700012A51D080312A49012A5E8804C12A50A8E
:10A1800012A50112A547080812A5541A0B12A4B66D
:10A1900012A58AF53DE53BBEB13D4821801412A5CC
:10A1A0001D080312A49012A58AF53DE53BBEB13D02
:10A1B000480B12A50A12A501BED53548E1E53BBE04
:10A1C000B13D5802417C12A5B1853B417A813D8069
:10A1D0003012A59C12A51612A5F308107E9001124C
:10A1E000A537080312A490853D41801312A50A12D9
:10A1F000A50112A547080812A5541A0B12A4B6050A
:10A200003DE53BBEB13D58C912A57D12A5C212A4C1
:10A21000FFBED535084E12A591BEB13D4849801B01
:10A2200012A547080812A5541A0B12A4B6853D3B87
:10A2300012A591BEB13D480E12A57F12A51412A51C
:10A2400001BED53518DAE531BEB13B481A12A59CDE
:10A2500012A5CB12A52F080F12A610197166DB12DA
:10A26000A4A4800385413BE53C1A5B0B54F53C4CB0
:10A27000996809E52FBEB13C480221387537006165
:10A28000477E71377402AC7B09B366DAF53809731F
:10A2900066DB7A71391231587E5374550A257DD3A5
:10A2A0009DD2BED5494802054812A625380261450F
:10A2B000E52C0A1BE53812A5DD08049D3180046DEC
:10A2C000339D32BE3400011819E52D0A1BE5391201
:10A2D000A5DD08049D3180046D339D32BE3400013C
:10A2E0000863BEC0034009BED0034004D200800210
:10A2F000C200E5387E71397C6E129D04F53ABEB01D
:10A30000026805E53AB403020ED4E53ABEB002682D
:10A310000CE53ABEB0016805E53AB403287D3D7D01
:10A32000FD1A361AE6E53812A5B99F41E53912A59E
:10A33000B97F017E1F68349F107A1F68347D3D1AF3
:10A34000261A249F510537E534BEB13728024181D2
:10A35000BE58000078047E58000174067E1F6834E1
:10A360002F111478FB7A1F683474062F441478FB7D
:10A370007E1F68347F0512224D7A3768307F147F44
:10A380000512224D7A37683212A5D4593570AA7E4B
:10A3900037683012A5D4593570AC7EA14812A78019
:10A3A0007E700DAC7F095370B0BE502D2806742D01
:10A3B00019B370B07CBE12999B7A3546BE3400004A
:10A3C00018077E3400017A35466D337A3532E52D33
:10A3D000600C7EA3747D7CBA14BEB12D780512A5E5
:10A3E000A98015E52DBEB00168097CBA24FEBEB176
:10A3F0002D78087E35320B367A3532E52C6008121E
:10A40000A766BEB12C780512A5A98015E52CBEB0B3
:10A410000168097CBA24FEBEB12C78087E35320B67
:10A42000367A35327E35321A261A247E3374690A1A
:10A43000136D009F017F1512224D7A1D427E5546F5
:10A440001A4A1A48BF1228037A2D427E14007F7ED2
:10A450001D421222427F0212224D7CA712A776745F
:10A4600002ACBE09A5702E7E700DAC7F19A370B131
:10A470007402ACBE09A5702F7E700DAC7F19A3705D
:10A48000B2740DACBF59B570B559A570B3DA3B22A3
:10A490007EA13C7E31347402AC3B19A166DAE53D05
:10A4A00019B166DB05347D3D1A261A242F51E53D8E
:10A4B0001A1B7A17682C7A07682E1A021A001222C1
:10A4C000317F017E1F68342F107A1F68347E176831
:10A4D0002E1A021A007D3D1A261A241222312F410B
:10A4E000226C997EA3683C7AA13D7AA1407C8A7E49
:10A4F000B3747B0A2BE53C1A3B7D13AD121ACA2DAF
:10A50000C17D5C3E5449D50400227E73747B0A27CA
:10A51000E53C1A3BAD32E53D1ACB2DC3227E737468
:10A520007B0A37E53C1A0BAD30E53D1ACB2DC37DD8
:10A530001C3E1449D104007E7374550A179DD1BE88
:10A54000D4000022853D407E7374550A579DD5BEC8
:10A55000D40000227EA13C7E71347402AC7B19A32E
:10A5600066DAE53D19B366DB05347D3D1A261A240B
:10A570002F51E53D1A1B7A17682CE53C22153D7ECC
:10A5800073747B0A27E53C1A3B22E53D1A5B0B54AA
:10A5900022E53D1A5B0B54F53DE531227E73747B59
:10A5A0000A37E53C1A0BAD30227E35322E340006D8
:10A5B000227E813D7A83683C220A1B6D007F170250
:10A5C00022317D13AD12E53D1ACB22E53B1ACB2D8E
:10A5D000C30BC4222E340020740DACBF220A3B7D75
:10A5E000239D21BE240000227E83683CE5407AB38F
:10A5F000683C227D1C3E1449D10400BED535227E24
:10A600009001E53D1A5B1B54F53DE530BEB13D229E
:10A610007EA13C7E31347402AC3B19A166DAE53B85
:10A620001A3B0B34227E737230BE700122CA3B7516
:10A6300029FF6CFF7EC0FF6CEE6C996C887EF47F06
:10A64000FF6CDD80687E7002AC7D09B3702EF5274B
:10A650000973702F7A71281231587D03BD0F58028B
:10A660007DF0E527BEB1295003852729E527BCBF2A
:10A6700028037EF127E528BCBC50037EC128E528CD
:10A68000BCBE28037EE128E5290A5B0A1F9D15BE92
:10A69000140007180C0A5C0A1E9D15BE140007085A
:10A6A0000A7E1401F47A177AD9E14A0BD07E7372CC
:10A6B00030BC7D38907D3F3E3412A75F7D037CDC4B
:10A6C000801C7EC12980117CBC7C7D123158BD303C
:10A6D00008020B900B800BC0BCFC50EB0BD0BCED08
:10A6E00050E07E737447BE7003400D12A74D502892
:10A6F0000B147A177AD98020BE7001381B7E177A26
:10A70000D9BE14000228061B157A177AD912A7564B
:10A7100050060B147A177A5B12A625402D7E300264
:10A72000AC387403ACB9BD51080F6D117A177AD9E2
:10A7300012A75650150B14800D12A74D50060B157D
:10A740007A177AD96D117A177A5BDA3B227E177AFB
:10A75000D9BE1403E8227E177A5BBE1401F4227E70
:10A760002400030221FF7EA3747C7CBA14227E9015
:10A7700001E52C0A5B227E700DAC7F19A370AF221D
:10A780007E700DAC7F19A370B022CAF87EB37446F8
:10A790007017E47AB3744F1278AB281F74017AB340
:10A7A000744BE47AB3744E801274017AB3744F7EA2
:10A7B000B37447700674017AB3744A128F7DCA5914
:10A7C0007E1872667E0872E812239A1BFD901BBAEF
:10A7D000E493BEB000380302A8946CFF8024740D8B
:10A7E000ACBF4935726612734A740DACBF593572ED
:10A7F000E84935726812A89F740DACBF593572EAEA
:10A800000BF012A89738D77EA37446BEA001780932
:10A810007EB37447B40102800BBEA00178167EB3EC
:10A82000744770107E3772E87A377D567E3772EA49
:10A830007A377D58BEA00178187EB3744770127EB7
:10A840003772E87A377D517E3772EA7A377D5380E6
:10A8500043BEA001782B7EB37447B401247E3772C7
:10A86000EA9E377D531223E17D137E3772E89E37CF
:10A870007D511223E12D31BE3400960817740180FA
:10A880000F4CAA780F6D337A377D517A377D53E4B8
:10A890007AB37D55DAF8229020DFE493BCBF227DA5
:10A8A000139F117EF4216A127FF112A9B20B7AF084
:10A8B0007ED4217C7EC400FF0B6AE0901BBAE49337
:10A8C00070037D3122902167E493B401067E837486
:10A8D0007C80047E83747D1277B5BE14003F3821DE
:10A8E0007E24003F9D217E142180127FB0AD326D09
:10A8F0002212A99612A99D48027F109F017F102164
:10A900008B7D549E54003FBD5138357D549E54007C
:10A910001FBD5140767D349E3400407D219D237EB5
:10A92000142182127FB0AD326D2212A99690217F40
:10A9300012A9A048047F101B1C12A9A92F10804B3C
:10A940007D501B54BD5140197D309D316D227E14C8
:10A95000218412A98C7D1E1B146D009F017F108025
:10A96000137D319D306D227E14218612A98C7D1EAF
:10A970006D002F1012A99D58047F10800E90217F2A
:10A98000E49312A9A9BF1008027F10227E0400FFE1
:10A990000B0A101222427C767C651A242290217EBA
:10A9A000E4930A1B6D00BF10220A0B7D1F9D106DE2
:10A9B00000227EF4217A7EE400FF22CA3B6D337AC6
:10A9C00035287A352A7E5374467A5141BE50002884
:10A9D0001A7E2766CE0B247A2766CEBE2400642812
:10A9E0000E7E2400647A2766CE80047A3766CE7E97
:10A9F000B37B80B40104740380077EB3667D600579
:10AA0000147AB3667D7EB3744D600302B29D7E37C7
:10AA10005D10BE3729F228127E54FFFF9E575D104D
:10AA20002E5729F20B54F540800A7E5729F29E5783
:10AA30005D10F5407E3729F27A375D10C2267E34EC
:10AA400072667A352CE54160067EB3744770396CC6
:10AA5000FF6CAA802E0A4F19A46669E419B46673C4
:10AA60006D337E5002AC5F593266A6593266BA7EAB
:10AA700070FF7E500DAC5F197260EB740119B46603
:10AA8000D00BF012A89738CDC2257EB35F91600637
:10AA90007EB3746D600712B81B5002D2256CFF02A2
:10AAA000B17E7E700DAC7F09E3726A5EE00F12B773
:10AAB00062380302B17C7E9009AC9E09A473ECBE9F
:10AAC000A001780302B1597E5002AC5E7D022E04D3
:10AAD00066A60B08100B141B08104CAA781A4943E1
:10AAE00072667404ACBE5945667E49337268593546
:10AAF00066806D33593266BA6CDD02B14F7E100D3F
:10AB0000AC1D09C060EBBCCE680302B14D7E707312
:10AB1000AC7C2E3461EB6D227A1D3412E96649104B
:10AB200060E7490060E912B8B77A352812E966741F
:10AB300004ACBC4915667E4905668012B8B77A3503
:10AB4000327402ACBC7D352E3466BA0B38402E45CB
:10AB5000281B3840494566BABE440FA028087E34F9
:10AB60000FA0593566BAE5407AB367697E700DACBF
:10AB70007F2E352C097300067A73676B7E35287A31
:10AB80003767727E35327A3767747E700DAC7F2EF0
:10AB9000352C0B38307A3767767E700DAC7F2E35CA
:10ABA0002C493300027A3767787402ACBC493566A9
:10ABB000A67A37677A7402ACBC493566BA7A3767C9
:10ABC0007E740DACBD492560E77E3767769D327A8D
:10ABD00037676E740DACBD492560E97E3767789D97
:10ABE000327A37677012B48FBEA000281E7E340000
:10ABF00017CA3912EAA72D352E34FFE97E0867807F
:10AC000012239A1BFD7E37678980097E08678012B0
:10AC1000EAFF6D337A352A12B48FBEA002401A7E45
:10AC2000340017CA3912EAA72D352E34FFD27E0818
:10AC3000679712239A1BFD80077E08679712EAFF29
:10AC40006D337A352E75270080147EA12712EAA76E
:10AC50002D35693100092E352E7A352E05270A3C0F
:10AC600009736669BE712738E1BE7000280A0A2799
:10AC70007E352E8D327A352E7E352E7A37677CC220
:10AC800000C2011297780A3C09B366D06002A1CBDA
:10AC90007E71407408AC7B2E340014BE352A5007F8
:10ACA000BE35285002D2267EA367807405A4BE5705
:10ACB000678950197EA367977405A4BE5767A05093
:10ACC0000C7E376793BE3400142802D201A201E43F
:10ACD000337AB3676C7E7140741EAC7B2E352ABE0E
:10ACE00035285004D203800E7E352A2E340040BE13
:10ACF00035285002D204300306D202746480143026
:10AD0000040F300106C202740A8008D20274C8809F
:10AD10000274147AB3676A200202A1B77E37677C97
:10AD2000BE34000A3802A1B77E376793BE34000AEA
:10AD30003802A1B77E3767AABE34000A28797E3769
:10AD400067852E37678D7A353ABE34000058056D19
:10AD5000337A353A7E3767872E37678F7A353CBE30
:10AD600034000058056D337A353C7E3767767E2790
:10AD700067787E153A7E053C12B8B77A353A7E3749
:10AD80006795BE340FA0400A7E2767937E34000F7C
:10AD9000801312EB6C7E27679328067E34000980AF
:10ADA000047E340006AD327A3530BE353A2808C20A
:10ADB0000274287AB3676A30250CC202E412B2A288
:10ADC000746E7AB3676A12EB7480190A3C2E34668B
:10ADD000D012EB7C12EB7474787AB3676AD202E417
:10ADE0007AB3676CA202E4337AB3676D0A3C09A3B5
:10ADF00066734CAA781C7E353EBE3528400302B0EF
:10AE00003420020302B03474010A4C19B466730290
:10AE1000B034BEA001680302B0167E0767AABE0464
:10AE2000000350307E176789BE14005050267E17ED
:10AE3000677ABE140014501C7E1767A2BE14001E51
:10AE400050127E17678BBE14005050087E152A7A68
:10AE50001530E13D7E17677ABE14000A50137E1745
:10AE60006793BE14000828097E73676BBE700F409D
:10AE7000157E176793BE14000F2842BE04000F28EA
:10AE80003C12EB6C50377EA367800A2A7E352A8DF0
:10AE9000327D231E2412B778BE34007828077E0442
:10AEA00000787A0530BEA00A3802E13D7E0530BE4A
:10AEB0000400504002E13D7E04005080087EB367EC
:10AEC0009A60076D007A053080737E7367800A2769
:10AED0007E37678912B7747EA367827402A47E737B
:10AEE000676B0A27BD250831BE14001E502B7E63F8
:10AEF00067990A0612CEB308049D2080046D229D36
:10AF000021BE24000508127E2530BE2400C8502D25
:10AF10007E2400C87A25308024BE700F280F7E352D
:10AF200030BE3400C828167E3400C8800D7E35300F
:10AF3000BE34007828077E3400787A35307E35308C
:10AF4000BE35282842D2007E37677ABE34000850CA
:10AF50001112EAF6280C74020A2C19B26673C200A8
:10AF6000E1E27E2767A2BE240064287612EAF62872
:10AF700071BE340014506B7E73676BBE70145062E8
:10AF800012B2A0C200805B7E353EBE35285008302C
:10AF90000205740312B2A27E37677ABE34001E50D7
:10AFA000417E735D29BE7002281D7EB367837017D2
:10AFB00012EAED50127E3767767E27677812C069F5
:10AFC000502012B2A0801B12EAED50167E37677433
:10AFD000BE34001E500C7E3766CEBE340078500260
:10AFE000D20012B2A9B401247E3767767E27677833
:10AFF0007E1767A47E0767A612B8B7BE34003C5020
:10B000002FC200E40A3C19B36669802412B2A9B4C5
:10B0100003227401801B12B2A9B402187E736797D1
:10B020000A277E3767A012B774BE35282802D200DF
:10B03000E412B2A27EA1407464A47A5538BE5402D0
:10B0400080280D7EB3667D70077E3402807A3538A5
:10B050007E3538BE3528500C7E37677ABE34000204
:10B060002802D20020000201E7E412B2A212B2C10B
:10B070007008740319B373EC8025740119B373EC71
:10B080007527008015128F880953736EBC5E78088F
:10B0900074FF19B3736E800705271289FC38E67EAA
:10B0A000A0037E7009AC7C19A373EDE541BEB0002E
:10B0B000283515417E700DAC7F2E3472667E146685
:10B0C000DA740D1222D27E7141740DAC7B2E347273
:10B0D00066129B4A12B75A7E3141740DAC3B2E1456
:10B0E00072661222D21BF00A3C09B36669B4053DB0
:10B0F00075270080197E340017CA397EA12712B245
:10B10000B87F102E34001712239A1BFD0527E52760
:10B11000BEB00440E07E340017CA397E1867697EED
:10B120000D342E14005C12239A1BFD804F7E3400D8
:10B1300017CA3912B48F12B2B87E18676912239AEF
:10B140001BFD0A3C2E34666912B496802F0BD01278
:10B15000B2B0280302AAFD802312B2CB6D22740282
:10B16000ACBE592566A6592566BA7EA0FF7E500D55
:10B17000AC5E19A260EB740119B366D00BF0E54127
:10B18000BCBF280302AAA2128F7DCA597E1872661C
:10B190007E0866E712239A1BFD6CFF4125740DACF7
:10B1A000BF09E5726A0A3E09736673BE70002873B0
:10B1B0006CDD806A0A4E09A46673BEA001782E7EFB
:10B1C000700DAC7D09B360EBBCBE7850493360E7CD
:10B1D0007E500DAC5F593272667E700DAC7D493386
:10B1E00060E97E500DAC5F593272688036BEA002B5
:10B1F000782A740DACBD0975616DBC7E781E493529
:10B200006169740DACBF59357266740DACBD4935BA
:10B21000616B740DACBF5935726880070BD012B2E8
:10B22000B038910BF0E541BCBF2802219D128F7D03
:10B23000CA597E1860E77E08616912239A1BFD12C5
:10B240008F7DCA597E1866E77E0860E712239A1B35
:10B25000FD6CFF80387E500DAC5F09E260EB12B7E9
:10B2600062282812B2C1BEB0016803B4031D12B235
:10B27000CB6D117402ACBE591566A6591566BA7429
:10B28000FF19B260EB740119B366D00BF012A897E6
:10B2900038C3E5417AB37446E47AB360C8DA3B2236
:10B2A00074020A3C19B36673220A3C09B36673221E
:10B2B0009020DFE493BCBD227417A47E0D342D15BD
:10B2C000227E7009AC7E09B373EC22E40A3E19B306
:10B2D000666919B3667322CA3B7CFB6CEE616C6CC9
:10B2E000DD8016740DACBD0965736E740DACBE09BE
:10B2F00075726ABC6768070BD012B2B038E512B23B
:10B30000B0286F7E500DAC5D09C2736E4942736CFC
:10B31000740DACBE49A572687D3A9D34BE34000000
:10B3200008049DA480046DAA9DA34942736A49B58F
:10B3300072667D3B9D34BE34000008049DB48004D9
:10B340006DBB9DB32DBA7409ACBC09B573ECB401E7
:10B350000E6DAA7402ACBC59A55D1259A560C97DD9
:10B360003B7CBD7C5E7C4C12B3750BE0BCFE2802BE
:10B3700041DFDA3B2202B378CAD8CA797CD47CE5B3
:10B380007CFB7DF37ED4FFFC7E077466BD0338062C
:10B390007E14010080196D227C567C676C777D10CD
:10B3A00012224B7D13BE14001050047E1400107442
:10B3B00002ACBD490560C9BD0F280649155D128064
:10B3C0000459155D1259F560C9BE14010028047EA8
:10B3D0001401007E737446BE700528041E141E14EA
:10B3E000BE14010028047E1401007E900DAC9F491C
:10B3F00004736A740DACBE49E572667DCE9DC0BE15
:10B40000C4000008067DFE9DF080046DFF9DFC7D5C
:10B4100031AD3F1276397DF35DFDBDE0740D280C32
:10B4200012B4867DC02DCF1BE8C0800812B4869D63
:10B430000F1BE8007E500DAC5F4932736C740DAC8D
:10B44000BE49E572687D0E9D03BE04000008067DBE
:10B45000FE9DF380046DFF9DF0AD1F7C327C210AC0
:10B46000007DF15DFDBDE3280F7D022E04736C7D30
:10B47000132D1F1B081080092E24736C9D3F1B2861
:10B4800030DA79DAD822ACBF7DE52EE4736A220A7D
:10B490003C09A36669227E39B0047A39B0227CA7C0
:10B4A0007C3B7EB37BABBEB0017802A196E51E70FB
:10B4B00002A1967EB378E97002A19612B7847CB39C
:10B4C0007C7A12B63E12B7BB7EB379D21BB168202C
:10B4D000046802A1967E7379CF7A7379D0E47AB347
:10B4E00079D16CAA12B798BEA00378F87402A19221
:10B4F0007E4379D07E5026AC457D322E3479D412ED
:10B50000B496097279D4BE70025002A196E419B2C1
:10B5100079D4491279D52E177A4DBE147FFF500B7E
:10B520007D322E3479D51B381080087E347FFF5948
:10B530003279D5493279D7BE377A4D50087E377A7D
:10B540004D593279D77E377A5112B7390A4B7EA3DB
:10B5500079D07E5026AC5A2E2479D90B28302D3440
:10B560001B2830BEA00250057CBA048001E47AB3E7
:10B5700079D012B76A381F12B597BEB0FF68123083
:10B58000180F7E7379CF123F5C1243D7E47AB37AF7
:10B5900045E47AB379D2226C777EA0FF7E78FFFFF4
:10B5A0006D446C667E1400017CB660053E14147810
:10B5B000FB7EB379CC0A2B5D21BE240000080D7EF2
:10B5C00024FFFF7E3026AC36592179D512B6346D72
:10B5D00000BF0750087F70494279D77C760B60A581
:10B5E000BE03C17E6379CFBC67684612B6347DC1A5
:10B5F0001EC41EC47ED40003ADDC6DCCBF76500FDC
:10B600007ED421BA7EC400FF0B6A00BD0438201E20
:10B61000146D00BF70501A7E5026AC56491279D76F
:10B620007EF421BA7EE400FF0B7A20BD1228027C52
:10B63000A77CBA227E5026AC56491279D5226C449A
:10B64000C2017E477A517E077A531297E54004D2B1
:10B65000018006A5BF0102D2017EB379D26002C18A
:10B66000ED7EB37A5A047AB37A5A7D3412B739BE72
:10B67000B00140084E4004E47AB37A5ABE44000058
:10B6800028107E1779CDBD1050084E4002E47AB3E1
:10B690007A5A7E1779CDBD1050177EB37A59047A45
:10B6A000B37A59BE040BB828167EB37A590BB28010
:10B6B0000A7EB37A59BEB0002805147AB37A597E4F
:10B6C000537A59BE500A4011E47AB37A597A437AD0
:10B6D0004574017AB379D280147E737A5ABE702091
:10B6E000400B74207AB37A5AE47AB37A457D347D7C
:10B6F0002002B6F47D0212B7397C7BBE7001401D7A
:10B700007E3421C07E2400FF0B1A207E34000AAD57
:10B71000321E34BD30380674017AB37A587EB37A5B
:10B7200058BEB000280A147AB37A58E47AB32426B3
:10B73000301703D21922C219226CAA6C557E14004C
:10B74000017CB560053E141478FB5D1368020BA004
:10B750000B50BE501040E67CBA221222D27E3466D4
:10B76000DA229020DFE493BCBE229021C2E493BE93
:10B77000B379D1228D327D231E24E5400A3BAD32C0
:10B780007A3530227E3421C01229267A3779CD7E4F
:10B790003405DC7A377A49226D337E9026AC9A598B
:10B7A0003479D5593479D7593479D9593479DB5921
:10B7B0003479DDE419B479D40BA022C216D2187EF4
:10B7C000377A49BE377A535002D216302604746451
:10B7D00080077EB37A4B6005147AB37A4B30160536
:10B7E000E47AB37A4B7EB37A4B6002C218227EA30E
:10B7F0007447BEA0003823BEA3744650187EB374AD
:10B8000050BEB360DF28137EB360DF047AB360DF1D
:10B810007AA3744622E47AB360DF227E737447BE53
:10B82000737446787D7EB37446B401767EB360E06F
:10B83000BEB0023813047AB360E07E3772667A379E
:10B8400060E37E37726880697E3760E1BE3406A4AB
:10B85000504E7E2772667D129E1760E3BE14000074
:10B8600008087D329E3760E380046D339D312E37AA
:10B8700060E17A3760E17E3772687D039E0760E59C
:10B88000BE04000008087D139E1760E580046D115A
:10B890009D102E1760E17A1760E17A2760E380112E
:10B8A000D322E47AB360E06D337A3760E17A3760AF
:10B8B000E37A3760E5C322CA3BBD1350087D739D10
:10B8C000716D6680067D719D736D66BD0250087D49
:10B8D000929D906D8880067D909D926D887F137FEC
:10B8E000031222317F317F147F041222317F417F86
:10B8F000132F1412B8F9DA3B227F61BE680006509C
:10B9000015BE68000250037F16227F161E341E24C7
:10B9100050034E6080227F76E4800E7F171E340E27
:10B920002450034E60807F7104BE78000118EC1E25
:10B93000B060052F771478FB7F172F172F171E3451
:10B940000E2450034E60807F717F577F167F071251
:10B95000224D2F171E341E2450034E60807F717DB0
:10B960002B7D3F9D321223E1BE34000118DB7F178F
:10B97000227F707C9B7EA0147E301FAC3919A15FA2
:10B9800092E419B15F9319B15F94740119B15F9595
:10B99000E419B15F9619B15F972977000519715FB6
:10B9A000982977000619715F9919B15F9A7E047F13
:10B9B000FF59015F9B0B7A3059315F9D6907000287
:10B9C00059015F9F59315FA159015FA359315FA5AB
:10B9D00059015FA77E047FFF59015FA959015FAB41
:10B9E0006937000B6927000959315FAF59215FADF5
:10B9F00022CA3B7EB37453F5297E6873EC7E58727D
:10BA00006674147AB366E4740A7AB366E57E8400D9
:10BA1000647A8531901BD3E4937CAB7440A47D950C
:10BA20001B947D399E3400647A35337A8535901BBA
:10BA3000D4E4937CFB7440ACFB1B747D879E840034
:10BA4000647A85377E8400207A85399E9400209E12
:10BA50007400206CDD02C0527E500DAC5D7F752DF0
:10BA6000F229C70004BEC00A400302C0500B7A305E
:10BA7000BE35392804BD3940057527018003752777
:10BA80000069370002BD382804BD3740057528011C
:10BA900080037528007409ACBC7F062D157E0BB0A1
:10BAA000B40202800302C035741FACBC49055F9D1F
:10BAB0000B7A107D319D307A3766DE49555F9F7F66
:10BAC000752DF2692700027D029D057A0766E0BEAA
:10BAD00034000008067E3766DE80066D339E3766CA
:10BAE000DE7A3766DA7E3766E0BE34000008067E0E
:10BAF0003766E080066D339E3766E07A3766DC7421
:10BB00001FACBC49055FA37D329D30BE34000008E8
:10BB1000049D2080046D229D23741FACBC49055FE9
:10BB2000A112CEB5080F740DACBD2D5B7D4A0B2A5A
:10BB3000309D3080046D339D312D327A3766E2744A
:10BB40000DACBD7F152D3529B10005F52B740DAC5D
:10BB5000BD7F152D3529B10006F52C740DACBD7FC8
:10BB6000052D156930000B692000097A1D2D12EA98
:10BB7000E4BE712B500C7EA12B7E701FAC7C19A3F0
:10BB80005F9812EADBBE712C500C7EA12C7E701FD8
:10BB9000AC7C19A35F99741FACBC09A55F93BEA0D0
:10BBA000FA500F7E701FAC7C2E345F937CBA047AFF
:10BBB00039B0752A00E529BEB00840117E3766E22B
:10BBC000BE3400505033752A1E8036802CE529BEC5
:10BBD000B00540147E3766E2BE34003C5005752A3D
:10BBE00014801E752A0A8019E529BEB00340127E12
:10BBF0003766E2BE3400325005752A0F8003752A7D
:10BC000007741FACBC09B55F966002A13E741FACFF
:10BC1000BC09755F93BE7012400281DB741FACBC1F
:10BC200009455F927E5003AC457E712B7402AC7B5C
:10BC3000BD23580EE52BBEB028280712A75F7CA7AE
:10BC4000800B12EAE4BE701950067EA00A12E95C6D
:10BC5000E52BBEB050500E7E701FAC7C2E345F9A28
:10BC600012B496800B6CAA7E701FAC7C19A35F9AED
:10BC7000741FACBC09A55F98BEA0503802A1267EF7
:10BC8000701FAC7C09B35F9ABEB0034002A1260AC4
:10BC90002AE52B0A3B2E340014BD32480F12EADB92
:10BCA0000A477EA12C7402A4BD54587A12E99E5012
:10BCB000086D337A3766DA80107E3766DA1E341EF6
:10BCC000347A3766DA1E341E347A3766DC7EA00298
:10BCD0007E701FAC7C19A35F97804BE52BBEB064D0
:10BCE00028117E3766E2BE34006450207EA03C807E
:10BCF000168019E52BBEB05028207E3766E2BE3490
:10BD0000004650087EA03212E95C801A7E347FFF24
:10BD1000741FACBC59355FA1800C12EAD2BEA36679
:10BD2000E4280312E91B7E3766DC2E3766DABE3460
:10BD30000004500A6D337A3766DA7A3766DC12EA25
:10BD400023BE3531401812EA23BE3533381012E9CC
:10BD5000B8BE3535400812E9B8BE35372804D200E0
:10BD60008002C2007E4400037E7D2D7F177D141269
:10BD7000224212E991BF105805752A64806C7F0732
:10BD80002F0012E9ABBF015802803212E9AB7D14DB
:10BD90001222427F017E1D2D2F112F11BF1058221C
:10BDA000752A0A12E99E5042741FACBC49355F9B4C
:10BDB000BE34001E5034E52BBEB050282D752A32FB
:10BDC0008028741FACBC09B55F96601E12EAD2BE13
:10BDD000A00A280E7E700A7E501FAC5C19725F921A
:10BDE0008008BEA002280312E91B300014741FACA7
:10BDF000BC09B55F96B40109752A007EA00112E95D
:10BE00005C12E9917E1D2D2F107E08000212229EE9
:10BE1000741FACBC59355FAF59255FAD7E3766DC0A
:10BE20007D232E2766DA741FACBC59255F9B12C098
:10BE30005D741FACBC59255FA5740DACBD7F052D8D
:10BE40001569200002741FACBC59255FA7741FAC94
:10BE5000BC09555F92BE512A500C7EA12A7E501F0C
:10BE6000AC5C19A25F92741FACBC09555F920A25A5
:10BE7000BE2766DA2852BE2766DC284CE527BEB00E
:10BE8000016813741FACBC49255F9D740DACBD7F68
:10BE9000052D151B0A20E528BEB0016814741FACDF
:10BEA000BC49255F9F740DACBD7F052D1579200021
:10BEB000027E501FAC5C09B25F97600302C05074F1
:10BEC0000119B25F9702C050741FACBC09A55F97FF
:10BED0004CAA7802E18AE529B40140BEA002781795
:10BEE0007E2766DABE24003C3808BE34003C3802A7
:10BEF000E18A7EA0048019741FACBC09555F92BE14
:10BF000050283802E18AE52BBEB050287D7EA0087B
:10BF10007E501FAC5C19A25F95806F7E2766DABEEB
:10BF200024003B3806BE34003B280A7EA00812E8F5
:10BF3000932857802ABE2400273806BE34002728BD
:10BF40000A7EA00612E89328418014BE2400055002
:10BF500006BE340005401B7EA00412E893282B7E09
:10BF6000301FAC3C2E145F957E19B00BB27A19B01D
:10BF70008018BE2400025006BE340002400C7EA091
:10BF8000037E701FAC7C19A35F95741FACBC09A520
:10BF90005F95BEA001285B7E701FAC7C2E345F9540
:10BFA0007CBA147A39B0741FACBC09755F950A2746
:10BFB0007E3766DE1221FF741FACBC49155F9D2DD4
:10BFC00013740DACBD7F152D351B1A107E301FACC0
:10BFD0003C09715F950A277E3766E01221FF7D23B9
:10BFE00049315F9F2D32740DACBD7F052D15793021
:10BFF00000027EA0017E701FAC7C19A35F96E4193D
:10C00000B35F9712C05D59235F9D692000025923D9
:10C010005F9F09B35F92BEB366E4400A7EA366E504
:10C0200019A35F92802ABEB00128252E345F921496
:10C030007A39B0801B7409ACBC7F162D357E1BB0DD
:10C04000700E7CBC7E700DAC7D7F052D1312B97116
:10C050000BD012B2B0280302BA58DA3B22740DACEE
:10C06000BD7F052D150B0A20226CAA6C33804E7EF5
:10C070009004AC937E1028AC1A7DE02DE4490E5D4F
:10C08000397DF39DF0BEF4000008067D439D40809D
:10C09000046D449D4F49DE5D3B7DF29DFDBEF40085
:10C0A0000008067D029D0D80046D009D0FBE4400BA
:10C0B000505008BE0400505002D3220B300AFA0937
:10C0C0002F5D2ABC2338A80BA0BEA00F409DC32221
:10C0D0001237D67402AC7B7E0860C9E41223BF908D
:10C0E00020DF937C7B7402AC7B7E085D12E402232C
:10C0F000BF7EB360C8BEB0FA5005047AB360C822F0
:10C100006CAA80637E500DAC5A4932736A122AF0D1
:10C11000593272667E500DAC5A4932736C122AF055
:10C12000593272687E900DAC9A09B4736E19B4726C
:10C130006A7E900DAC9A09B4736F19B4726B7E90DD
:10C140000DAC9A09B4737019B4726C7E900DAC9AF0
:10C1500009B4737119B4726D7E900DAC9A09B47301
:10C160007219B4726E0BA012551438982212C2D3F1
:10C1700012C2DD12C18002C17974017AB37D7B22C3
:10C18000CA3B7EF3747B7EE3747C7ED3747D6D88C2
:10C190006CCC80157D183E142E1404006D007CBDFF
:10C1A00012C1B00A9F2D890BC0BCEC38E7DA3B22E4
:10C1B000CA797CFB7F70C2007527009F556D117D89
:10C1C000D17DC17D917E047FFF6CEE80267402AC30
:10C1D000BE7F172D350B1A301223E17DC3BDDC580D
:10C1E000027DDCBD0C08027D0C7D3C1A261A242F32
:10C1F000510BE0BCFE38D6BED4001E580A7EB37286
:10C200004670046D3341C6BED404B00802D200BEED
:10C21000D404B008117ED401047EB37BABB40138E2
:10C220007ED402588032BED4032008117ED400FA96
:10C230007EB37BABB401217ED40226801BBED4002A
:10C240000008117ED400F07EB37BABB4010A7ED42B
:10C2500001C280046D33806EBD0D08053000027D83
:10C26000D00A1F12C2C99F557F276CEE801C0B2A73
:10C27000900B557D391223E17DC3BD1C080A7D3921
:10C280001A261A242F5105270BE0BCFE38E06D1149
:10C29000E527BEB0002807E5270A1B12C2C9BD1D4D
:10C2A00008047D1D800A6D009D0DBD0108027D10F2
:10C2B0006CEE800C0B7A009D011B7A000BF50BE0F5
:10C2C000BCFE38F07D31DA79226D007F1512229E96
:10C2D0007D1322E47AB3725D7AB3725E227E08081F
:10C2E000687E1F22E0127EB87E3778EC7E50047D97
:10C2F000033E047E2F22E02D500B2A1059100868AF
:10C300000B341B5078E922CAF8C200C20112C3D70D
:10C31000780261947EB37BAB707A7EB37230700525
:10C3200012C397806F1232C3920112C4259200305B
:10C3300000137E3421B51229267A377D3374017AB1
:10C34000B37D2F80143001197E3421B51229267A4D
:10C35000377D3374017AB37D3074017AB37D2E80DA
:10C360000312C39712C3FE7EB37D2F60106CFF8053
:10C3700005C202123778127F9538F680147EB37D9D
:10C380003060116CFF8005C202123778127F953839
:10C39000F612C3DFDAF8227E377D33BE3400002880
:10C3A000071B347A377D3322E4124AC27AB37D2EDA
:10C3B0007EB37D35600D7EB37D366007E47AB37D54
:10C3C00036C28602C3C6E47AB37D36740A7AB37D78
:10C3D00037E47AB37D38227EB3746EBEB001227E1C
:10C3E000B37D3560187EB37D3670127EB37D3870B4
:10C3F0000C74017AB37D38740A7AB37D37227EB328
:10C400007D3560207EB37D36701A7EB37D38B401F1
:10C41000137EB37D37147AB37D37700874017AB315
:10C420007D36C286227E63747B7E73747AAC767DA1
:10C43000131E147E2772342E277232BD2138161E29
:10C44000341E347D232E240014BE2772324006BED3
:10C450003772345002D322C3227E3772342E3772A1
:10C4600032BE37724B2802D322C322E47AB3725908
:10C470007AB3725922D2006C9980317402ACB90936
:10C48000057B1A09157B1B12C4F249257ADD7DF361
:10C490009DF2BEF4000008047D1F80046D119D1FF5
:10C4A000BE1772492804C200800A0B907E837B1954
:10C4B000BC8938C720002D6C99801D7402ACB90965
:10C4C00005702E0915702F12C4F259357ADD190541
:10C4D0007B1A19157B1B0B907E737230BC7938DB8D
:10C4E0007A737B197EB372307005E47AB37B19A23C
:10C4F00000227CB07C711231587402ACB9226CAA53
:10C500006C7780337E500DAC574942726649227277
:10C5100068BE440040281E7E63747C12C542BD1470
:10C520002813BE240040280D7E63747D12C542BDD1
:10C530001228020BA00B707E637446BC6738C57C62
:10C54000BA227E3040AC369E140040227C677E0BBF
:10C5500070BC7B381A29700002BC7B28122970003D
:10C5600001BC76380A29700003BC762802D322C3A6
:10C5700022CAD8CA797CDBBED08078177EE0FF6CF7
:10C58000FF12C5C938047CE77CDF0BF0BEF00378EE
:10C59000F08019BED08178146CEE6CFF12C5C940D2
:10C5A000047CE77CDF0BF0BEF00378F0BED00340E4
:10C5B000026CDD7E7379CFBC7D68057CBD123F5C6B
:10C5C0007AD37BD7DA79DAD8227426ACBF097579A9
:10C5D000D3BC7E227C377C2B7EB378E97002C17A93
:10C5E000124F517EB37A57BCBA7802C17AA5BA000D
:10C5F0001B7E9026AC9A49F479EF49E479EDA5BB0E
:10C60000031549F479F749E479F5800B7426A449B8
:10C61000F579F349E579F17E73747B7A7366DB7E95
:10C6200073747A7A7366DAE47AB366DC7AB366DDB9
:10C630006D337A3766E47E1F22E07A3766DE7D3F0F
:10C640007A3766E07E1F22E07A3766E27E0866DA95
:10C650001208737E3778EC6C550A152D133E147F43
:10C66000272D510B2A007E2F22E02D510B2A109DE1
:10C67000101B2A100B50A5BD04DF227CAB7E500A94
:10C68000AC57096279987E5027AC57490278FA0B6B
:10C69000047E5008AC5A492200C97A277A517E504C
:10C6A00008AC5A492200C77A277A4F7E5008AC5A04
:10C6B00009B200CD7AB37A557E5008AC5A09B2005F
:10C6C000CE7AB37A567408A4491500CB7CB66005BF
:10C6D0001E041478FB8D107A177A537427ACB709AF
:10C6E0007578F47A737A4C227CAB6C777E5026ACEA
:10C6F00057096279D3BC6A68070B70BE700340ECBF
:10C70000A5BF03067AA379D3D322C322CA797E6850
:10C7100015A07EB329F1B403047E681E707E737485
:10C720007B7A7367057E73747A7A736704E47AB3ED
:10C7300067067AB367076D337A37670E6CFF7E70D2
:10C7400026AC7F09B379E07002E1D47EB329F1B45D
:10C75000030A49F379F749E379F5800849F379EF5A
:10C7600049E379ED7D3F7A3767087D3D7A37670A7F
:10C770007D3F7A37670C12C7E07EB778EC6CEE0A23
:10C780000E2D0B3E047F162D300B1A107F1712E969
:10C790003C78EC1297E1503112C7E77AA767087E20
:10C7A000A41A087AA7670A12C7E77AA7670C12C704
:10C7B000E06CEE0A0E2D0B3E0449101A087426ACEC
:10C7C000BF12C7F212E93C78EA6CAA7E7026AC7FF1
:10C7D00019A379E00BF0BEF0035002E13EDA7922B2
:10C7E0007E0867040208737426ACBF493579F37D6F
:10C7F000A322493579F3492579F1227CAB6C777E08
:10C80000637A57BC6778046C66802712C847600556
:10C810003E441478FB7E6378EA0A265D2468067E2F
:10C82000600112C83D7E6378EB0A265D2468067EAF
:10C83000600112C83D0B70BE700340C3227E5026BB
:10C84000AC57196279E0227E4400017CBA227E272F
:10C850007A537E3779CDBD3250207EA379D012C86D
:10C860004760053E441478FB7CB94EB379CC7AB36B
:10C8700079CC74050A3A19B37A466CAA0A3A09B314
:10C880007A46BEB000280A0A4A2E447A46147A49EB
:10C89000B00A3A09B37A46701612C84760053E449A
:10C8A0001478FB7CB964FF5EB379CC7AB379CC0B96
:10C8B000A0BEA00340C62212C84EC2177EB379D2D2
:10C8C00060671297E140107EA379D07426A40975A1
:10C8D00079D4BE700140527E7379D00B70BE700364
:10C8E00040026C777E1400017CB760053E1414781A
:10C8F000FB7E6379CC0A265D21BE24000008090B6B
:10C9000070BE700340026C777E6379CFBC67780994
:10C910007EB379D1047AB379D112B76A7EB329F1A3
:10C9200038047C768000023D58227E346FB01E347D
:10C930003E347A176FF07A376FF47E3423347A37C7
:10C940006FF27E73747A7A736FED7E73747B7A7391
:10C950006FEC7E3774587A376FF67E37745A7A37B1
:10C960006FF87E3774627A376FFA7E3774647A377D
:10C970006FFC74017AB36FEE7AB36FEF7E086FECE1
:10C980007E186FFE12031D7E37700A7A3774767E2A
:10C99000277004BE24000008067E07700480066D20
:10C9A000009E0770047E377008BE34000008067EC3
:10C9B00017700880066D119E177008BD100812BE12
:10C9C00034000008057E377008226D339E377008EA
:10C9D00022BE24000008067E37700480066D339E58
:10C9E000377004227EB37D2DB4010302C9EF22CA41
:10C9F0003B7EB37230F5276CCC41B27402ACBC09FB
:10CA0000F5702E09E5702F7E73747ABC7F78024131
:10CA1000B012CB727DD312CB9278026DEE12CB5F47
:10CA200078026DFF4CEE78026D0012CB5778026DE4
:10CA300011BEE4004608020BD0BEF4004608020B0B
:10CA4000D0BE04004608020BD0BE14004608020BFC
:10CA5000D0BED0024004D200802E4CFF68167EB3B8
:10CA6000747C14BCBF680D4CEE68097EB3747D14F1
:10CA7000BCBE7814BED400D2080EBED00028097EF9
:10CA8000B37D2DB40102D2002000257DC37EB37D8D
:10CA90002DB403047D5C800B7EB37D2DB4010E7D2F
:10CAA0005C0E540E540E5412CB671B1A5012CB500E
:10CAB0000BC0E527BCBC280221FB7EB37D2DB4034F
:10CAC000028002614D7EB37231F5276CCC807874A0
:10CAD00002ACBC09F5706A09E5706B7E73747ABCB0
:10CAE0007F686212CB7212CB9278026DEE12CB5F2E
:10CAF00078026DFF4CEE78026D0012CB5778026D14
:10CB000011BEE4FFBA58020BD0BEF4FFBA58020BB4
:10CB1000D0BE04FFBA58020BD0BE14FFBA58020BA5
:10CB2000D0BED0024002D20020001A1223E17DC301
:10CB30007D5C0E540E546E54FFFF0B5412CB671BDA
:10CB40001A5012CB500BC0E527BCBC3882DA3B220E
:10CB5000C2027CBC0237107EB3747B14BCBE227E42
:10CB6000B3747A14BCBF227DB43EB47E1F22E02D84
:10CB70003B226CDDC2007E33747B7C9FAC930A5EEB
:10CB80002D457D243E247E5F22E07F752DF20B7AB9
:10CB900030220A537D149D153E142D1B7D0A0B0A6D
:10CBA000E02D543E547F052D150B0AF07D541B5487
:10CBB0003E547F052D150B0A002DB2691500024C5D
:10CBC000FF227EB37D2DB4030302C9EF227CABBEEE
:10CBD000A0017841122F367E3400967A3774567E43
:10CBE00034008C7A3774587E34FF387A37745A7E22
:10CBF00034012C7A3774627E34FED47A377464122E
:10CC0000CC5068427E3402587A37745C7E340226F7
:10CC10007A37745E22BEA002782C7EB37D2DB403D9
:10CC200013745C7AB374557E34005C12CC477E3446
:10CC3000FFA4800E122F367E34012C12CC477E3496
:10CC4000FED47A37745A227A3774567A3774582257
:10CC50007EB37B5FBEB0AA227EB37230702B7EB3F0
:10CC6000744670256CAA7E70FF7E9004AC9A19748D
:10CC700029AFE419B429B0740719B429B1E419B47F
:10CC800029B20BA0BEA00A78DD22CA797F707E038C
:10CC9000747B7E9372307E6F22E06C116C886CFF27
:10CCA000800D0A1F12CD4EBC7840027C870BF0BC71
:10CCB0009F38EF7EF001A13B7529006DBB6D997D1A
:10CCC000A96CEE803A7E3002AC3E09B1702EF52799
:10CCD00009B1702FF5280A1E12CD4EBC7F781E05B3
:10CCE00029E5270A1B2DA1E5280A1B2D91E5277EA2
:10CCF00071281231587D83BDB858027DB80BE0BC55
:10CD00009E38C2E529BEB000282FE5290A8B7D3A5E
:10CD10008D387DA38D9812CD4619A17A5E7D39128A
:10CD2000CD4619A17A5F0A30AD3A7D132D193E1414
:10CD30007F162D311B1AB00B100BF0BC8F400281F7
:10CD4000B87CB1DA79227CA77E3002AC31227F1721
:10CD50002D317E1B7022CAD8CA79C2007EE003E45E
:10CD60007AB37A9A7ED3744712A62D7EF37230BEC0
:10CD7000F0013802C1207CBE1294614CDD7804C2FF
:10CD800000805FBED001280D7E737ADBBE7006285E
:10CD900004C200804DC2007E537230BC5D78111217
:10CDA000CEBC50057EE00380037EE001D2008032DD
:10CDB0007E437A9B0A340A257D129D130B140A3D8B
:10CDC000BD3178077EE001D20080177E737A5D0A5C
:10CDD000379D230B247E737ADCBD3278057EE041DB
:10CDE000D2003000057CBE1294617E087A9D12CC80
:10CDF0008A7AB37A9A7EA37A9A7AA372307402A45A
:10CE0000CA597E187A5E7E08702E12239A1BFD7E08
:10CE10007372307A737ADC12CE2F7AB37ADB800A9F
:10CE200074647AB37ADB7AF37ADCDA79DAD822CAF4
:10CE30003B7EA0646C7780670A270B247C65805555
:10CE40007EF002ACF609B7702E0A0B7ED002ACD78A
:10CE500009B6702E0A2B12CEB308049D2080046DF3
:10CE6000229D210947702F0A440946702F0A147D1C
:10CE7000019D04BE04000008049D1480046D119DF2
:10CE8000107C43BC4550047C3580027C34BCA32814
:10CE9000027CA30B607E237230BC2638A30B707E0D
:10CEA000B37230BCB73891BEA06478026CAA7CBA69
:10CEB000DA3B227D129D10BE140000226CAA801263
:10CEC0007E700DAC7A09B370B0BEB0102802D322C8
:10CED0000BA07EB37246BCBA38E6C322CA797F6023
:10CEE0007CF57CE612CF437DB37CBE7C7F12CF43C2
:10CEF0002D3B127FA97DA37E25447D129D1ABE1471
:10CF0000000008067D329D3A80046D339D317D120C
:10CF10001A021A009F06BE14000008067D0D9D200F
:10CF200080046D229D217E140003AD13BD12580FA5
:10CF3000BE2400640809BE3400460803D38001C340
:10CF4000DA7922CA797C8B7EB3747CF5497E93743E
:10CF50007D7E0480017CF71A181B147CE3E1E27AE1
:10CF6000E147BEE000580C1A5E1A189D151A582D9C
:10CF700051F547E549BCBE180C1A581A1E9D151AE2
:10CF8000589D51F5471A5F1B54F546804785464822
:10CF9000E546BEB000580EE5461A5B1A1F9D151AED
:10CFA0005F2D51F548BE9146180E1A3FE5461A1BF3
:10CFB0009D131A5F9D51F548BE81477805BEF14823
:10CFC0006810E5477E71481231587DF3BDF00802C4
:10CFD0007D0F05461AEF0BE4E5461A1BBD1E08AD92
:10CFE0000BE01A580B541A1EBD151802E15F7D3074
:10CFF000DA7922CA3B7C457C577C7B7544007EE015
:10D00000FFC2057EF47FFFBC6728047CD780027CCA
:10D01000D6BC6750047CA780027CA6BC4528047C53
:10D02000C580027CC4BC4550047CB580027CB4F54C
:10D03000457AD1467AC1477AA148854549D205BE8D
:10D040005147780AE546BCB7500CC2058008E54652
:10D05000BCB65002C205300502215B7CDA215B7E42
:10D060000866DA7E34000C74FF1223BF30056F129D
:10D07000D1A9180312D1E70A0D0B04E5480A1BBD1C
:10D080000118070A5D0B5412D1A0BD01180BBD2376
:10D0900018070A3D0B3412D1DA7EE480016CFF12CE
:10D0A000D1CD681012D190680B12D1B4BD3E0804E6
:10D0B0007DE37CEF0BF0BEF00378E412D1C078077B
:10D0C00012D19878022169E549BEB147780712D19B
:10D0D0009878022169BEE0FF7802215B806712D157
:10D0E000A9180312D1E70A0D1B04E5460A1BBD016E
:10D0F00048070A5D1B5412D1A0BD01480BBD23187F
:10D10000070A3D1B3412D1DA7EE480016CFF12D194
:10D11000CD681012D190680B12D1B4BD3E08047DC9
:10D12000E37CEF0BF0BEF00378E412D1C078051277
:10D13000D1886835E549BEB147780512D18868299C
:10D14000BEE0FF68167E71447402AC7B59E37ABB83
:10D1500009D466DA7CCA05447EE0FFE5450A2B0B5C
:10D16000240A3CBD326802015F6CFF80107402AC7F
:10D17000BF49E57ABBBDEF58027DFE0BF0E544BC2C
:10D18000BF38EA7D3FDA3B2209B466DABEB14622F7
:10D19000097266DBBE70FF2209B466DABEB14822AE
:10D1A0007AB366DE7AC366DF220A2C0B24E5490ACD
:10D1B0003BBD23221231587404ACBF593566DC22C2
:10D1C0007E9004AC9E09A466DBBEA149227E500479
:10D1D000AC5F09B266DABEB0FF227A7366E20A3C3F
:10D1E0000B347A7366E3227AD366DA0A1C0B147A5C
:10D1F0003366DB226D22801375B500A936B3FCA916
:10D20000C6B3E5B57A0BB00B140B24BD3238E92256
:10D21000A931CD0FA931E50BA9D5EAA9C5EAC29577
:10D22000A9C1CDA930CD07A930E503A9C0CDA93248
:10D23000CD07A932E503A9C2CDA935CD07A935E5AA
:10D2400003A9C5CDA936CD07A936E503A9C6CDA941
:10D2500037CD07A937E503A9C7CD327E14F7F07E95
:10D260000400FF7E3447527E245550793000021B63
:10D270000A207E3445207E244144793000067920FE
:10D2800000047E3499337E2466CC7930000A7920FC
:10D2900000087E3441477E24464C7930000E7920C8
:10D2A000000C2275B70075B80075F70075F800A975
:10D2B000D0B7D2B8A9D5B7D2BDA9D0F7D2F8A9D4E2
:10D2C000B7C2BCA9C2B7C2BAA9C1B7C2B9A9C3B7CC
:10D2D000C2BB22A2AC9202C2AC7E0F7D6A30010AB0
:10D2E0000B160B0A304E700C80080B160B0A305EC2
:10D2F00070F31B0A30A20292AC220A070A1B2D10FF
:10D3000012D30C6D007E18BB8002229E3E143E1488
:10D310003E143E1422E47AB329F602D31D6D337A0B
:10D32000377D6322E47AB37B80D21412D31D02D3FB
:10D330003112436E5E3400016804D21DC21A2230DD
:10D340002424C2247E737B587A737B8074FF7AB363
:10D350007B587EA37B804CAA780512D3248007BE1D
:10D36000A0017802D21B301B0312D3F77EB37B805F
:10D3700014685B1BB168692403787812D4313807CC
:10D380007EB37D2EB4011612D31D7EB37B6130E0D7
:10D39000657EB37BABB4015E30135B802E7EB37BC6
:10D3A0006130E0527E377D637E4403E87D538D54C7
:10D3B0007E537B620A15BD5150117EB37BABB40125
:10D3C000357E2400C88D32BD31402B02D3F712D4F4
:10D3D00031380A7E377236BE340096081902D5FB02
:10D3E0007E3420E712292612464E125557124ACB98
:10D3F00002D32412D43922E51EB4010C7EB32427B3
:10D400006006E47AB37B8022C21B12D439E47AB37B
:10D4100078F212D31D7AB37D657AB37D6212436EC2
:10D420005E340002680A7EB378EB44087AB378EB86
:10D43000227E737446BE70002274017AB37B802210
:10D44000CAF87EA374467E7374477EB3723070024E
:10D45000C213BEA0013821BE7001381C7E27723273
:10D46000BE24001E280280107EF327F24CFF680FB6
:10D470007E2724294D227807D21312D43980364CC6
:10D48000AA7837A5BF01337E3724297A3727F47E5F
:10D49000B327F2B4031F7E372429BE3400002815B9
:10D4A00074047AB327F27E37280A7E27280C12D517
:10D4B00054A14D800012D6A7A14D7EC772E87ED739
:10D4C00072EA4CFF781BA5BF0057BEA00178527DC1
:10D4D0003C7D2D12D6E612D55074017AB327F28026
:10D4E00040BEF001782E7E2727FA9E2728027E1460
:10D4F00021F7127FB0BD2338137E2728089E2728E6
:10D50000007E1421F9127FB0BD23281574037AB36D
:10D5100027F28005BEF00378087AC7280A7AD72850
:10D520000C7EB327F260267D3C7D2D7E17242D7E58
:10D5300007242F12D6730A2B7E7327F10A37BD32C8
:10D54000580B12D5507AC7242D7AD7242FDAF82217
:10D550007D3C7D2D7D427D137D2412D6C17D31120F
:10D56000D74B02D5657E03281ABE00F05002A1FAFF
:10D57000807D6C997EB327F1BEB0205005047AB34C
:10D5800027F17E1F24317A1F66DA7E800180457480
:10D5900004ACB849352431492524337E1766DA7E38
:10D5A0000766DC12D6737C1B7E0327F1BC01382290
:10D5B0000B907E7004AC782E3424317E1466DA74BD
:10D5C0000412B75A7E3004AC392E1424317404127C
:10D5D00022D20B807E03281ABC0838B30A590B5498
:10D5E0007C0B7A03281A7E0327F1BE0020500B7EA5
:10D5F00003281ABE00EC4002A172227EB37BAB600E
:10D6000005201305800002D3242212D33FE51E70AB
:10D610000512558980031256C502D61C6C777E30E0
:10D620003B7EA03C7EB37B80B4010FE51E600B7E89
:10D63000237D65BC27780312D6B37EB37B80B4010B
:10D6400031E51E602D7EB37D65BCB3780B7EB37B68
:10D65000CA6002D22A12D3317EB37D657AB37D626D
:10D66000047AB37D657E737D65BC7A2805E47AB360
:10D670007D65227D517D127D239D25BE24000008FD
:10D68000047D5280046D559D527CAB7D219D20BE52
:10D6900024000008047D3280046D339D327CB7BCC9
:10D6A000BA50037CBA222274FE7AB37BAEE47AB31A
:10D6B00027F22212436E5E3400016804D21AC21DA2
:10D6C000227EA3281ABEA0F0501B7404A45935244E
:10D6D000317EA3281A7404A4592524337EB3281A52
:10D6E000047AB3281A227DF27DE37E0827F27E3485
:10D6F0000028E41223BF7E0824317E3403C01223A5
:10D70000BF7AB37BAE7E3421FB1229267A372429D7
:10D710007AE727F67AF727F87AE727FA7AE727FEF3
:10D720007AE728027AE728067AF727FC7AF72800B2
:10D730007AF728047AF728087AE7242D7AF7242F35
:10D740007AB3281A74027AB327F1227E172802BD11
:10D7500013280A7A3728027A27280480107E172790
:10D76000FABD1350087A3727FA7A2727FC7E172844
:10D7700000BD12280A7A2728007A3727FE80107EFB
:10D78000172808BD1250087A2728087A3728067EFD
:10D79000B3281AB40A197E3727FA9E3728027A3737
:10D7A00028127E3728089E3728007A37281422B49A
:10D7B0000F187E3727FA9E3728027A3728167E37C9
:10D7C00028089E3728007A372818226CAA7E302C29
:10D7D000AC3A123BDB7E34002CE41223BF0BA0BE1C
:10D7E000A00340E9227E7303CBBE7303CC3802E46E
:10D7F000227EA303CC7407A4495503D71262A2E486
:10D8000033227EB303CEB40102800201AA7E7303E9
:10D81000CBBE7303CD28747E6303CD7E7007AC67E7
:10D82000495303D77CAB7E4303D47E5002AC452DD5
:10D8300032493303D97A351C4D33684FD22E1BA0A1
:10D8400068101BA0680C1BA068081BA068040BA232
:10D85000783912D8AB3012047402800274017EA3AE
:10D8600003D40A3A19B303CF7EB303D4700E7E7388
:10D8700003D6BE70012805120B73800F7E0F7D6AE0
:10D880000B160B0A305E60EF1B0A307E7303CBBEB3
:10D890007303CC381574027AB303CEC2281245A3A1
:10D8A0001247EBE51E70030260E222CA3B7E951C24
:10D8B0006D887EB303D4F54D7EB3748C600A7EC749
:10D8C00074807ED7748280087ED774807EC774820D
:10D8D000202E0241207EE778EC7EF4000AA9D7EAE8
:10D8E0007E5F015B695502646975000C4D7512DA43
:10D8F00040597500C76955025C7E5F015B69B500E0
:10D90000044DB512DA4059B500C97E5F015B69B5B7
:10D91000025A7E3F015B69530002BD5B280C7E5FAB
:10D92000015B695500027D4580087E2F015B6942DD
:10D93000025A12DA40594500CB7E2F015B0B2A5068
:10D9400012DA47AC9B19A400CD7E2F015B6952020D
:10D950005812DA47AC9B19A400CE6DBB7D4BBE4478
:10D96000000178040BF480237CB97EA400016005DB
:10D970003EA41478FB7EB3747E0A5B5D5A68051280
:10D98000DA2380076D5512DA320BF40B44BE4400E3
:10D990000378CB7EB3748C60057AC54B80037AB56F
:10D9A0004B12DA537D4B800C0B0A501B1A500B158F
:10D9B0000B350B44BDD438F07DFD2EF54B7AF54B7D
:10D9C0007EF401367D4BBE44000178040BF48023C5
:10D9D0007CB97EA4000160053EA41478FB7EB3747C
:10D9E0007F0A5B5D5A680512DA2380076D5512DAEB
:10D9F000320BF40B44BE44000378CB7EB3748C60CE
:10DA0000037AB54B12DA537D4B800C0B0A501B1A6C
:10DA1000500B350B150B44BDC438F0A9C7EAC22E14
:10DA2000DA3B227D5F0BF43E547E3F015B2D750B8C
:10DA30003A507DAE0BE43EA47F342D7A1B3A50223F
:10DA40007EA14D7408A4225E54007F7CAB7E914D74
:10DA50007408227DAF3EA47E0F015B2D1A7EA54B7C
:10DA60003EA47F142D3A226CAA7EB329E60A3B1EFF
:10DA7000340B347E5008AC5A197203B00BA0BEA010
:10DA80000440E6227E3400011267C57E5703B312BC
:10DA900067FA74010267DE7E3400031267C57E57A1
:10DAA00003C31267FA74030267DE800312567B30E9
:10DAB00014FA22C21C22D204123FA712569F70FBF6
:10DAC00022301C08E51EB401030243D7227CAB7E42
:10DAD0000800697E700AAC7A09B37998120BCC7E83
:10DAE0000800A5740AA409B57998120BCC7E3400FD
:10DAF0000D7E0800697E240001020C5A7CAB74275D
:10DB0000A4492578FA0B247E377C27AD327E0800A5
:10DB10006512DB17020C5A6D22120CCC7E0800A194
:10DB20006D22120CCC7E34000B7E0800657E240032
:10DB300002227CAB6D33BEA00450276C5580167E4C
:10DB40001002AC157E3027AC3A2D10491178FA0B33
:10DB5000142D310B507E3027AC3A094178F5BC4585
:10DB600050DD4D3378020B3422BEB00450337E3783
:10DB700000815E70F07A3700810A3B4E3700817A6F
:10DB80003700817A3700BD7E3400197E080081128B
:10DB9000DBA27E3400197E0800BD7E240001020451
:10DBA00096227E2400010203FA7CAB7E7378F0C2D9
:10DBB000026D227D4280130A0A122D7E2D1409B1B6
:10DBC00051E47004D202800A0B447E1778ECBD1435
:10DBD00038E57D427CB75401B401170A0A122D7E44
:10DBE0007E2778EC2D242D2109B251E47004D20255
:10DBF000800A1E700B44BE44000440D83002107EE0
:10DC0000B303FDBEB000280D147AB303FDC3227424
:10DC1000057AB303FDD322CA3B7CCB7E0866DA12B9
:10DC20004FDE7E0866E67E3400051223BF7EE37475
:10DC30007A7ED3747B7EB778EC7E97724D7DA93E59
:10DC4000A43EA44CCC786C7AD366DB7AE366DA7EA9
:10DC50008408687A8766DE7E1F22DC7D837A876689
:10DC6000E07E1F22DC7D837A8766E27D397CB7F512
:10DC7000277E0866DA7E1866E67D591200466CFF3C
:10DC80007D3B3E3449830868BDA858107E0F22DCD6
:10DC90002D130B0A202D2A1B0A2080106D229D2A8D
:10DCA000BD28080812DD029D3A1B0A3012DCFA7802
:10DCB000CF8044BEC001783F6CFF80246C77801A0F
:10DCC0007CBFACBD0A872D853E847E0F22DC2D18DB
:10DCD0000B0A802D891B0A800B70BCD738E20BF031
:10DCE000BCEF38D86CFF7D3B3E3412DD022D3A1B71
:10DCF0000A3012DCFA78EFDA3B220BB40BF0BEF0FC
:10DD000004227E0F22DC2D130B0A30227E3778ECA2
:10DD10006CAA901BD7E49320E0044CAA68251EB09F
:10DD20001EB020E005BEA0016819901BD8E4932026
:10DD3000E005BEA002680C1EB01EB020E009BEA027
:10DD40000378040B3480257D233E24494208681261
:10DD5000DD742D241B0A207D233E2412DD74BE2495
:10DD60000FA05006741F7AB378EA0B340BA0BEA044
:10DD700004409F227E0F22DC2D120B0A2022E47A1F
:10DD8000B3724512DD9AE41200127EB32426B40168
:10DD9000087E7372307A737244226C338009E40A0D
:10DDA0003319B370A60B309020E0E493C423541FC2
:10DDB0000A2B0B240A33BD3248E412DEDE6D337ABF
:10DDC0003772327A3772347A3772367A37723A7EED
:10DDD000D466DC1ED43ED46DCC7E1F22E07A376739
:10DDE0001C7D3D7A3767207E3423347A37671E7E68
:10DDF00073747A7A7367197E73747B7A7367187E8B
:10DE00003774587A3767227E37745A7A3767247E98
:10DE10003774627A3767267E3774647A37672812D8
:10DE2000975E1B347A73671A7E737D7B7A73671BE8
:10DE30007E0867187E18672A12031D7E73672A7A88
:10DE40007372307E73672B7A7372317E37672C7AE8
:10DE50003772327E37672E7A3772347E3767347A7C
:10DE60003772367E3767367D237A5372380A367AB0
:10DE70007372397E3767307A37723A7E3767327D10
:10DE8000237A53723C0A367A73723D6C33801FD208
:10DE9000027CB31237107402ACB3494523340A38FC
:10DEA0007C271925702E7C291925702F0B307E2395
:10DEB0007230BC2338D96C33801B7402ACB37F162C
:10DEC0002D350B1A400A387C271925706A7C2919D0
:10DED00025706B0B307E237231BC2338DD22E47A4F
:10DEE000B372307AB37231227D231254357E377D7E
:10DEF0004B7D139E177D47BE14000008069E377D9C
:10DF00004780046D339D31BD3238217E377D4D7D94
:10DF1000139E177D49BE14000008069E377D498078
:10DF2000046D339D31BD323803740122E422E49341
:10DF30000A3B12DEE80ADB4DDD22CAD8CA796CFF43
:10DF40006DDD7DED7DFD7ED374467EE374477EB34B
:10DF50007D4660137EC77D4F4DCC780302E032BE14
:10DF6000D001280302E032BED001781FBEB0047891
:10DF70000302E0327EE772E87EF772EA7D3E7D2F93
:10DF8000127FB8BEB001780302E0327EA37D467CEA
:10DF9000BA14682D14685814682714780302E02F07
:10DFA0000BB2680302E032BED001680302E0414CCC
:10DFB000EE680302E04174017AB37D4612E04880C6
:10DFC000614CDD781DBEA001780C74027AB37D46E9
:10DFD0007E3421D1805074047AB37D467E3421D5BD
:10DFE000804412EAB79021C412DF2E68458052BEE9
:10DFF000D001784D4CEE784912EAB77E3421CD122B
:10E0000029267E1421D11277AD9DC3BEC77D4F4016
:10E01000219021C312DF2E681912E04874037AB3ED
:10E020007D467E3421D11229267A377D4F80127E9B
:10E03000F024E47AB37D466D337A377D4F7CBF8020
:10E04000027CBFDA79DAD8227AE77D477AF77D4910
:10E0500022CA3BF52D7F317A0D29753500753600C2
:10E060007537007E3403E87A354075333C753446A5
:10E07000752E00416F12E411281E7E340044CA3907
:10E080007E712E7444AC7B2E340D947E2400FF7E72
:10E09000086AA412239A1BFD6D337A376A9A7A377D
:10E0A0006A9C7A376A9E7A376AA07A376AA27E18A3
:10E0B0006AA47A1D387E186AC47A1D3C752F002127
:10E0C00055E52F0A5B7E1D292D357E1B600A267EB5
:10E0D0000D382D157E0B700AD77DCD9DC2BEC400B4
:10E0E0000008049DD2800A0A260A379D326DDD9D04
:10E0F000D37EC76A9EBDCD58047AD76A9EE52F0AA3
:10E10000CB7F132D3C7E1B700A27E52F0A3B7E0D2B
:10E110003C2D137E0B700AC712975708049DC280CE
:10E12000046DCC9DC37E376AA0BD3C58047AC76A93
:10E13000A07E376A9A2D3D7A376A9A7E376A9C2D7F
:10E140003C7A376A9C2DCD7E376AA2BD3C58047A52
:10E15000C76AA2052FE52DBEB12F280201C1E52D0A
:10E16000B40A2C7E376A9EBE340040480C7E276A73
:10E17000A0BE2400404802416DBE34006008024148
:10E180006D7E376AA0BE3400600802416D802A7E31
:10E19000376A9EBE340020080C7E276AA0BE240089
:10E1A000200802416DBE3400300802416D7E376A9E
:10E1B000A0BE3400300802416D7EA37C30740CA4F4
:10E1C000BE576A9A5802416D7EA37C31740CA4BE7E
:10E1D000576A9C5802416D7E0D387E1D29E52D122F
:10E1E000E2A8F5307E0D3C7F13E52D12E2A8F53153
:10E1F000E533BEB1303876E533BEB131386FE53145
:10E200007E3131AC3B1A021A00E5307E7130AC7BB6
:10E210001A261A242F10E5310AFB6DEEE5300A1B91
:10E220006D002F0712224D7CB7F532E534BEB132B6
:10E23000383B7E376AA02E376A9E2E376AA27A351F
:10E2400042E5320A2B7E3400649D323E342E354244
:10E250007A35427E3540BE354208127E35427A35E7
:10E26000408532367EB36AE6F537852E35052E12A7
:10E27000E41128020175E534BEB1363820E537BE19
:10E28000B0002819E537BEB0FF5012E5350A3B0B48
:10E29000347A737C2DE5377AB37C2F8006747C7AD0
:10E2A000B37C2DE536DA3B22CA3B7CFB7F617F40A5
:10E2B0009F117F517F717A1F6AE87A1F6AEC7A1F7B
:10E2C0006AF0BEF00A78067E54013C80047E540257
:10E2D000357A55486CEE80660A5E7F1412E4097A3E
:10E2E00055460A5E7F1612E4097A55447E3544127B
:10E2F00097712F507E65467D161A021A002F7012F4
:10E30000977112E3FF7E1F6AE82F107A1F6AE87D7B
:10E31000161A021A007E354612E3FF7E1F6AEC2FA2
:10E32000107A1F6AEC7E15461A021A007E354412D6
:10E33000E3FF7E1F6AF02F107A1F6AF00BE0BCFE2D
:10E3400038960ADF6DCC7F157F0612229E7F517FA3
:10E35000177F0612229E7F717E9400647E1F6AE8FA
:10E360007D191222427E85487D187DD81A121AC264
:10E370007F0612229E7A1F6AE87E1F6AEC7D1912C0
:10E3800022427F0612229E7A1F6AEC7E1F6AF07D6F
:10E39000191222427D181A021A0012229E7A1F6A4E
:10E3A000F07F157F071222317E6F6AF09F617F1523
:10E3B0007F051222317E5F6AE89F517F177F071227
:10E3C00022317E7F6AEC9F71BE5800006806BE78DD
:10E3D000000078067E44006480187F167D191222A2
:10E3E000427F0512229E7F061222317F0712229E53
:10E3F0007D43BE44000018026D447CB9DA3B221A0A
:10E40000261A241222317F01222D357E1B700A57D5
:10E41000227E7329FFBE712E22CA796CAA7E9002D9
:10E42000AC9A7F702DF40B7AF07D7F7CBF0AFA19CD
:10E43000BF7C327F712DF40B7A407CB90A4A19B443
:10E440007C520BA0BEA02040D47E087C327E187C7B
:10E4500052742012E051DA7922CA3B7F617F507EEC
:10E46000737C2EBE702040527EF002803C0A3F6DCD
:10E470002274052F111478FB7E337C2E0A136D0055
:10E4800012224D7CE7BEE00250037EE0020A6F1BC1
:10E49000640A3E1B347CC77F057CBD12E4C37F0643
:10E4A0007CBD7C7C12E4C30BF07E737C2EBC7F5061
:10E4B000BC7F057F1612E4198006747E7AB37C2D2A
:10E4C000DA3B227C977CAB7F107E3002AC3A2D1376
:10E4D0007D020B0A107E1002AC197F712DF00B7AB1
:10E4E000007C21A5BA00140A031B7A00BC9A682498
:10E4F0006D447402A42D351B1A4022BC9A68150A7B
:10E50000020A132D100E141B7A106D117402A42D23
:10E51000351B1A1022CAF87F517F407E3728027AB5
:10E52000376A9E7E3728007A376AA07E37280E7AAF
:10E53000376A9A7E3728107A376A9C6CFF801E7E75
:10E54000346A9A7E14002974091222D27402ACBF74
:10E550007F042D157F152D3512E5680BF07E737C39
:10E560002EBC7F38DADAF8227F717F607E3529BED3
:10E5700034000038077E3400017A35297E352BBE01
:10E5800034000038077E3400017A352B0B6A309E48
:10E59000352D6D227E337C3012E5BD7E1529122289
:10E5A0004B1B6A300B7A309E352F6D227E337C31C7
:10E5B00012E5BD7E152B12224B1B7A30220A136DF9
:10E5C00000022231CA3B7F717E60010B0A200B7A68
:10E5D000507C4B7A536A9A7A436B8A7E70017EA094
:10E5E00001C1EB7E9002AC9A7F602DD40B6AD07D86
:10E5F0007D7CBFF5297F672DD40B6A400AD50ABB05
:10E600007DAB9DAD7D7A7C8FBE800058056E80FF0E
:10E610000B800AA40A799D7ABEF00058056EF0FFBF
:10E620000BF0BE80025807BEF0025802C1E9BE607E
:10E63000001802C1D1BE70EC2802C1F5BE80085896
:10E6400005BEF00848670AA70BA47D6A7C7D0AA571
:10E650002DAB12E7390AA719BA6A9A0AD90AA42D6A
:10E66000AD12E7390AA719BA6B8A09BA6A9A0ADBA6
:10E670000AC52DCD0EC47D6C7CBD0AC719BC6A9934
:10E6800009BC6B8A0ACB0AA42DAC12E7390AA71978
:10E69000BA6B892DDB12E73019BD6A9B0AD912E7E4
:10E6A0002E19BD6B8B0BD57D6D7C7D8024BE8004C7
:10E6B0005805BEF004481AE5290ACB0AD512E72E00
:10E6C00019BD6A9A0AC90AD412E72E19BD6B8A0BC2
:10E6D00070BE70F0501F7E51297C49E5290AD71978
:10E6E000BD6A9A199D6B8A0B700BA07EB37C2EBC01
:10E6F000BA2802A1E37A737C2E7EA00180250A3A13
:10E7000009B36A9A0A2B7E7002AC7A7F602DD31B04
:10E710006A200A2A09B26B8A0A4B2D3F7D2E1B1AEA
:10E72000400BA07EB37C2EBCBA38D3DA3B222DDC62
:10E730000ED47D6D7CBD0AD7220EA47D6A7CBD22DD
:10E740007C7B0A579E5400200E540E540E540E54D7
:10E750007CAB7C675E60F0A5BE201D7CB7540F7E4D
:10E7600024000160053E241478FB7E7329F90A47D2
:10E770005D427E737BAC8036A5BE301812E7B36075
:10E78000053E341478FB7E5329FA0A455D437E73B7
:10E790007BAD801A12E7B360053E341478FB0A2A79
:10E7A00009B229F90A4B5D430A5A09757BAE0A572B
:10E7B0005D54227CB7540F7E34000122740DACBE30
:10E7C000493572EA740DACBF4925281D9D321223CC
:10E7D000E17DC3740DACBE493572E8740DACBF4920
:10E7E00025281B9D320223E17EA0057E7004AC7FAC
:10E7F00019A329B27E700DAC7F2E34281B7E300DFC
:10E80000AC3E2E1472E8740D227409ACBF7E1D3626
:10E810002D35227EE5363EE4493E748D7A35387FCB
:10E82000032E15367E0B50195301777D535E54002D
:10E830000F7E240001227E700DAC7E09B372EF09B9
:10E840007372F022740DACBE493572EABE34001EFC
:10E85000227E14217A7E0400FF0B0AC09EC4001E93
:10E86000BD3C221A4B7A47682E1A021A0012223136
:10E870007F017E1F68342F107A1F68347D14227444
:10E880000DACBE49C572E87E34216C7E2400FF0BBE
:10E890001A40227E301FAC3C19A15F95E52BBEB01B
:10E8A00050220A252D217D131E143E1459216BE49C
:10E8B0000B357A3536BE34011A220B38E04DE21B97
:10E8C00038E07EE5360BE4227AB303CF7AB303D087
:10E8D0007AB303D374FF7AB303D4E47AB303D522B3
:10E8E0006D220A0D7E1400409D101A021A00122299
:10E8F000317F71227E11122E1008A5E7BEB00022D2
:10E900007E552964FF0A2F7E34023CAD32222E242C
:10E9100051E47E29705C7B7A2970227E701FAC7C6A
:10E920002E345F927CBA24FE7A39B0227F132D34C4
:10E930007E1BA07CBA540F3EB03EB0222D300B1A85
:10E94000A09DA11B1AA00BE0BEE004227E7027ACA4
:10E95000672E3478F36D227E087BFE227E701FAC1A
:10E960007C19A35F92227E500DAC5F2E252C0B28C4
:10E970003049220002224925281D9D321223E17DC3
:10E9800013222E2451E47E29704C767A29700B6470
:10E9900022741FACBC49155FAF49055FAD227E37BD
:10E9A00066DC2E3766DABE34006422741FACBC49C4
:10E9B000355FAF49255FAD22740DACBD7F152D3598
:10E9C00069310002227E7374550A379DD3BED4008C
:10E9D00000227EA0057E3004AC3F19A129B222A9F5
:10E9E000D5EAA9C5EA74027E7007226CAA7E70047B
:10E9F000AC7F19A329B22229B10008BEB02D227E16
:10EA0000F13C74B5ACFB2E740100227D540B447FA5
:10EA1000132D357E1B70227AB303CC74FF7AB303B7
:10EA2000CDE422740DACBD7F152D350B1A30227E3E
:10EA300054217A7E4400FF0B2A10227C1F2E1008DE
:10EA4000A5E7226D220A1D6D001222312F17227EAA
:10EA50007112740DAC7B2E34281B227E274D4D4E37
:10EA600050207A274D4D227D377E086BE47E2400AE
:10EA70008D22740DACBF4925281B4D22227EB37B0D
:10EA8000CD44807AB37BCD222E1451E46D00222D2B
:10EA9000C3BEC40050227E3778ECBD36227E70079C
:10EAA000AC7A09B303DD227417A47E1D34227A37B1
:10EAB000745C7E3420F1227AE77D4B7AF77D4D221B
:10EAC0000BF50B550B151B34227427ACBE09F578DA
:10EAD000F722741FACBC09A55F9222741FACBC095D
:10EAE000755F9922741FACBC09755F98227E3767E9
:10EAF000A2BE34001E227E276772BE240014227E2E
:10EB0000340017E40223BF7402ACBF090566DA22A1
:10EB10007E3F7D6A6933000622751E00E47AB329C0
:10EB2000F122740DACBE494572E82249D372EABEA7
:10EB3000D4001E227E1F22E07A3751BB22123158A8
:10EB4000BE340190227EB37BFBBEB001229E352BEA
:10EB5000BE340000229E452BBE440000227CBA54E5
:10EB6000F0C4540F226D007F1702229E7E73676BE4
:10EB7000BE700A227E3400647A353E227E39B0149B
:04EB80007A39B0220C
:00000001FF
