:10000000A55A0001100D0041002700000000590012
:10001000EB7BFFFFFFFFFFFFFFFFFFFFFFFFFFFF88
:10002000FFFFFFFFFFFFFFFFFFFFFFFFFFFFFFFFE0
:10003000FFFFFFFFFFFFFFFFFFFFFFFFFFFFFFFFD0
:10004000FFFFFFFFFFFFFFFFFFFFFFFFFFFFFFFFC0
:10005000FFFFFFFFFFFFFFFFFFFFFFFFFFFFFFFFB0
:10006000FFFFFFFFFFFFFFFFFFFFFFFFFFFFFFFFA0
:10007000FFFFFFFFFFFFFFFFFFFFFFFFFFFFFFFF90
:10008000FFFFFFFFFFFFFFFFFFFFFFFFFFFFFFFF80
:10009000FFFFFFFFFFFFFFFFFFFFFFFFFFFFFFFF70
:1000A000FFFFFFFFFFFFFFFFFFFFFFFFFFFFFFFF60
:1000B000FFFFFFFFFFFFFFFFFFFFFFFFFFFFFFFF50
:1000C000FFFFFFFFFFFFFFFFFFFFFFFFFFFFFFFF40
:1000D000FFFFFFFFFFFFFFFFFFFFFFFFFFFFFFFF30
:1000E000FFFFFFFFFFFFFFFFFFFFFFFFFFFFFFFF20
:1000F000FFFFFFFFFFFFFFFFFFFFFFFFFFFFFFFF10
:10010000A813002081010000890100008B0100007C
:1001100000000000000000000000000000000000DF
:100120000000000000000000000000008D01000041
:1001300000000000000000008F010000910100009D
:100140009301000093010000993E0000930100001C
:1001500093010000312D0000790C00009301000094
:10016000930100009301000093010000930100003F
:10017000930100009301000093010000930100002F
:10018000930100009301000093010000930100001F
:10019000930100009301000093010000930100000F
:1001A00093010000930100009301000093010000FF
:1001B00093010000930100009301000093010000EF
:1001C00000F002F800F030F80CA030C8083824180D
:1001D0002D18A246671EAB4654465D46AC4201D17F
:1001E00000F022F87E460F3E0FCCB6460126334281
:1001F00000D0FB1AA246AB4633431847B85600005E
:10020000D85600000023002400250026103A01D310
:1002100078C1FBD8520700D330C100D50B607047BE
:100220001FB51FBD10B510BD00F020FD1146FFF732
:10023000F7FF04F0EDFA00F038FD03B4FFF7F2FF2A
:1002400003BC00F067FD000070B505460C4616467D
:1002500002E00FCC0FC5103E102EFAD2082E02D3AA
:1002600003CC03C5083E042E07D301CC01C5361FBD
:1002700003E021782970641C6D1C761EF9D270BDD4
:100280000748804707480047FEE7FEE7FEE7FEE72E
:10029000FEE7FEE704480549034A054B70470000A6
:1002A000013C0000C1000000A80F0020A81300209E
:1002B000A80F0020F8B5042A2CD3830712D00B789E
:1002C000491C0370401C521E83070BD00B78491C3D
:1002D0000370401C521E830704D00B78491C037026
:1002E000401C521E8B079B0F05D0C91ADF0020232C
:1002F000DE1B08C90AE0FFF7A7FFF8BD1D4608C9C5
:10030000FD401C46B4402C4310C0121F042AF5D2F5
:10031000F308C91A521EF0D40B78491C0370401C14
:10032000521EEAD40B78491C0370401C012AE4D405
:1003300009780170F8BDD2B210B513029A181304EF
:100340009A1800F0D7FB10BD002203098B422CD372
:10035000030A8B4211D300239C464EE003460B4315
:100360003CD4002243088B4231D303098B421CD377
:10037000030A8B4201D394463FE0C3098B4201D369
:10038000CB01C01A524183098B4201D38B01C01AA1
:10039000524143098B4201D34B01C01A5241030918
:1003A0008B4201D30B01C01A5241C3088B4201D3C7
:1003B000CB00C01A524183088B4201D38B00C01A74
:1003C000524143088B4201D34B00C01A5241411A9B
:1003D00000D201465241104670475DE0CA0F00D07E
:1003E0004942031000D34042534000229C46030977
:1003F0008B422DD3030A8B4212D3FC22890112BAFD
:10040000030A8B420CD3890192118B4208D38901D4
:1004100092118B4204D389013AD0921100E08909EC
:10042000C3098B4201D3CB01C01A524183098B42CD
:1004300001D38B01C01A524143098B4201D34B01B6
:10044000C01A524103098B4201D30B01C01A524119
:10045000C3088B4201D3CB00C01A524183088B42A0
:1004600001D38B00C01A5241D9D243088B4201D329
:100470004B00C01A5241411A00D201466346524114
:100480005B10104601D34042002B00D54942704713
:1004900063465B1000D3404201B50020C046C04611
:1004A00002BD7047704770470246C80FC0078143BE
:1004B0004B0030B54B405B009B0D20D01923DB0671
:1004C000C91801231B05994220DB0324A407042536
:1004D0001346AB400BD3002B04D1EB0613409B001B
:1004E000E34204D401246407002312195941FF2375
:1004F0001B0599420BD2C9000143500F09E0CB0202
:1005000004D501430803024305D0054830BDFF214F
:10051000C905084330BD084607210905884330BD99
:100520000000C07FF0B50C46871A9C410D46861A24
:100530009D4103D2C01BA141D21963410D0D1F0D76
:10054000C94EEC1BAE435CD07F057F0D0026002F0B
:1005500051D02D05AC46A943DD020123ED0A1B0550
:100560001D4320231B1B24D41746E7403818714134
:100570002F46E740CC199D402818314661410C0DAB
:1005800027D161449A4013D50023401C59415200A1
:100590000ED14008400001224B005205D34207D340
:1005A00005204007C14201D5B04900E0B0493046BE
:1005B000F0BD6B00002A00D001229A181F23203CB6
:1005C0001B1B01D5002302E0E540281871410C0DEA
:1005D000D7D0012424050919C407CD0740084908CC
:1005E000E40F28436144002CD5D00024401C614115
:1005F0009A40D0D1CDE76A05520DD9D1C90FC907AC
:10060000D5E79C4D4E00002801D0012400E00024D5
:1006100034195F00002A01D0012600E00026BE192F
:10062000954FAC420CD8AE420AD8B44206D0012550
:100630006D05EC42BCD010461946F0BD9942FCD085
:1006400000203946F0BDF0B51FB40C460F46811AA4
:100650009F412546861A9D4106D20125ED076F4030
:10066000401ABC4152187B41210D1E0D8D1BAC461A
:100670007D4D8D437ED075056D0D7CD00D05AE464C
:10068000AC431B031B0B794D52429D412023664610
:100690009B1B14D31746F74038180026009074416E
:1006A00060462F460741E41900989D40281866418E
:1006B00016D4714671189A4025D5012320E093186D
:1006C0002A466A415200002B00D0521C1E23203EB5
:1006D0009B1B002B61DD3541EE1728186641E8D5DC
:1006E000001876415B1C9A4000D3401C4B05F31860
:1006F0001524E34010D3002B52D071467118D30F4C
:10070000C01802D3491C05B0F0BD0123DB079A4293
:10071000F9D140084000F6E701225205B21801D194
:10072000002853D00123CC0ADB029943891E002AFA
:1007300008D1020C03D0020C0004103902E002467A
:10074000002020390023550B05D112020823550B38
:1007500001D152010D23550C01D112011B1DD50CE5
:1007600001D192009B1C150D01D152005B1C20256C
:10077000EE1A01E02CE022E00546F54015439840D2
:10078000CA1AE10769181305C918002ABBDA032041
:1007900040070818C10FC9070FE071466118B2E79A
:1007A000F10740080843711071444A000CD001233E
:1007B0005B059A42A7D2C90FC9070020A3E74905E4
:1007C000490D26D1002001E00028F4D100219AE74C
:1007D000284D6600002801D0012100E00021711899
:1007E0005F00002A01D0012600E00026BE19224F3A
:1007F000A94210D8AE420ED8B14208D001256D05ED
:10080000E94206D01946A802414010467BE79C42C7
:1008100001D0214677E70020394674E710B50C4631
:100820005C4005D50124E4076340FFF70CFF10BDD1
:10083000FFF778FE10BD30B40C465C4004D50124AF
:10084000E407634030BC6DE630BCFCE670B50124C3
:10085000E40761400D465D4002D4FFF763FE70BDC2
:100860006340FFF7F0FE70BDFF0700000000F0FFDF
:100870000000F07F0000E0FF0000F87F0121C905C3
:100880000123411842001B06D3185B0E0AD0C11089
:100890000722D206891840075242D14201D55200A0
:1008A00089187047090208D50146002A03D0C10FF4
:1008B000C9070020704710467047420202D000204E
:1008C00002497047072109050143F4E70000F87F5A
:1008D000F0B5FF252D04C609C209FF2704462E40A6
:1008E0000137CB093E4348402A402B400746002AA7
:1008F0006BD0002B69D0AA4267D0AB4265D00028EC
:1009000000DA32460125ED0529432C430902200275
:10091000090AD21A4B0C7F24E31A434C000A7C4488
:10092000E35C7D242404121914145B00A21888428D
:1009300001D3521C00E0400049420C465C432411A4
:100940005C43DB016415E318040A5C43C502200D17
:100950000C4644436419250A5D432303EC0C0D4601
:10096000654300030019EB184C42A34201D35B1806
:10097000401CD4052018002B07D05B00C91804D3F5
:10098000401C002901D1400840003F2189048A42CF
:1009900009D3002A08DC1106090F04D003214907F6
:1009A0004018C00FC007F0BD01224100120689188F
:1009B0007F2252069142F6D205214907C84201D54D
:1009C0009010F0BDFF20C005F0BD002F00DA3246C8
:1009D0001648AA4207D2AB4205D21902090E17D017
:1009E000F80FC007F0BDFF2563002D06AB42F9D814
:1009F0004900A942F6D8AB4201D1A942F2D0A9429E
:100A000001D1002101E061004908D0050843F0BD93
:100A10001102090EFBD0FF200243D005F0BD0A46AB
:100A20000146104654E70000504F00000000C07F10
:100A300010B501469E240002CA15A307002A02D061
:100A40001843002A04DBA21A002A0CDDD04010BD96
:100A50001206120E01D140004008A21A03D4D04061
:100A600040420028F3DDFF2248001206904201D9DF
:100A7000002010BDC817C043584010BD1F22030CF2
:100A800002D10F2200041CD0030E01D10002083A4B
:100A9000030F01D10001121F830F01D18000921EAC
:100AA000002801DB4000521ED205511802125118D5
:100AB0001922904004D3491C002801D1490849005B
:100AC00008467047C10FC90700D040420122920773
:100AD0001143D3E701218907D0E701E004C0091FD2
:100AE0000429FBD28B0701D50280801CC90700D0E6
:100AF0000270704700290BD0C30702D00270401C5F
:100B0000491E022904D3830702D50280801C891E56
:100B1000E3E70022EEE70022DFE70000F8B5224C11
:100B20004E00069DA6420AD8A64201D1002806D151
:100B30005E00A64203D8A6420AD1002A08D00D249E
:100B4000240425422CD02946002000F061F8F8BD8D
:100B50000C461C430CD4994202D0EFF30080F8BD40
:100B6000904202D0EFF30080F8BDEFF30080F8BDB3
:100B700009242407E5008B4206D0EFF30080A04350
:100B8000591A06D2284304E0101A05D3EFF3008067
:100B9000A04380F30088F8BDEFF30080A043F1E7A5
:100BA000009500F04DF8F8BD0000E0FF10B5FF2300
:100BB0001B0644009C421DD84C009C421AD8034698
:100BC000124A0B4307D4401A02D3EFF3008010BD42
:100BD000EFF3008010BD081A06D2EFF30080012168
:100BE0009043C907084302E0EFF30080904380F38D
:100BF000008810BD0D231B041A4204D011460020AA
:100C000000F006F810BD00F025F810BD00000090BF
:100C1000CA0211D54A03520F002A04D0C803C043A8
:100C2000012188407047054AEFF30081080100095F
:100C3000104380F3008870470020704700000030A8
:100C400010B500200249029A00F035F810BD0000EE
:100C50000000F87F10B5024800F02DF810BD00002C
:100C60000000C07F00487047440F00207546FFF722
:100C7000F9FFAE46050069465346C008C0008546E8
:100C800018B020B5FFF706FB60BC00274908B64640
:100C90000026C0C5C0C5C0C5C0C5C0C5C0C5C0C58B
:100CA000C0C5403D49008D4670470446C046C04619
:100CB0002046FFF7C2FA10B50C461107090F0929A3
:100CC00004D00A290AD008290CD104E011460820D2
:100CD000FFF79EFF06E0510606D501E0510601D55B
:100CE0000120C007214610BDD10607D50101090921
:100CF000CC084907000E0006044309E0410F20021A
:100D00004907000A0143200E00061D22D14101437C
:100D10000846E7E701491820ABBEFEE726000200BF
:100D2000704770B58C180578401C6B075B0F01D1BC
:100D30000378401C2A1106D10278401C03E0067893
:100D4000401C0E70491C5B1EF9D12B0705D40023F3
:100D5000521E0DD40B70491CFAE70378401CCB1AC5
:100D6000921C03E01D780D70491C5B1C521EF9D5C6
:100D7000A142D8D3002070BD044840690121084336
:100D800002494861012002490870704780000E4006
:100D90000C00002070B502460020C87800010D79D3
:100DA00028438D78AD052843034600204D79ED0694
:100DB00028438D792D072D0A28430D7AED04284309
:100DC000CD792D0428430D78AD0028434D786D0072
:100DD000284304464D7A80263543054E3563FF256A
:100DE0000135AB508025AC504E898425AE5070BD86
:100DF0000020005010B502461346FF336533090743
:100E0000090F8C001C5BA0B210BD30B50446002356
:100E10000907090F8D0063591D052D0D158030BD83
:100E200010B50346FF3365330907090F8C001A51CB
:100E300010BD0146002094225258D207D20F002A3A
:100E400006D001209422525801231A4394235A5069
:100E50007047000070B500240025012001F0B0FCAF
:100E6000012002F0D5FE0446022001F0A9FC022078
:100E700002F0CEFE0546002C01DD204600E0604277
:100E80001E280EDA002D01DD284600E068421E28EB
:100E900007DD02200C4908700C4908700C490870E5
:100EA00007E0012008490870084908700320084934
:100EB000087006494C702004000E8870CD7028041C
:100EC000000E087170BD0000130000200003002018
:100ED00034000020FEB506460027002400200190C3
:100EE00000BF16E03220001BC1B20522304602F0DE
:100EF00091FD0546002C07D00098854208D2009548
:100F00003220001B019003E000953220001B01906D
:100F1000641C0A2CE6DB002409E0DC20704308494D
:100F200041180198001980000858C719641C052C45
:100F3000F3DB05213846FFF711FA07463846FEBDB8
:100F40003C0800203CB502461046104C2468019431
:100F50000E4C241D246800940023002900DD00BFEE
:100F60000B4CA24207DD0A4C8234A24203DA5C0039
:100F70006D46285F09E0074CA24206DD054C82342D
:100F8000A24202DA5C0001AD285F3CBD044B0000C8
:100F9000FF0C0000FF04000010B52E480068007828
:100FA00031283CD012DC112833D008DC01281ED0B7
:100FB00004281FD00F2820D0102848D126E0202850
:100FC0001ED021281FD0302841D125E0352832D02D
:100FD00006DC322826D0332827D0342837D127E022
:100FE00080282BD0C2282CD0C32830D12CE000F090
:100FF00017FD2DE000F030F82AE000F0A1FB27E01B
:1010000000F08AF924E000F075F821E000F0C6FB5A
:101010001EE000F0EFF91BE000F0CCFD18E000F05E
:1010200021FD15E000F05CFE12E000F083FD0FE012
:1010300000F0BCF90CE000F099F909E000F086F846
:1010400006E000F003FE03E000F04CFD00E000BF0E
:1010500000BF10BD10030020002021490968097855
:1010600000293CD11E4A126811701E49C97809072F
:10107000090E1C4A127911431B4A12681170012192
:10108000194A1268517000BF23E04100174A525CB0
:101090008100891C144B1B685A544100134A515A51
:1010A0000A128100C91C104B1B685A544100104A97
:1010B000525C8100091D0C4B1B685A5441000C4ABC
:1010C000515A0A128100491D074B1B685A54411C92
:1010D000C8B20128D9DB0621014A12681170704795
:1010E000140300200D00002018030020140000202D
:1010F0001600002070B5002400201149096808700E
:1011000000BF0AE060000F4909684518A0000E49B9
:10111000085A00B22880601CC4B2012CF2DB6000C7
:1011200008490968451802210648006803F018FAC2
:1011300000B22880042002490968087070BD0000D0
:101140001403002018030020D4000020F8B5002567
:1011500000270024002063490968087000BF0EE0E2
:10116000614800680619DC206843604940188030F7
:10117000806D00B23080A01C04B2681CC5B2012D85
:10118000EEDB00250EE0584800680619DC206843B5
:10119000574940188030806D00B23080A01C04B2E6
:1011A000681CC5B2012DEEDB00250BE04E4800683F
:1011B0000619A8004F49085A00B23080A01C04B29A
:1011C000681CC5B2012DF1DB00250AE04648006825
:1011D000061968004849085A3080A01C04B2681CEF
:1011E000C5B2012DF2DB4048006806194348077874
:1011F0003780A01C04B23C48006806194048477874
:10120000380207B23E480078C01907B23780A01CE8
:1012100004B23548006806193948C778380207B261
:1012200037488078C01907B23780A01C04B22E4816
:101230000068061933493448006803F023FC009025
:10124000FFF7F6FB07B23780A01C04B226480068FF
:1012500006192E484778380207B22C480078C01982
:1012600007B23780A01C04B21F480068061927483F
:10127000C778380207B225488078C01907B237808E
:10128000A01C04B2002511E0174800680619A90047
:101290001F4A50581B4903F0F5FB0090FFF7C8FBAD
:1012A00007B23780A01C04B2681CC5B2012DEBDB6D
:1012B0000D480068061917490020085E3080A01C00
:1012C00004B209480068061921460748006803F07F
:1012D00047F900B23080A01C04B2024909680C70C2
:1012E000F8BD000014030020180300203C08002073
:1012F00060070020D4000020D800002098020020C1
:101300009902002000007A44D0000020E902002069
:101310004C0100209201002070B5002400201049EB
:101320000968087000BF09E060000E4909684518A7
:1013300060000D49085A2880601CC4B2012CF3DB00
:10134000600008490968451802210648006803F052
:1013500007F900B22880042001490968087070BDAF
:101360001403002018030020D800002070B50025C9
:101370000C4800680078022813D10B4800684078B8
:10138000000209490968097808430546284601F022
:1013900053F80446044800680470012001490968B4
:1013A000087070BD140300201803002070B50025DC
:1013B0000E4800680078032817D10D48006840786F
:1013C00000020B4909680978084305460848006887
:1013D00084782146284601F03FF800200449096836
:1013E0000870012001490968087070BD14030020CD
:1013F0001803002030B500200021924A1278002AFC
:101400007ED000BF52E0DC2242438F4BD2188032A4
:10141000936DDC2242438C4C12198032526D991A22
:10142000002901DD0A4600E04A428300874CE35868
:101430009A4205DD002901DD0A4604E04A4202E045
:101440008200824B9A588300804CE250002901DDD3
:101450000A4600E04A42524383007D4CE358D218CA
:101460008300E2507B4A1278012A1ED1DC224243DB
:10147000754BD2188032926D5243D317C400764D0B
:101480002D1930CD12196B41C400734D2C190CC4A9
:101490008200724B9B58DC2242436B4C1219803203
:1014A000926D9A1883006D4CE250401C0128AADB13
:1014B0006B4A1288521C12B2694B1A8000229A5E43
:1014C000684B00241C5FA2424FDB00225D4B1A7068
:1014D000604A1278002A47D100203EE082005B4B30
:1014E0009B5C06224243604C2468A3548200574B05
:1014F0009A5A1204130E06224243521C5A4C00E020
:1015000034E02468A3548200514B9B5C0622424382
:10151000921C554C2468A35482004D4B9A5A1204D5
:10152000130E06224243D21C4F4C2468A35482005F
:10153000474B9A581202130E06224243121D4A4C80
:101540002468A3548200424B9A58130E0622424349
:10155000521D454C2468A354401C0128BEDB0622C2
:10156000424B1B681A7000E000BF69E03F4A1268F6
:101570001278022A29D10122324B1A703A4A126893
:101580005278384B1A801A461278120212B21A8018
:10159000354A126812781B88D21812B2314B1A8061
:1015A00000222C4B1A702E4B1A80002007E00022DC
:1015B0008300264CE2508300254CE250401C012859
:1015C000F5DB0022284B1B681A70284A1268127833
:1015D000032A35D101221B4B1A70234A1268527814
:1015E000204B1A801A461278120212B21A801E4A32
:1015F000126812781B88D21812B21A4B1A801A4A33
:1016000012689278134B1A700022154B1A80002032
:1016100010E0002283000D4CE25083000C4CE2509D
:101620000023C4000C4D2C192360636083000B4C15
:10163000E250401C0128ECDB00220B4B1B681A70A7
:1016400030BD000050030020600700203803002058
:101650003C030020510300204003002048030020E9
:101660004C0300204E030020180300201403002028
:1016700010B521480078012802D100F0BDF80CE037
:101680001D481E4908601E481E4908601E48006823
:101690001E490860FFF780FC00BF00BF1C481749C7
:1016A00008601C48174908601B4818490860FFF784
:1016B00073FC1A4811490860194812490860194812
:1016C00012490860FFF768FC17480C490860174882
:1016D0000C49086016480D490860FFF75DFC154885
:1016E000064908601448074908601448074908601B
:1016F000FFF752FC10BD0000B801002010030020CD
:10170000B901002014030020BC01002018030020B0
:101710009002002091020020380B0020920200204D
:1017200093020020380C0020940200209502002033
:10173000380D00209602002097020020380E00206D
:1017400070B50024002012490968087000BF0DE040
:101750006000104909684518DC2060430E494018B4
:101760008030806D00B22880601CC4B2012CEFDB99
:10177000600008490968451802210648006802F01F
:10178000EFFE00B22880042001490968087070BD8E
:1017900014030020180300206007002070B5002407
:1017A000002012490968087000BF0DE06000104970
:1017B00009684518DC2060430E4940188030806D70
:1017C00000B22880601CC4B2012CEFDB6000084925
:1017D0000968451802210648006802F0C1FE00B2FF
:1017E0002880042001490968087070BD1403002096
:1017F000180300203C08002000B5002100226B4B9C
:101800001A7000BFCBE00B0002F088FE08051C3503
:101810004C657C95ACC5664A1268664B9A4208D105
:101820006548664A926D12B202800246604B1A60A9
:1018300007E06048614A926D12B2028002465C4B3A
:101840001A60A9E05E4A12685E4B9A4209D15E486E
:101850005A4ADC32926D12B202800246584B1A602C
:1018600008E05848554ADC32926D12B202800246B6
:10187000534B1A6090E0554A1268554B9A4208D172
:101880005448554A926D12B2028002464F4B1A607C
:1018900007E04F48504A926D12B2028002464B4B0D
:1018A0001A6079E04D4A12684D4B9A4209D14D4871
:1018B000494ADC32926D12B202800246474B1A60EE
:1018C00008E04748444ADC32926D12B20280024678
:1018D000424B1A6060E0444A1268444B9A4208D175
:1018E0004348444A926D12B2028002463E4B1A604F
:1018F00007E03E483F4A926D12B2028002463A4BE0
:101900001A6049E03C4A12683C4B9A4209D13C4873
:10191000384ADC32926D12B202800246364B1A60AF
:1019200008E03648334ADC32926D12B20280024639
:10193000314B1A6030E0334A1268334B9A4208D177
:101940003248334A926D12B2028002462D4B1A6021
:1019500007E02D482E4A926D12B202800246294BB2
:101960001A6019E02B4A12682B4B9A4209D12B4876
:10197000274ADC32926D12B202800246254B1A6071
:1019800008E02548224ADC32926D12B202800246FB
:10199000204B1A6000E000BF00BF4A1CD1B20129F1
:1019A00000DA30E70122014B1A7000BDB9010020B6
:1019B000BC01002038090020380A0020BC080020A3
:1019C000C8010020C0010020C4010020D401002073
:1019D000CC010020D0010020740A0020E00100208A
:1019E000D8010020DC010020EC010020E4010020EF
:1019F000E80100202C0C0020F8010020F00100205C
:101A0000F401002004020020FC010020000200205C
:101A1000E40D002010020020080200200C0200202B
:101A2000002000220C4B1B681A7000BF0DE0420022
:101A30000A4B1B68D118DC224243094BD218803272
:101A4000926D12B20A80421CD0B20128EFDB022252
:101A5000014B1B681A707047140300201803002004
:101A60003C08002038B500251C4800680078022892
:101A700032D11B4800684478240219480068007875
:101A8000001984B26946204602F098FB05461449C5
:101A900000980968087000980004000E1049096851
:101AA000487000980002000E0D490968887000987F
:101AB000000E0B490968C870681C002808D1EE2088
:101AC000074909680870012004490968087003E0A3
:101AD000042002490968087038BD00001403002082
:101AE0001803002010B510480068007800281AD1AB
:101AF00002F0E2FA0D4800780D49096808700B48B9
:101B0000008800120A490968487009480068841C66
:101B100002210748006802F023FD00B22080042063
:101B200001490968087010BD140300202E00002030
:101B30001803002038B500251C48006800780228EA
:101B400032D11B48006844782402194800680078A4
:101B5000001984B26946204602F096FB05461449F6
:101B600000980968087000980004000E1049096880
:101B7000487000980002000E0D49096888700098AE
:101B8000000E0B490968C870681C002808D1EE20B7
:101B9000074909680870012004490968087003E0D2
:101BA000042002490968087038BD000014030020B1
:101BB00018030020F8B500262048006800780628A1
:101BC0003AD11F48006845782D021D48006800780A
:101BD000401985B21A480068447924021848006800
:101BE00000790419240216480068C07804192402F8
:101BF00013480068807804192146284602F00CFB3F
:101C00000646701C002804D1EE200D4909680870B2
:101C10000EE000200A49096808702046FEF752FFCE
:101C2000074608493846FEF753FEA900064A5050B9
:101C30000120024909680870F8BD00001403002063
:101C40001803002000007A44E8000020F8B50024C2
:101C5000002500271F4800680078042838D11E4856
:101C60000068861C02211C48006802F079FC07B25B
:101C7000305FB84224D118480068447824021648DE
:101C800000680078001984B202F03AFA0146204652
:101C9000DC3806225043081885B2284602F046FA7E
:101CA00002F00AFA0D480088A84204D101200A492E
:101CB0000968087008E0002007490968087003E017
:101CC000EE2005490968087001200249096808707A
:101CD000F8BD000014030020180300202E0000208F
:101CE00070B500261C4800680078062833D11B48D0
:101CF000006845782D02194800680078401985B2BF
:101D000016480068447924021448006800790419D0
:101D1000240212480068C078041924020F480068A1
:101D2000807804192146284602F0DCFA0646701C29
:101D3000002804D1EE2009490968087007E0002056
:101D400006490968087020B26900054A505201200E
:101D500001490968087070BD1403002018030020B1
:101D600028010020F0B589B00646002008900790B1
:101D700000240025069005900390039880005C499C
:101D80000F585C48805D02908420C05980B2019059
:101D90000120029988400199084000908421009810
:101DA000C851554800680221884353490860039888
:101DB00000F064FD039800F0D1FE304600F07CFC9A
:101DC00000B2069000BF00BF38460299FFF712F834
:101DD00004B20120C002844203DA401E001B05B297
:101DE00000E025460121C9020698081A00B20790B2
:101DF000424841790798FEF7B1FA00B208900020F6
:101E000004904DE000BF00BF00BF00BF0498401C1D
:101E1000C0B204900898281805B2002D01DD2846AC
:101E200000E000203649884201DD084604E0002D2C
:101E300001DD284600E0002005460120C002854261
:101E400003DA401E401B04B200E02C4600BF00BF76
:101E50002C480078012804D120460799FFF772F832
:101E6000044600BF00BFA2B20299039800F014FD1F
:101E7000039800F003FD039800F070FE304600F078
:101E80001BFC00B206900121C9020698081A00B294
:101E900007901A4841790798FEF760FA00B2089057
:101EA0000898002802D004980A28ABDB00BF00BFC6
:101EB0000121C9022046884305900846844204DD7A
:101EC0000598C043401C00B2059071000E4A059869
:101ED000505271000D4A0798505284210198C85100
:101EE00005480068022108430349086009B0F0BDB5
:101EF000040000201300002080000E400D00002090
:101F0000FF0F000000000020140000201600002039
:101F100010B501F009FE2E4800680121C90388436D
:101F20002B49086008460068890208432849086070
:101F300028480069042108432649086124480068AC
:101F40000121490508432249086001F0F7FD2248B4
:101F5000006B40210840002839D11F48C06A400862
:101F600040001D49C8621C484038006840210843B1
:101F700019494039086008460068402188431649DD
:101F8000403908601448C06A012108431249C862F8
:101F900001201249087030BF0F48C06A4008400055
:101FA0000D49C8620C4840380068402108430A497E
:101FB0004039086008460068402188430649403996
:101FC00008600548C06A012108430349C86210BD82
:101FD0000020005000ED00E0400002401900002009
:101FE00010B501F0A1FD0B4800680121C903884329
:101FF0000849086008460068890288430549086066
:1020000005480069042188430349086101F096FDF1
:1020100030BF10BD0020005000ED00E070B5044658
:102020000026002501F080FD00BF16480069C007AA
:10203000C00F0028F9D11348806940210843114995
:1020400088612220C86060198008800048600120F3
:10205000086100BF00BF0B480069C007C00F00281F
:10206000F9D10848806940210840002805D005487A
:102070008069084303498861012601F05FFD30460D
:1020800070BD000000C0005010B501F04DFD0E48BD
:102090000068012108430C49086008460068FF21D8
:1020A0000131084308490860084600688021084358
:1020B000054908600846006808210843024908608D
:1020C00001F03CFD10BD000000C00050FEB505460B
:1020D0000C461646009601F027FD00200190E01CFA
:1020E0008008800084B200BF20480069C007C00F8C
:1020F0000028F9D11D488069402108431B498861A7
:1021000000272BE000201949C86001982818800892
:1021100080004860002088600120086100BF00BF87
:1021200012480069C007C00F0028F9D10F48806924
:1021300040210840002805D00C48806908430B491D
:1021400088610DE0094882683846791C8FB28100A9
:10215000009842502D1D361D201F84B2002CD1D175
:1021600000BF01F0EBFC2846FEBD000000C000509F
:10217000F8B505460C46164600270020009001F0F1
:10218000D3FCE01C8008800084B200BF1C480069BA
:10219000C007C00F0028F9D11948806940210843C1
:1021A0001749886124E021201549C860E819800892
:1021B00080004860306888600120086100BF00BF6F
:1021C0000F480069C007C00F0028F9D10C4880698A
:1021D00040210840002807D0094880690843084981
:1021E00088610120009005E02D1D361D201F84B25E
:1021F000002CD8D100BF01F0A1FC0098F8BD000070
:1022000000C0005010B50121022001F05BFBFFF778
:102210003BFF10BD10B5002416480078002810D1EF
:102220001548007800280CD000BF07E02046FEF7D4
:1022300051FEA100114A5050601CC4B2012CF5DBC4
:1022400012E00D48007800280ED100240AE0DC20BE
:1022500060430B4940188030806DA100074A505000
:10226000601CC4B2012CF2DB0348007801490870FD
:1022700010BD00009001002098020020D400002032
:102280003C080020F8B50027002429E0DC2060434A
:102290002B4940188030806DA1002A4A5158401ABD
:1022A000002801DA002009E0DC20604324494018BE
:1022B0008030806DA100234A5158401A00B261005D
:1022C000214A50526100505EFEF7FCFB0090A000D6
:1022D0001E4A1158009802F0D5FB0746601CC4B294
:1022E000012CD3DB1A480078002824D019484578FF
:1022F0002D02007845191748C6783602807886196D
:102300003146284602F09AF91349086008460168E8
:102310003846FEF7DDFA07463846FEF789FB00B27D
:10232000012801DA012003E03846FEF781FB00B204
:102330000A49088002E0002008490880F8BD000032
:102340003C080020D4000020D80000204C010020D0
:102350009802002099020020D00000209201002065
:1023600070B50025002601F08BFD00BF2FE001F0C5
:1023700037FC002425E0204600F040F90646DC202A
:10238000604314494018A90046502146304602F0E7
:10239000D3F8DC216143104A8918AA008850342DF3
:1023A0000DDBDC2060430C494018A90041580C208B
:1023B00060430A4A82182846343880001150601C55
:1023C000C4B2012CD7DB02F073F8681CC5B2372DFC
:1023D000CDDB70BD600700203C08002054070020C2
:1023E00010B513480078002821D011480068000A71
:1023F00000020F4908600F480068401E0D49086040
:1024000008460068002806DC01F000FE01F038FDF7
:1024100064200849086001F097FBFFF7FBFEFFF717
:1024200031FF01F0E3F9FFF723F901F0A5FF10BD3B
:10243000300000208C01002070B50446022C06DA22
:10244000600004490D5A284600F096F806463046CA
:1024500070BD00002A000020F8B504460D46022C8D
:1024600036DA60001B490E5A2B0002F057F80504BB
:10247000090E17202F000221304602F025FA26E02F
:102480000021304602F020FA21E00121304602F01E
:102490001BFA0021304600F0A1F818E00121304677
:1024A00002F012FA0121304600F098F80FE0012105
:1024B000304602F009FA304600F05EF80746012087
:1024C00047403946304600F089F800E000BF00BFC1
:1024D000F8BD00002A00002010B5024600210020AF
:1024E0000AE013460341DB07DB0F002B02D0012378
:1024F00083401943431CD8B21028F2DB0904034B74
:102500005B680B43014C636010BD0000004000504D
:10251000014600200EE00A460241D207D20F002AEF
:1025200006D0064A526A012383409A43034B5A62FB
:10253000421CD0B21028EEDB704700000040005073
:1025400010B502460B4B5968090C00200CE01346ED
:102550000341DB07DB0F002B04D0012383400C4633
:102560009C432146431CD8B21028F0DB0904014BE0
:10257000596010BD0040005001460548806882B295
:1025800010460840002801D0012070470020FCE7D9
:102590000040005030B5024600201AE013460341C7
:1025A000DB07DB0F002B12D0012908D10A4B1B6877
:1025B00045000124AC402343074C236007E0064B51
:1025C0001B6845000124AC40A343034C2360431C1B
:1025D000D8B21028E2DB30BD00400050002905D001
:1025E000054A92680243044B9A6004E0024A9268EA
:1025F0008243014B9A6070470040005070B504461A
:1026000000250026204601F031FA0546002D01DDA7
:10261000284600E0684203214902884229DD00F093
:10262000C5FA2046FFF79EFB00F0A6FA204601F00F
:102630001DFA0646A00011490858A91B4018A10020
:102640000E4A5050A00011460858002802DDA00094
:10265000085803E0A0000949085840420849884248
:1026600003DB0020A100054A5050354605200549EE
:102670000870A00001490858401970BD940100205D
:10268000606D00004801002010B5002404E02046E1
:1026900000F02CF9601CC4B2012CF8DB044800687F
:1026A000022108430249086000200249087010BD59
:1026B00080000E400C000020F8B504460021009177
:1026C0000025A80005490E580548075D6A463946A9
:1026D0003046FEF79AFB68460088F8BD04000020EB
:1026E000130000203EB500250121102001F032F931
:1026F0000021062001F0ACF80121080701F004F9DF
:102700000121042001F0DEF8402001F059F80121F8
:10271000402000F0F3FF00216846417001218170E4
:102720000221C1700421017141710121017207214F
:1027300081710221C17101701D480078022800D109
:1027400000E0012069464872002407E01948015D55
:1027500001208840284385B2601CC4B2012CF5DBFF
:1027600068464581144908686946FEF713FB13481B
:1027700000680121C9050843104908600F4840302E
:10278000006AC90508430D49403108620846006ADD
:102790000121090708430949403108620748803888
:1027A00000680121084305498039086000203EBDCA
:1027B00034000020130000200400002000010E401F
:1027C0003EB5044600250121102001F0C3F8002188
:1027D000062001F03DF80121080701F095F80121DC
:1027E000042001F06FF8402000F0EAFF01214020B2
:1027F00000F084FF002168464170012181700221B0
:10280000C17004210171417101210172072181719F
:102810000221C1710170012141720120A0402843B1
:1028200085B268464581134908686946FEF7B2FAE1
:10283000114800680121C90508430F4908600E4886
:102840004030006AC90508430B4940310862084618
:10285000006A012109070843074940310862064818
:10286000803800680121084303498039086000204E
:102870003EBD00000400002000010E408200054B18
:102880009958802252580123DB021A4380235A5060
:102890007047000004000020F8B504460D461646B7
:1028A000A00004490F58324629463846FEF7B8FAC8
:1028B000F8BD00000400002070B503468C009D00A8
:1028C000094E7059FF2501352D580726A640B543FE
:1028D000FF260136355035462D581646A64035435D
:1028E000FF260136355070BD04000020F1B58EB0D2
:1028F00000BF00200D9000240C9000250B90059047
:10290000059880008D49085804908D490E98085C00
:10291000039004988030406880B2029001200399AF
:1029200088400299084001900498803001994160E4
:10293000002201210598FFF7BFFF002211460598EC
:10294000FFF7BAFF0598FFF799FF059800F006F921
:102950000E98FFF7B1FE05B20120C002281A002828
:1029600003DD0120C002281A02E00120C002401B42
:1029700006B21B20000270430A907D20C00009901F
:1029800007AB08AA09990A9800F03CFAFF21F53133
:102990000798884202D30898401C0890089800B213
:1029A0000D900D9C002C01DD204600E000206549C3
:1029B000884201DD084604E0002C01DD204600E0ED
:1029C000002004460120C002854203DA201804B228
:1029D0000C9403E05B48001B00B20C90A2B2039978
:1029E0000598FFF759FF00BF00BF002783E078007C
:1029F000381855490A5C01210598FFF75DFF7800FA
:102A0000381851494018427800210598FFF754FFC3
:102A10000598FFF733FF059800F0A0F80E98FFF730
:102A20004BFE05B20120C002401B06B278003818E8
:102A3000454A801881783046FDF790FC00B20D9031
:102A400000BF00BF002006904DE00698401CC0B2B9
:102A500006900D990C98401800B20C900C98002824
:102A600001DD0C9800E000203849884201DD08466D
:102A700005E00C98002801DD0C9800E000200C9087
:102A80000121C9020C98884204DA491E0C98081AE0
:102A900004B200E00C9C2E480078012804D1314695
:102AA0002046FEF74FFA044600BF00BFA2B20399CA
:102AB0000598FFF7F1FE0598FFF7E0FE059800F096
:102AC0004DF80E98FFF7F8FD05B20120C002401B3B
:102AD00006B2780038181C4A801881783046FDF715
:102AE0003DFC00B20D900D98002802D006980A28EF
:102AF000ABDB781CC7B2022F00DA78E700BF00BF5B
:102B00000121C902204688430B900846844204DD17
:102B10000B98C043401C00B20B900B9881B20E98EA
:102B200040000C4A11520E9840000B4A165204986D
:102B30008030029941600FB0F0BD00000400002019
:102B400013000020FF0700000D000020FF0F000011
:102B500000000020140000201600002070B504467C
:102B6000A00004490D5800BF2846FEF762F900286E
:102B7000FAD070BD040000200A48006801218905D0
:102B800088430849086007488038006840084000CA
:102B90000449803908600448006B80218843024959
:102BA0000863704700010E40002000500A48006B87
:102BB000802108430849086308480068490208431F
:102BC0000649086005488038006801210843034928
:102BD00080390860704700000020005000010E405E
:102BE00010B500240D480068FF2109028843FF301A
:102BF00001300A49086008460068000A00020860BF
:102C000000200749087007490870642404480078C8
:102C100005490870204601F011FC10BD300000206D
:102C20001B0000201A000020E602002010B5044618
:102C30000A2C01DD012010BD204600F081F801289A
:102C400002D1204600F054F80020F4E710B500242B
:102C500000BF04E02046FFF7E9FF601CC4B20A2C65
:102C6000F8DD002010BD000010B50D480D490968C1
:102C70000160FF220421001DFDF75DFBFF220421FE
:102C800007480830FDF757FBFF22FD218900044863
:102C90000C30FDF750FBFFF7B5FA002010BD000027
:102CA000540300200C4B0000F8B504460D461646B0
:102CB0001F460A2C01DD0120F8BDA819FD2189005D
:102CC000884201D90120F7E720463030074B012226
:102CD0009202002101F089FC04480C30411932466F
:102CE0003846FDF7E7FA0020E6E70000540300202D
:102CF00070B5044600250A2C01DD012070BD0E4888
:102D00000E4909680160FF22FD2189000C30FDF7A2
:102D100012FBFD21890008480C3001F039FC054602
:102D20000548456020463030034B012292020021C5
:102D300001F06BFC0020E1E7540300200C4B000085
:102D400070B5044600250A2C01DD012070BD204627
:102D500030300E4B01229202002101F046FC0B485C
:102D600000680B49884201D00120EFE7FD2189006E
:102D700006480C3001F00CFC054604484068A842A7
:102D800001D00120E2E70020E0E70000540300202A
:102D9000A55A5AA5F8B504460D4616461F4600200A
:102DA00000900A2C01DD0120F8BDA819FD21890041
:102DB000884201D90120F7E720463030104B01222C
:102DC0009202002101F011FC0D490C3148193246E4
:102DD0003946FDF76FFAFD21890009480C3001F0F2
:102DE000D7FB0090064900984860204630300B46DB
:102DF00001229202002101F008FC0020D4E700002B
:102E00005403002030B504460848046041608068DF
:102E100010600648C0681860044800690225284010
:102E2000002801D0002030BD0120FCE70040015007
:102E300070B5FF24FF250120514908705148C06A30
:102E40000121C9030840002808D04E488030006B9B
:102E5000C407E40F00204C4908708FE04948C06A5D
:102E60002021084000282DD04648403000694748BE
:102E7000007841004018464940184078012808D0A1
:102E800042480078410040184149401840781128D4
:102E900014D13E480078410040183D4940188078E0
:102EA0003C490978884209DD3B480068394909787E
:102EB000455C38480078401C36490870E8B200F09C
:102EC000BBFB5BE02F48C06A0421084000283FD0CC
:102ED0002C48046931480078C007C00F00280FD083
:102EE0002E480068400840002C49086027490C70B3
:102EF0000846007800F06EF80020294908703DE08F
:102F00002248007841004018214940184078102894
:102F100008D01E480078410040181D4940184078EC
:102F200011282BD119480078410040181849401841
:102F300080781B490978884220DD17490968184ABA
:102F400012788C5416480078401C1549087015E01A
:102F50000C48C06A01214902084000280ED00948E7
:102F60004030006A0D48006840084000401C0B4992
:102F7000086000200A4908700649087070BD00000A
:102F80001800002000000240190000200C0300205F
:102F900084530000280000200803002024000020A3
:102FA000290000200348C06A012108430149C86282
:102FB000704700004000024000200149086370474C
:102FC000000002400249096B0143014A1163704746
:102FD0000000024010B5044660002018F849085C63
:102FE00065286FD03ADC1F286DD011DC030001F09A
:102FF00095FA1B6B6C72767A7E8387928B94929291
:10300000929292989CA4A8ACB0B4B8BDC1C59200ED
:103010002A2870D009DC2038030001F07FFA0AB9B1
:10302000BDC4C8CCD0D4D8DCE07C602870D00CDC27
:1030300050286ED004DC2B286CD02C286BD1DAE021
:10304000512869D05228F9D1E1E0612871D0622875
:1030500070D063286FD06428F0D10DE17B286BD04D
:103060000FDC6638030001F059FA15EEEDECEBEADF
:10307000E9E8E7E6E5E4E3E2E1E0DFDEDDDCDBDA38
:103080005600862871D009DC7C38030001F046FA2E
:103090000AEEEDECEBEAE9E8E7E6E543D02871D08B
:1030A00007DC8738030001F039FA05F0EFEEEDECAC
:1030B0003600D12867D0D22873D0D32872D0D42834
:1030C000BCD13EE2E2E05FE045E20120BD4908708C
:1030D00000F00AFE3FE2BC48BC4908603BE2BC4845
:1030E000BA49086037E2BB48B849086033E2BA48D9
:1030F000B64908602FE276E00120B84908702AE25C
:103100000120B749087026E20120B649087022E282
:1031100081E074E06BE018E275E0B348AB49086009
:1031200019E2B248A949086015E2B148A749086008
:1031300011E289E08CE09AE00DE1AE48A349086015
:1031400009E2AD48A149086005E2AC489F49086022
:1031500001E2AB489D490860FDE1AA489B4908602F
:10316000F9E1A94899490860F5E120E1A7489749A4
:103170000860F0E1A64895490860ECE1A54893494C
:103180000860E8E1CAE1D0E1A34890490860E2E1C3
:10319000A2488E490860DEE1A14800688B490860BA
:1031A000D9E1C6E1C9E19F4888490860D3E19E485A
:1031B00086490860CFE19D4884490860CBE19C487E
:1031C00082490860C7E19B4880490860C3E19A488A
:1031D0007E490860BFE199487C490860BBE1984896
:1031E0007A490860B7E1974878490860B3E19648A2
:1031F00076490860AFE1954874490860ABE19448AE
:1032000072490860A7E1934870490860A3E19248B9
:103210006E4908609FE191486C4908609BE196E027
:1032200091E08CE087E082E07DE078E073E06EE0A2
:1032300068E062E05CE056E050E04AE044E03EE0F6
:1032400038E032E02CE026E085486049086082E101
:10325000844800685D4908607DE1A4E09FE09AE051
:1032600095E090E08BE086E081E07CE077E07E48CE
:103270000068564908606EE17C4800685349086060
:1032800069E147E142E13DE138E194E078480068D6
:103290004E4908605FE1774800684C4908605AE190
:1032A000754800684949086055E174480068474915
:1032B000086050E172480068444908604BE1714879
:1032C00000684249086046E16F4800683F4908606D
:1032D00041E16E4800683D4908603CE16C48006887
:1032E0003A49086037E16B4800683849086032E1C4
:1032F00069480068354908602DE16848006833492D
:10330000086028E1664800683049086023E16548A4
:103310002E4908601FE164482C4908601BE163489E
:103320002A49086017E162482849086013E16148AA
:10333000264908600FE16048244908600BE15F48B6
:103340002249086007E15E482049086003E15D48C2
:103350001E490860FFE05C481C490860FBE05B48D0
:103360001A490860F7E05A4818490860F3E05948DC
:1033700016490860EFE0584814490860EBE05748E8
:1033800012490860E7E0564810490860E3E05548F4
:103390000E490860DFE054480C490860DBE0534800
:1033A0000A490860D7E0524808490860D3E051480C
:1033B00006490860CFE0504804490860CBE00000AF
:1033C000845300001C0300202C0900200803002067
:1033D000B0010020B2010020B40100201E03002033
:1033E0001D0300201F030020B601002098020020CA
:1033F000990200209E020020A3020020A8020020C3
:10340000AD020020B2020020B7020020BC02002062
:10341000C1020020C6020020FE020020CB020020D4
:10342000D0020020D4020020D6020020D8020020C2
:10343000DA020020DC020020DE020020E002002090
:10344000E2020020E4020020FF020020000300202E
:10345000E6020020E7020020E9020020B801002077
:10346000B9010020BC010020C8010020D4010020C7
:10347000E0010020EC010020F801002004020020FF
:10348000100200201C02002028020020340200202C
:10349000400200204C02002058020020640200205C
:1034A00070020020740200207602002078020020C2
:1034B0007A0200207C0200207E0200208002002090
:1034C0008202002084020020860200208802002060
:1034D0008A0200208C0200208E0200209002002030
:1034E00091020020380B002092020020930200205D
:1034F000380C00209402002095020020174818493B
:10350000086028E017481649086024E01648144966
:10351000086020E01548124908601CE001201449A9
:10352000087014480E49086015E00120124908701F
:1035300011E012480A4908600DE011480849086086
:1035400009E010480649086005E00F480449086092
:1035500000BF00BF00BF00BF10BD0000380D00203D
:10356000080300209602002097020020380E002059
:1035700021030020ED02002020030020EE020020A5
:10358000F0020020F2020020380F002070B500F099
:10359000B9FB054600F0BCFB0446094805604460E1
:1035A000601C002802D1012006490870BE20044991
:1035B0000872EF20487204480449086070BD00009A
:1035C0002C09002000000020380F002008030020F4
:1035D0001849C96AC907C90F164AD1620178154A44
:1035E000403A916000211160114609688022114320
:1035F000104A403A11604178082901DD08214170E4
:103600004178002901D1012141704178491E094AC0
:10361000403A91638178082901DD08218170817821
:10362000002901D1012181708178491E014A403A67
:10363000D163704740000240034A5269D1B2024A46
:10364000403A106100BF70474000024009480068DE
:1036500040084000401C07490860084600680221F5
:1036600088430449086008460068042188430149EA
:10367000086070472400002010B50121084600F0C2
:1036800021F90548FEF728FF002001F0E1F80221AA
:10369000880201F019F910BDFF070000F8B50646D1
:1036A0000C46002500BF002700BF16E00C20604339
:1036B00011494118681C800009580C2060430E4ACB
:1036C0008018AA0081500C2060430B494118681CE7
:1036D00080000858C719681CC5B2022DE6DB0C2013
:1036E0006043054940188660BF1903213846FCF73E
:1036F00035FE00900098F8BD5407002010B5024632
:10370000032900DD03210846102A30D008DC012AF5
:1037100011D0022A16D0042A1BD0082A4AD11FE051
:10372000202A2BD0402A30D0802A35D0D31FF93B15
:10373000002B3FD137E0214B1B68840123431F4CF2
:10374000236038E01D4B1B68840323431B4C23601C
:1037500031E01A4B1B6884052343184C23602AE090
:10376000164B1B6884072343144C236023E0134B40
:103770005B6884012343114C63601CE00F4B5B6862
:10378000840323430D4C636015E00C4B5B68840598
:1037900023430A4C63600EE0084B5B6884072343B5
:1037A000064C636007E0054B9B6884012343034C90
:1037B000A36000E000BF00BF10BD000000E400E017
:1037C000014600200DE0012282400A40002A06D076
:1037D000054A1268012383401A43034B1A60421CB6
:1037E000D0B20928EFDB704700E100E010B51248C5
:1037F000007812490870124800681249884208D1BE
:103800008C1C11490020085E208020460C4908606D
:1038100007E00C4C0C490020085E20802046084937
:1038200008600A490020085E074900228A5E90422B
:1038300001DA01F06EF810BD98020020CB020020E2
:10384000D0020020CC02002092010020280100209C
:1038500030B502461A4CA069012A15D0022A1AD0A6
:10386000042A0AD0062A1BD120250446AC43204650
:1038700010250446AC43204613E020250446AC4303
:103880002046102420430CE0202420431025044629
:10389000AC43204605E0202420431024204300E0D0
:1038A00000BF00BF064CA061E0690B46FF252D0458
:1038B0000446AC4320461C042043014CE06130BD6B
:1038C0000028005010B50246002018E01346C340FF
:1038D000DB07DB0F002B10D0012907D1094B5B68F8
:1038E000012484402343074C636006E0054B5B687A
:1038F00001248440A343034C6360431CD8B20528D1
:10390000E4DB10BD0028005070B505460E4600F0FF
:103910000BF9002417E00120A0402840002810D017
:10392000012E07D10A4880680121A14008430849B7
:10393000886006E0064880680121A1408843044968
:103940008860601CC4B2202CE5DB00F0F7F870BD85
:103950000028005070B505460E4600F0E5F800243A
:1039600017E00120A0402840002810D0012E07D1E8
:103970000A4800680121A14008430849086006E0A0
:10398000064800680121A140884304490860601C82
:10399000C4B2052CE5DB00F0D1F870BD0028005062
:1039A0000146012904D0022904D0032906D103E0ED
:1039B000022004E0032002E0072000E000BF00BF77
:1039C000034A5269F0231A401043014A506170477C
:1039D0000028005070B5054600F0A6F80C48846930
:1039E000032D02D0052D0CD106E00221204688438C
:1039F00004466408640005E002200443640864008F
:103A000000E000BF00BF0248846100F097F870BD7D
:103A100000280050F8B504460B4600200090981886
:103A200037281EDC002119E0DC2060430E4E80198F
:103A30005E18B6008059DC2666430B4FF6195F18F6
:103A40007F1CBF00F659851B002D01DD284600E0D4
:103A500068424043009E80190090491C501E8842D5
:103A6000E2DC0098F8BD00006007002070B5044655
:103A70002046FEF721FE0121C902401A05B2284660
:103A800070BD10B5002403E0A0B200F00FF8641C74
:103A9000102CF9DB10BD10B5002403E0A0B200F03B
:103AA00025F8641C012CF9DB10BD0000F8B50446B4
:103AB000102C00DBF8BD6946204600F07FFB054670
:103AC000681C002800D1F5E70098FCF7FBFF0646CC
:103AD00004493046FCF7FCFEA100034A505000BFE9
:103AE000E8E7000000007A44E800002038B504460A
:103AF000102C00DB38BD6946204600F0C5FB0546AA
:103B0000681C002800D1F5E7009800B26100024A65
:103B1000505200BFEEE700002801002010B5FFF76B
:103B2000B0FFFFF7B8FF10BD592003490860162009
:103B3000086088200860704700010050002001499B
:103B4000086070470001005070B500240025002671
:103B5000FFF72CF800F044F8FFF70EF800BF37E04D
:103B6000DC2262431C4BD218111DDC226243D018A8
:103B7000D822FCF769FBDC226243184BD218111DD6
:103B8000DC226243D018D822FCF75EFBE0B2FEF7DD
:103B900035FD0546DC2060430F49401880308565BF
:103BA000E1B2284600F0C8FC0546DC2060430B4922
:103BB000401880308565E1B22846FFF76FFD064664
:103BC000DC2060430549401880308665601C84B263
:103BD000012CC5DB70BD0000600700203C08002000
:103BE00010B5094800680121C90208430649086068
:103BF00000BFFEF7F5F9054800780028F9D000204D
:103C00000249087010BD000080000E400C0000202A
:103C1000F0B585B004463048406880B202902E4826
:103C2000803801902C48E43000902B4800680490C4
:103C300029488030006803900021A200009881503C
:103C40002648006B80210843244908632448224900
:103C5000803108602348204908600120A040486066
:103C600008460068C91408431B49086000BF1A4889
:103C70008038FDF7DEF80028F9D0A1000198405AFD
:103C80000605360D2F2000051349803108601248C3
:103C90000068C91408431049086000BF0E48803806
:103CA000FDF7C7F80028F9D0A1000198405A070590
:103CB0003F0D094980310398086007490298486020
:103CC000049808600548006B802188430349086315
:103CD000F51B28B205B0F0BD80000E40002000505A
:103CE0000000F02009C04F20BFF3408F0248034975
:103CF000C860BFF3408F70470400FA0500ED00E094
:103D000070470000014908687047000000ED00E0BE
:103D100005210907086870470149496988B2704759
:103D20004000005010B5024605231B0758681300D9
:103D300000F0F4FB06040E183B5C6773012902D106
:103D40001023184303E010240346A343184665E0FC
:103D5000022902D14023184303E040240346A34331
:103D600018465BE0052903D103239B0418431BE09D
:103D7000022906D18B0418434C040346A34318467A
:103D800012E0032907D10124E4040346A3431846A3
:103D90006310184308E00124E4040346A3431846D3
:103DA00064100346A343184638E0062902D1CB0429
:103DB00018431AE0012906D14B0518430C050346A8
:103DC000A343184611E0042906D1CC040346A343BB
:103DD00018468B04184308E0012464050346A343F6
:103DE000184664100346A343184617E0082902D179
:103DF000CB04184304E00124A4050346A34318465A
:103E00000CE0072903D101231B06184304E0012419
:103E100024060346A343184600E000BF00BF052365
:103E20001B07586010BD000005480069C1B2802022
:103E30000840002801D0002070470120FCE7000066
:103E4000400000500246012904D19306180E0123B8
:103E5000184300E00020014B1861704740000050FB
:103E60000648006902218843044908610846006940
:103E700002210843014908617047000040000050DA
:103E8000F0B585B03F4909783E4A52781202891848
:103E900008B2FCF717FE07463B49FCF719FD06463A
:103EA00000255DE044206843384A1158304600F050
:103EB000BFFD54D2002D0FD100240AE044206843F6
:103EC00032494018001DA1004058A100304A50500E
:103ED000641C102CF2DB41E000243DE06A1E442308
:103EE0005A432A4B995844226A43985800F022FEBC
:103EF00044216943254A03905058314600F01AFE88
:103F00000090681E44225043204A8018001DA200E1
:103F10008158009800F0B6FD0746681E44225043C1
:103F20001A4A1158304600F005FE009044206843BC
:103F3000164A8018001DA2008158009800F0A2FDCA
:103F40003946019000F02EFD02900399FCF7C0FC69
:103F5000A1000F4A5050641C102CBFDB02E06D1C06
:103F6000082D9FDB00BF082D0ADB002406E0A1001E
:103F700008484058A100064A5050641C102CF6DB3B
:103F800005B0F0BDE90200200000204164510000AE
:103F90004C0100204453000010B518480078002858
:103FA0001DD01748C06A400840001549C86214482F
:103FB00040380068402108431149403908600846EC
:103FC0000068402188430E49403908600C48C06AA7
:103FD000012108430A49C8620020084908700948BD
:103FE00000F0D0F808480068000A00020649097885
:103FF000491CC9B208430449086010BD19000020DB
:10400000400002400000014030000020F8B500F000
:1040100077F80446204600F017F80646084930466F
:1040200000F030FD0746FCF703FD05B205490D70B1
:104030002804000E48708C702012C870F8BD000073
:1040400000002041E9020020F0B585B00746154880
:10405000008800280ED013490988C81BFCF732FDE0
:1040600006461149FCF734FC0546104900F09AFC5D
:10407000044613E03846FCF72DFD0B490090FCF791
:1040800027FC0190FCF7FAFB0546094A094BFCF7AF
:10409000DDFB03910290FCF707FA0446204605B0C9
:1040A000F0BD00002E000020000070420000B04172
:1040B0006666666666D27E4038B56A4604210E485A
:1040C000FEF704F86846017840780818C4B26846DC
:1040D0008078A0420ED1684640780849088008469A
:1040E00000780006000C08806846007809880843BC
:1040F0000249088038BD0000000F10002E0000208B
:1041000010B5FFF7ADFE00BFFFF78EFE0028FBD114
:10411000FFF702FE0446204610BD10B5FFF7CCFFA6
:1041200001210020FFF78EFE10BD000038B50446C7
:10413000684604702004010E68464170017840789A
:104140000818C1B268468170FF21C1700B48FDF7A5
:1041500065FF684604702004010E684641700178CE
:1041600040780818C1B268468170FF21C1706A4664
:1041700004210348FDF7FCFF38BD0000000E1000CD
:10418000000F1000816801221143816070470168AF
:1041900001229207114301607047024600200B780C
:1041A0005B0718434B78DB0618438B781B051843D5
:1041B000CB78184310604B68536070473EB5044697
:1041C0000D46102C02DB0020C0433EBD062060439C
:1041D0000E4A811806226846FCF76CF80C480290DB
:1041E000684607C800F0B6F809480078EE2805D1FF
:1041F000074840780749095D884202D00020C04343
:10420000E3E70348406828600020DEE7925600009C
:1042100024030020F25600003EB504460D46102C43
:1042200002DB0020C0433EBD06206043134A8118D4
:1042300006226846FCF73EF811480290EE2010492D
:1042400008701048005D487008464560684607C819
:1042500000F089F8684607C800F07CF80848007844
:10426000EE2805D1064840780649095D884202D00B
:104270000020C043D7E70020D5E700009256000099
:1042800024030020F25600003EB504460D46102CD3
:1042900002DB0020C0433EBD062060430E4A811869
:1042A00006226846FCF706F80C480290684607C8E4
:1042B00000F050F809480078EE2805D1074840780A
:1042C0000749095D884202D00020C043E3E7034864
:1042D000406828600020DEE7025700002C03002021
:1042E000625700003EB504460D46102C02DB00204C
:1042F000C0433EBD06206043134A8118062268462B
:10430000FBF7D8FF11480290EE20104908701048C2
:10431000005D487008464560684607C800F023F80D
:10432000684607C800F016F808480078EE2805D15E
:10433000064840780649095D884202D00020C04303
:10434000D7E70020D5E70000025700002C0300202B
:104350006257000037B56C46A28861882078029BBE
:10436000FEF7A2FC3EBD37B56C46A2886188207876
:10437000029BFEF70FFD3EBD10B5174800780028E0
:1043800004D0012809D0022822D117E01348007870
:10439000002801D0FDF7BCFD1BE011480078002883
:1043A00001D1642000E0C82001460E48FBF7D6FF8B
:1043B0000D4908600220084908700AE00A480068B0
:1043C000401E09490860002801D10349087000E037
:1043D00000BF00BF10BD000018000020B601002083
:1043E0001A000020307500002000002008B50121CF
:1043F0000802FFF789FA2020FFF7E2F900212020C8
:10440000FFF77CF904210320FFF78CFC0321022035
:10441000FFF788FCFEF7D0FD89208000FEF7D2FD73
:104420005021684601700121417008218170FFF719
:10443000CFF8FFF70BF9FEF7B5FD08BD1CB5044634
:104440000420FFF7BDF902210420FFF757F90121ED
:104450000804FFF759FA0320FFF7A2FA0121684682
:10446000017041700021C170019469460348FFF753
:1044700094FE0248FFF78BFE1CBD000000000140C7
:104480001CB501210846FFF73FFA0320FFF7A2FA07
:104490000521684601700021C170012101710321CD
:1044A0004171002181700121417000F005F81CBDAF
:1044B00010B500F025F810BD70B5044625782D0222
:1044C0006078012801D180200543A078012801D11E
:1044D00040200543E078012801D1102005432079D0
:1044E000012801D102200543FFF71EFB03480560A8
:1044F000607902494860FFF721FB70BD0040004031
:1045000010B5FFF711FB0448006801210843024978
:104510000860FFF713FB10BD0040004030B4744644
:10452000641E2578641CAB4204D3635D5B00E31812
:1045300030BC18471D46F8E7F8B505460C46284636
:10454000FCF7C0FA0746A000044A1158384600F0AC
:1045500099FA0646FCF76CFAF8BD0000E800002066
:1045600030B50246002013460AE01C785B1C051299
:104570006C402406E40D054D2C5B05026C40A0B296
:104580000C46491E002CF0D130BD0000104F000039
:1045900030B502460C4600211346C94309E018789D
:1045A0005B1C48400006800D054D28580D0A6840E8
:1045B00001462046641E0028F1D1C84330BD0000EA
:1045C000104B000070B504460026A5022846FDF7F2
:1045D00025FD002806D1E81DFF30FA30FDF71EFD4D
:1045E000002800D00126304670BDFEB504460D46B9
:1045F00016461F46A002401900903A4631460098E0
:10460000FDF764FD01900198FEBDFFB581B0044641
:104610000D461646A002401900902046FFF7D2FF33
:104620000746012F02D1384605B0F0BD3146049A45
:104630000098FDF79DFD07463846F5E7F0B58DB0CB
:1046400006460F46FF20A530864201DD304601E0D8
:10465000FF20A5306749884201DD084607E0FF20BA
:10466000A530864201DD304601E0FF20A530064638
:104670006148874201DD384600E05F485E49EF311E
:10468000884201DD084605E05B48874201DD384687
:1046900000E059480746002408E0601C3C214843DC
:1046A000FF30A530B04200DD02E0641C052CF4DBD5
:1046B00000BF002508E0681C3C2148434E494018D3
:1046C000B84200DD02E06D1C052DF4DB00BF3C208C
:1046D000684349494018381A0C9020463C21484309
:1046E000FF30A530301A0B90681C484342494018EF
:1046F000C01B0A90601C3C214843FF30A530801B42
:104700000990142169433D4A8918A2008A580999E1
:1047100051430B460A9A534314216943374A891877
:10472000621C92008A580B994A430A994A439B1883
:10473000691C14225143314A8918621C92008A581C
:104740000B9951430C9A51435B18691C1422514335
:104750002A4A8918A2008A5809994A430C994A435F
:104760009818E1210901FBF7F9FD0790FCF7AAF978
:10477000089023490898FCF7ABF80190FCF77EF805
:10478000204A214B0391029000F0D8F807D21C492F
:104790000898FCF79DF80390FCF770F801E01948C1
:1047A00019490022194B0591049000F0C7F802D274
:1047B0000020164917E012490898FCF789F8039081
:1047C000FCF75CF80F4A104B0591049000F0B6F826
:1047D00007D20B490898FCF77BF80590FCF74EF8D8
:1047E00001E00848084907910690FBF75DFE0DB00F
:1047F000F0BD0000930200004706000068000020A2
:1048000000007A449A9999999999B93F00002440F7
:10481000FEF7BCFEFFF7EAFDFEF72EFFFCF71AFBE2
:10482000FDF760FFFDF730FFFFF72AFEFEF71CFAE9
:10483000FEF70CFAFFF772F9FFF76FFCFDF790FD3A
:10484000FEF7CEF903E0FFF733FEFDF7C9FDFAE707
:10485000002802D0012831D11EE00521090749684E
:1048600001229205914305221207516011464968C1
:10487000012212069143052212075160114909686D
:104880000122920511430F4A1160114609689202F4
:1048900011430C4A116012E0052109074968012201
:1048A0009205114305221207516011464968012201
:1048B0001206114305221207516000E000BF00BF3D
:1048C000704700000040005070B505460C46002CB3
:1048D00009D0012C02D0022C18D10CE0012128466D
:1048E000FDF758FE13E000212846FDF753FE284649
:1048F000FDF726FE0BE02846FDF70AFE00212846BC
:10490000FDF748FE2846FDF7E7FD00E000BF00BFC9
:1049100070BD10B50121C802FFF7D6FF00210120AC
:10492000C002FDF75BFE002400E0641C0A2CFCDBE7
:1049300002218802FFF7C8FF10BD000070B50125F5
:104940001C002D050C4310D4EC4206D4AC420AD412
:104950008B4200D070BD824270BDEB4217D4E94259
:1049600015D48B4270BD9B4270BDEC4206D5AC4263
:10497000F9D5994200D070BD904270BD6D005C00C9
:10498000EC4204D24C00EC4201D2994270BD0FB40B
:10499000034C0CBC03BC30B4FCF7C0F830BC70BD99
:1049A0001900160470B501250400ED074C4020D411
:1049B000441A01D2001B0919C60D4B00F2B2FF2A9E
:1049C00029D01B0E2CD000020C02D31A2C43DC4041
:1049D0002843051910D2280A02D3401C6D0611D0B5
:1049E000761EF6058019FF2A00DA70BDC00DC005DD
:1049F00070BD694000F0A4F801200543C541521C78
:104A0000761CE8E764089C40C90161408900E7D151
:104A10000124A043E4E71B0E440200D0034870BD0C
:104A2000002AFCD1C00FC00770BD00BF0000C07FCE
:104A300001230200DB050A430DD4DA4203D49A4273
:104A400007D488427047D84214D4D94212D488423D
:104A5000704780427047DA4203D59A42F9D58142C5
:104A600070475B004200DA4204D24A00DA4201D2C7
:104A70008142704710B5024AFCF798F810BD00BF9C
:104A80000900160470B5420064414B005C41120EEF
:104A900039D01B0E38D0FF2A3CD0FF2B3AD0400231
:104AA0004902400A490A060045184E43000A090A0D
:104AB000D2184843ED017F3A0104731A4019190CCA
:104AC0004318990F04D001215B0849075B1A521C57
:104AD000D80904D3401CF50301D19D0607D0FF2A55
:104AE00008D2D50506D0E4072043401970BD012542
:104AF000A843F4E7002A01DCE00770BD2402FF2090
:104B00002043C00570BD1B0EFF2A03D0FF2B01D030
:104B1000E00770BDFF2645003606B54206D84D00B9
:104B2000B54203D8D218FF2A00D0E7E7004870BD8D
:104B30000000C07F70B501250400ED074C4022D471
:104B4000441A02D26C40001B0919C60D4B00F2B288
:104B5000FF2A4BD01B0E50D000020C02D31A2C435C
:104B6000DC40A843051B05D5AD0019D36D08761EA2
:104B7000521E37D0F605280A01D2801970BD704147
:104B80006D0603D070BD6940FFF712FF9C4009021B
:104B90006140490001D0401E70BD0124A04370BD9A
:104BA0006D081DD001202B0C01D12D0410302B0ECF
:104BB00001D12D0208302B0F01D12D01001DAB0FAB
:104BC00001D1AD00801CEB0F01D16D00401C6D00C8
:104BD000361A121A680AF5054019012A02DB70BD5F
:104BE000002070BDC036300AC00770BD1B0E4402E5
:104BF00001D1FF2B00D1024870BD002AF0D070BD5A
:104C00000000C07FFF048105810DFF0CA55A5AA545
:104C100000000000963007772C610EEEBA5109991A
:104C200019C46D078FF46A7035A563E9A395649E76
:104C30003288DB0EA4B8DC791EE9D5E088D9D2979A
:104C40002B4CB609BD7CB17E072DB8E7911DBF90F6
:104C50006410B71DF220B06A4871B9F3DE41BE841A
:104C60007DD4DA1AEBE4DD6D51B5D4F4C785D38376
:104C700056986C13C0A86B647AF962FDECC9658A1A
:104C80004F5C0114D96C0663633D0FFAF50D088D76
:104C9000C8206E3B5E10694CE44160D5727167A21A
:104CA000D1E4033C47D4044BFD850DD26BB50AA576
:104CB000FAA8B5356C98B242D6C9BBDB40F9BCAC9A
:104CC000E36CD832755CDF45CF0DD6DC593DD1ABF6
:104CD000AC30D9263A00DE518051D7C81661D0BF1A
:104CE000B5F4B42123C4B3569995BACF0FA5BDB876
:104CF0009EB802280888055FB2D90CC624E90BB11A
:104D0000877C6F2F114C6858AB1D61C13D2D66B675
:104D10009041DC760671DB01BC20D2982A10D5EFD9
:104D20008985B1711FB5B606A5E4BF9F33D4B8E835
:104D3000A2C9077834F9000F8EA8099618980EE1D9
:104D4000BB0D6A7F2D3D6D08976C6491015C63E635
:104D5000F4516B6B62616C1CD83065854E0062F259
:104D6000ED95066C7BA5011BC1F4088257C40FF5B5
:104D7000C6D9B06550E9B712EAB8BE8B7C88B9FCD9
:104D8000DF1DDD62492DDA15F37CD38C654CD4FB35
:104D90005861B24DCE51B53A7400BCA3E230BBD4D9
:104DA00041A5DF4AD795D83D6DC4D1A4FBF4D6D335
:104DB0006AE96943FCD96E34468867ADD0B860DAD9
:104DC000732D0444E51D03335F4C0AAAC97C0DDD35
:104DD0003C710550AA41022710100BBE86200CC959
:104DE00025B56857B3856F2009D466B99FE461CEB5
:104DF0000EF9DE5E98C9D9292298D0B0B4A8D7C7D9
:104E0000173DB359810DB42E3B5CBDB7AD6CBAC034
:104E10002083B8EDB6B3BF9A0CE2B6039AD2B17450
:104E20003947D5EAAF77D29D1526DB048316DC73AC
:104E3000120B63E3843B64943E6A6D0DA85A6A7A50
:104E40000BCF0EE49DFF099327AE000AB19E077DAC
:104E500044930FF0D2A3088768F2011EFEC20669D0
:104E60005D5762F7CB67658071366C19E7066B6E2C
:104E7000761BD4FEE02BD3895A7ADA10CC4ADD6750
:104E80006FDFB9F9F9EFBE8E43BEB717D58EB060AC
:104E9000E8A3D6D67E93D1A1C4C2D83852F2DF4F50
:104EA000F167BBD16757BCA6DD06B53F4B36B248AC
:104EB000DA2B0DD84C1B0AAFF64A0336607A044150
:104EC000C3EF60DF55DF67A8EF8E6E3179BE6946AC
:104ED0008CB361CB1A8366BCA0D26F2536E26852D0
:104EE00095770CCC03470BBBB91602222F2605552C
:104EF000BE3BBAC5280BBDB2925AB42B046AB35C50
:104F0000A7FFD7C231CFD0B58B9ED92C1DAEDE5BAB
:104F1000B0C2649B26F263EC9CA36A750A936D028F
:104F2000A906099C3F360EEB8567077213570005EB
:104F3000824ABF95147AB8E2AE2BB17B381BB60C0F
:104F40009B8ED2920DBED5E5B7EFDC7C21DFDB0B6B
:104F5000D4D2D38642E2D4F1F8B3DD686E83DA1F8F
:104F6000CD16BE815B26B9F6E177B06F7747B718EB
:104F7000E65A0888706A0FFFCA3B06665C0B01118F
:104F8000FF9E658F69AE62F8D3FF6B6145CF6C16EB
:104F900078E20AA0EED20DD75483044EC2B303398F
:104FA000612667A7F71660D04D476949DB776E3EEB
:104FB0004A6AD1AEDC5AD6D9660BDF40F03BD8370F
:104FC00053AEBCA9C59EBBDE7FCFB247E9FFB5306B
:104FD0001CF2BDBD8AC2BACA3093B353A6A3B4248F
:104FE0000536D0BA9306D7CD2957DE54BF67D923EB
:104FF0002E7A66B3B84A61C4021B685D942B6F2A8F
:1050000037BE0BB4A18E0CC31BDF055A8DEF022DEA
:1050100000002110422063308440A550C660E77034
:10502000088129914AA16BB18CC1ADD1CEE1EFF1DC
:105030003112100273325222B5529442F772D66284
:10504000399318837BB35AA3BDD39CC3FFF3DEE32C
:105050006224433420040114E664C774A4448554D4
:105060006AA54BB528850995EEE5CFF5ACC58DD57C
:105070005336722611163006D776F6669556B44624
:105080005BB77AA719973887DFF7FEE79DD7BCC7CC
:10509000C448E5588668A778400861180228233874
:1050A000CCC9EDD98EE9AFF9488969990AA92BB91C
:1050B000F55AD44AB77A966A711A500A333A122AC4
:1050C000FDDBDCCBBFFB9EEB799B588B3BBB1AAB6C
:1050D000A66C877CE44CC55C222C033C600C411C14
:1050E000AEED8FFDECCDCDDD2AAD0BBD688D499DBC
:1050F000977EB66ED55EF44E133E322E511E700E64
:105100009FFFBEEFDDDFFCCF1BBF3AAF599F788F0B
:105110008891A981CAB1EBA10CD12DC14EF16FE1EB
:105120008010A100C230E320045025404670676023
:10513000B9839893FBA3DAB33DC31CD37FE35EF33B
:10514000B1029012F322D232354214527762567273
:10515000EAB5CBA5A89589856EF54FE52CD50DC58B
:10516000E234C324A01481046674476424540544C3
:10517000DBA7FAB79987B8975FE77EF71DC73CD7DB
:10518000D326F2369106B016576676761546345613
:105190004CD96DC90EF92FE9C899E9898AB9ABA92B
:1051A0004458654806782768C018E1088238A32863
:1051B0007DCB5CDB3FEB1EFBF98BD89BBBAB9ABB7B
:1051C000754A545A376A167AF10AD01AB32A923AB3
:1051D0002EFD0FED6CDD4DCDAABD8BADE89DC98DCB
:1051E000267C076C645C454CA23C832CE01CC10C03
:1051F0001FEF3EFF5DCF7CDF9BAFBABFD98FF89F1B
:10520000176E367E554E745E932EB23ED10EF01E52
:105210000000000017B7D13852499D39FAED6B3ABA
:105220000AD7233BAC8BDB3BE2E9953C16FB4B3DBD
:10523000158C0A3E645DBC3E0000803FA1F82D4005
:105240008273EC401BAFA0418F645A42C76914437C
:10525000E3B6C94343148944544F3A45AC38FD453D
:10526000EE14AC460000A0C07424FF3F0000803F55
:105270000000803F0000803F0000803F0000803F32
:105280000000803F0000803F0000803F0000803F22
:105290000000803F0000803F0000803F0000803F12
:1052A0000000803F0000803F000020404547BA3F9B
:1052B0000000803F0000803F0000803F0000803FF2
:1052C0000000803F0000803F0000803F0000803FE2
:1052D0000000803F0000803F0000803F0000803FD2
:1052E0000000803F0000803F0000803F00005041F0
:1052F0008E06903F0000803F0000803F0000803F0E
:105300000000803F0000803F0000803F0000803FA1
:105310000000803F0000803F0000803F0000803F91
:105320000000803F0000803F0000803F0000803F81
:105330000000A6410000803F0000803F0000803F49
:105340000000803F0000803F0000803F0000803F61
:105350000000803F0000803F0000803F0000803F51
:105360000000803F0000803F0000803F0000803F41
:105370000000803F0000FE41F2D26D3F0000803F00
:105380000000803F0000803F0000803F0000803F21
:105390000000803F0000803F0000803F0000803F11
:1053A0000000803F0000803F0000803F0000803F01
:1053B0000000803F0000803F00002042F6286C3F44
:1053C0000000803F0000803F0000803F0000803FE1
:1053D0000000803F0000803F0000803F0000803FD1
:1053E0000000803F0000803F0000803F0000803FC1
:1053F0000000803F0000803F0000803F00004842E6
:10540000AF94853F0000803F0000803F0000803F58
:105410000000803F0000803F0000803F0000803F90
:105420000000803F0000803F0000803F0000803F80
:105430000000803F0000803F0000803F0000803F70
:10544000CDCC6242F697AD3F0000803F0000803F28
:105450000000803F0000803F0000803F0000803F50
:105460000000803F0000803F0000803F0000803F40
:105470000000803F0000803F0000803F0000803F30
:105480000000803F00000001000002010A03010249
:1054900004010205010206000007000008000009DF
:1054A00000000A11020B00000C00000D00000E00AD
:1054B000000F000010110111110512110513110543
:1054C00014110515110516110517110518110519E7
:1054D00011051A11051B00001C00001D00001E0014
:1054E000001F1101201101210102220102230102EA
:1054F00024010225010226010227010228010229B6
:1055000001022A01022B01012C01052D00002E00B1
:10551000002F000030000031000032000033000096
:105520003400003500003600003700003800003934
:1055300000003A00003B00003C00003D00003E003F
:10554000003F000040000041000042000043000016
:1055500044000045000046000047000048000049A4
:1055600000004A00004B00004C00004D00004E00BF
:10557000004F00005011015111025211045300005C
:105580005400005500005600005700005800005914
:1055900000005A00005B00005C00005D00005E003F
:1055A000005F00006011016111016211FF631102CF
:1055B0006411026511026611026711026811026925
:1055C00011026A11026B11026C11026D11026E114F
:1055D000026F110270110271110272110273110235
:1055E0007411027511027611027711027811027995
:1055F00011027A11027B11027C11027D11027E11CF
:10560000027F11028011018111018211FF831101BA
:105610008411018511FF8611018711018811FF890D
:1056200011018A11018B11FF8C00008D00008E008A
:10563000008F000090000091000092000093000095
:1056400094000095000096000097000098000099D3
:1056500000009A00009B00009C00009D00009E003E
:10566000009F0000A00000A10000A20000A3000015
:10567000A40000A50000A60000A70000A80000A943
:105680000000AA0000AB0000AC0000AD0000AE00BE
:1056900000AF0000B00000B10000B20000B3000095
:1056A000B40000B50000B60000B70000B80000B9B3
:1056B0000000BA0000BB0000BC0000BD0000BE003E
:1056C00000BF0000C00000C10000C20000C3000015
:1056D000C40000C50000C60000C70000C80000C923
:1056E0000000CA0000CB0000CC0000CD0000CE00BE
:1056F00000CF0000D01101D10000D21102D311025D
:10570000D41102D50000D60000D70000D80000D97F
:105710000000DA0000DB0000DC0000DD0000DE003D
:1057200000DF0000E00000E10000E20000E3000014
:10573000E40000E50000E60000E70000E80000E902
:105740000000EA0000EB0000EC0000ED0000EE00BD
:1057500000EF0000F00000F10000F20000F3000094
:10576000F40000F50000F60000F70000F80000F972
:105770000000FA0000FB0000FC0000FD0000FE003D
:1057800000FF0000000000000C0000000C000C00F6
:1057900001020700000008000700080008000700D9
:1057A000100008000700180008000700200008008B
:1057B0000700280008000700300008000700380034
:1057C0000800070040000800070048000800070024
:1057D000500008000700580008000700600008009B
:1057E0000700680008000700700008000700780044
:1057F0000800000102030405060708090A0B0C0D46
:105800000E0F08000000080008000800080008004B
:105810001000080008001800080008002000080018
:1058200008002800080008003000080008003800C0
:1058300008000800400008000800480008000800B0
:105840005000080008005800080008006000080028
:1058500008006800080008007000080008007800D0
:105860000800000102030405060708090A0B0C0DD5
:105870000E0F8182838485868788898B8C8D8E8F9D
:10588000919293959697999A9C9D9FA0A2A3A5A764
:10589000A8AAACAEB0B2B3B5B7B9BCBEC0C2C5C79A
:1058A000C9CCCED1D4D7D9DCDFE2E6E9ECF0F3F70E
:1058B000FAFE0000D457000000000020540300004E
:1058C000220C0000E4580000540300205410000093
:1058D0000401000061130E401A400412020616056E
:1058E000030325013A0803413203201148E11B421A
:1058F00085EB5D410AD7B542F62860422021384148
:10590000E17A6B42CDCCC9422E9060BE5227C0BE18
:10591000ACF108B97E8AE33AE5D18DBA48021A881B
:10592000041A8D041A49041AFA6623D8041A520478
:105930001A99511AED141A5E0423AF051ADD141AD0
:10594000E8141A1B041A7F141A53081A5A041A1F4F
:10595000041AAF101A39041A8A401ADC041A080C07
:105960001AFB081AC5041C27603B88C1A9CB0B3A57
:10597000803F04124612460A19640209426401106B
:1059800029BE16CDCC4C3D10921E140D104112278D
:1059900043FFFF13380982208BC0010C9ACC0C9A6C
:1059A000D80C9AE40C9AF00C9AFC0C8B08020C9A16
:1059B000140C9A200C9A2C0C9A380C9A440C9A507D
:1059C0000C9A5C0C9A680C01501A01021ACC6029DE
:1059D00008C902311AFF01490539064901491B016D
:1059E00050000000FFFFFFFFFFFFFFFFFFFFFFFF73
:1059F000FFFFFFFFFFFFFFFFFFFFFFFFFFFFFFFFB7
:00000001FF
